{
  "contractName": "MyNFT",
  "abi": [
    {
      "inputs": [],
      "stateMutability": "nonpayable",
      "type": "constructor"
    },
    {
      "anonymous": false,
      "inputs": [
        {
          "indexed": true,
          "internalType": "address",
          "name": "owner",
          "type": "address"
        },
        {
          "indexed": true,
          "internalType": "address",
          "name": "approved",
          "type": "address"
        },
        {
          "indexed": true,
          "internalType": "uint256",
          "name": "tokenId",
          "type": "uint256"
        }
      ],
      "name": "Approval",
      "type": "event"
    },
    {
      "anonymous": false,
      "inputs": [
        {
          "indexed": true,
          "internalType": "address",
          "name": "owner",
          "type": "address"
        },
        {
          "indexed": true,
          "internalType": "address",
          "name": "operator",
          "type": "address"
        },
        {
          "indexed": false,
          "internalType": "bool",
          "name": "approved",
          "type": "bool"
        }
      ],
      "name": "ApprovalForAll",
      "type": "event"
    },
    {
      "anonymous": false,
      "inputs": [
        {
          "indexed": false,
          "internalType": "uint256",
          "name": "_fromTokenId",
          "type": "uint256"
        },
        {
          "indexed": false,
          "internalType": "uint256",
          "name": "_toTokenId",
          "type": "uint256"
        }
      ],
      "name": "BatchMetadataUpdate",
      "type": "event"
    },
    {
      "anonymous": false,
      "inputs": [
        {
          "indexed": false,
          "internalType": "uint256",
          "name": "_tokenId",
          "type": "uint256"
        }
      ],
      "name": "MetadataUpdate",
      "type": "event"
    },
    {
      "anonymous": false,
      "inputs": [
        {
          "indexed": true,
          "internalType": "uint256",
          "name": "tokenId",
          "type": "uint256"
        },
        {
          "indexed": false,
          "internalType": "address payable",
          "name": "owner",
          "type": "address"
        },
        {
          "indexed": false,
          "internalType": "string",
          "name": "title",
          "type": "string"
        },
        {
          "indexed": false,
          "internalType": "string",
          "name": "description",
          "type": "string"
        },
        {
          "indexed": false,
          "internalType": "string",
          "name": "image",
          "type": "string"
        }
      ],
      "name": "NftStructCreated",
      "type": "event"
    },
    {
      "anonymous": false,
      "inputs": [
        {
          "indexed": true,
          "internalType": "address",
          "name": "previousOwner",
          "type": "address"
        },
        {
          "indexed": true,
          "internalType": "address",
          "name": "newOwner",
          "type": "address"
        }
      ],
      "name": "OwnershipTransferred",
      "type": "event"
    },
    {
      "anonymous": false,
      "inputs": [
        {
          "indexed": true,
          "internalType": "address",
          "name": "from",
          "type": "address"
        },
        {
          "indexed": true,
          "internalType": "address",
          "name": "to",
          "type": "address"
        },
        {
          "indexed": true,
          "internalType": "uint256",
          "name": "tokenId",
          "type": "uint256"
        }
      ],
      "name": "Transfer",
      "type": "event"
    },
    {
      "inputs": [
        {
          "internalType": "address",
          "name": "to",
          "type": "address"
        },
        {
          "internalType": "uint256",
          "name": "tokenId",
          "type": "uint256"
        }
      ],
      "name": "approve",
      "outputs": [],
      "stateMutability": "nonpayable",
      "type": "function"
    },
    {
      "inputs": [
        {
          "internalType": "address",
          "name": "owner",
          "type": "address"
        }
      ],
      "name": "balanceOf",
      "outputs": [
        {
          "internalType": "uint256",
          "name": "",
          "type": "uint256"
        }
      ],
      "stateMutability": "view",
      "type": "function",
      "constant": true
    },
    {
      "inputs": [
        {
          "internalType": "uint256",
          "name": "tokenId",
          "type": "uint256"
        }
      ],
      "name": "getApproved",
      "outputs": [
        {
          "internalType": "address",
          "name": "",
          "type": "address"
        }
      ],
      "stateMutability": "view",
      "type": "function",
      "constant": true
    },
    {
      "inputs": [
        {
          "internalType": "address",
          "name": "owner",
          "type": "address"
        },
        {
          "internalType": "address",
          "name": "operator",
          "type": "address"
        }
      ],
      "name": "isApprovedForAll",
      "outputs": [
        {
          "internalType": "bool",
          "name": "",
          "type": "bool"
        }
      ],
      "stateMutability": "view",
      "type": "function",
      "constant": true
    },
    {
      "inputs": [],
      "name": "name",
      "outputs": [
        {
          "internalType": "string",
          "name": "",
          "type": "string"
        }
      ],
      "stateMutability": "view",
      "type": "function",
      "constant": true
    },
    {
      "inputs": [],
      "name": "owner",
      "outputs": [
        {
          "internalType": "address",
          "name": "",
          "type": "address"
        }
      ],
      "stateMutability": "view",
      "type": "function",
      "constant": true
    },
    {
      "inputs": [
        {
          "internalType": "uint256",
          "name": "tokenId",
          "type": "uint256"
        }
      ],
      "name": "ownerOf",
      "outputs": [
        {
          "internalType": "address",
          "name": "",
          "type": "address"
        }
      ],
      "stateMutability": "view",
      "type": "function",
      "constant": true
    },
    {
      "inputs": [],
      "name": "renounceOwnership",
      "outputs": [],
      "stateMutability": "nonpayable",
      "type": "function"
    },
    {
      "inputs": [
        {
          "internalType": "address",
          "name": "from",
          "type": "address"
        },
        {
          "internalType": "address",
          "name": "to",
          "type": "address"
        },
        {
          "internalType": "uint256",
          "name": "tokenId",
          "type": "uint256"
        }
      ],
      "name": "safeTransferFrom",
      "outputs": [],
      "stateMutability": "nonpayable",
      "type": "function"
    },
    {
      "inputs": [
        {
          "internalType": "address",
          "name": "from",
          "type": "address"
        },
        {
          "internalType": "address",
          "name": "to",
          "type": "address"
        },
        {
          "internalType": "uint256",
          "name": "tokenId",
          "type": "uint256"
        },
        {
          "internalType": "bytes",
          "name": "data",
          "type": "bytes"
        }
      ],
      "name": "safeTransferFrom",
      "outputs": [],
      "stateMutability": "nonpayable",
      "type": "function"
    },
    {
      "inputs": [
        {
          "internalType": "address",
          "name": "operator",
          "type": "address"
        },
        {
          "internalType": "bool",
          "name": "approved",
          "type": "bool"
        }
      ],
      "name": "setApprovalForAll",
      "outputs": [],
      "stateMutability": "nonpayable",
      "type": "function"
    },
    {
      "inputs": [
        {
          "internalType": "bytes4",
          "name": "interfaceId",
          "type": "bytes4"
        }
      ],
      "name": "supportsInterface",
      "outputs": [
        {
          "internalType": "bool",
          "name": "",
          "type": "bool"
        }
      ],
      "stateMutability": "view",
      "type": "function",
      "constant": true
    },
    {
      "inputs": [],
      "name": "symbol",
      "outputs": [
        {
          "internalType": "string",
          "name": "",
          "type": "string"
        }
      ],
      "stateMutability": "view",
      "type": "function",
      "constant": true
    },
    {
      "inputs": [
        {
          "internalType": "uint256",
          "name": "tokenId",
          "type": "uint256"
        }
      ],
      "name": "tokenURI",
      "outputs": [
        {
          "internalType": "string",
          "name": "",
          "type": "string"
        }
      ],
      "stateMutability": "view",
      "type": "function",
      "constant": true
    },
    {
      "inputs": [
        {
          "internalType": "address",
          "name": "from",
          "type": "address"
        },
        {
          "internalType": "address",
          "name": "to",
          "type": "address"
        },
        {
          "internalType": "uint256",
          "name": "tokenId",
          "type": "uint256"
        }
      ],
      "name": "transferFrom",
      "outputs": [],
      "stateMutability": "nonpayable",
      "type": "function"
    },
    {
      "inputs": [
        {
          "internalType": "address",
          "name": "newOwner",
          "type": "address"
        }
      ],
      "name": "transferOwnership",
      "outputs": [],
      "stateMutability": "nonpayable",
      "type": "function"
    },
    {
      "inputs": [
        {
          "internalType": "string",
          "name": "_tokenURI",
          "type": "string"
        },
        {
          "internalType": "string",
          "name": "_title",
          "type": "string"
        },
        {
          "internalType": "string",
          "name": "_description",
          "type": "string"
        },
        {
          "internalType": "string",
          "name": "_image",
          "type": "string"
        }
      ],
      "name": "createNft",
      "outputs": [],
      "stateMutability": "nonpayable",
      "type": "function"
    },
    {
      "inputs": [],
      "name": "getNfts",
      "outputs": [
        {
          "components": [
            {
              "internalType": "uint256",
              "name": "tokenId",
              "type": "uint256"
            },
            {
              "internalType": "address payable",
              "name": "owner",
              "type": "address"
            },
            {
              "internalType": "string",
              "name": "title",
              "type": "string"
            },
            {
              "internalType": "string",
              "name": "description",
              "type": "string"
            },
            {
              "internalType": "string",
              "name": "image",
              "type": "string"
            },
            {
              "internalType": "string",
              "name": "tokenUri",
              "type": "string"
            }
          ],
          "internalType": "struct MyNFT.nftStruct[]",
          "name": "",
          "type": "tuple[]"
        }
      ],
      "stateMutability": "view",
      "type": "function",
      "constant": true
    },
    {
      "inputs": [
        {
          "internalType": "uint256",
          "name": "_tokenId",
          "type": "uint256"
        }
      ],
      "name": "getIndividualNFT",
      "outputs": [
        {
          "components": [
            {
              "internalType": "uint256",
              "name": "tokenId",
              "type": "uint256"
            },
            {
              "internalType": "address payable",
              "name": "owner",
              "type": "address"
            },
            {
              "internalType": "string",
              "name": "title",
              "type": "string"
            },
            {
              "internalType": "string",
              "name": "description",
              "type": "string"
            },
            {
              "internalType": "string",
              "name": "image",
              "type": "string"
            },
            {
              "internalType": "string",
              "name": "tokenUri",
              "type": "string"
            }
          ],
          "internalType": "struct MyNFT.nftStruct",
          "name": "",
          "type": "tuple"
        }
      ],
      "stateMutability": "view",
      "type": "function",
      "constant": true
    },
    {
      "inputs": [
        {
          "internalType": "address",
          "name": "owner",
          "type": "address"
        }
      ],
      "name": "getNftsByAddress",
      "outputs": [
        {
          "internalType": "uint256[]",
          "name": "",
          "type": "uint256[]"
        }
      ],
      "stateMutability": "view",
      "type": "function",
      "constant": true
    },
    {
      "inputs": [
        {
          "internalType": "address",
          "name": "from",
          "type": "address"
        },
        {
          "internalType": "address payable",
          "name": "to",
          "type": "address"
        },
        {
          "internalType": "uint256",
          "name": "tokenId",
          "type": "uint256"
        }
      ],
      "name": "sendNft",
      "outputs": [
        {
          "internalType": "uint256",
          "name": "",
          "type": "uint256"
        }
      ],
      "stateMutability": "nonpayable",
      "type": "function"
    },
    {
      "inputs": [],
      "name": "getNftsCount",
      "outputs": [
        {
          "internalType": "uint256",
          "name": "",
          "type": "uint256"
        }
      ],
      "stateMutability": "view",
      "type": "function",
      "constant": true
    }
  ],
  "bytecode": "0x60806040523480156200001157600080fd5b506040518060400160405280600981526020017f4e4654204d494e544f00000000000000000000000000000000000000000000008152506040518060400160405280601681526020017f4d494e544f2773204e465420636f6c6c656374696f6e0000000000000000000081525081600090816200008f91906200044c565b508060019081620000a191906200044c565b505050620000c4620000b8620000ee60201b60201c565b620000f660201b60201c565b620000d66008620001bc60201b60201c565b620000e86009620001bc60201b60201c565b62000533565b600033905090565b6000600760009054906101000a900473ffffffffffffffffffffffffffffffffffffffff16905081600760006101000a81548173ffffffffffffffffffffffffffffffffffffffff021916908373ffffffffffffffffffffffffffffffffffffffff1602179055508173ffffffffffffffffffffffffffffffffffffffff168173ffffffffffffffffffffffffffffffffffffffff167f8be0079c531659141344cd1fd0a4f28419497f9722a3daafe3b4186f6b6457e060405160405180910390a35050565b6001816000016000828254019250508190555050565b600081519050919050565b7f4e487b7100000000000000000000000000000000000000000000000000000000600052604160045260246000fd5b7f4e487b7100000000000000000000000000000000000000000000000000000000600052602260045260246000fd5b600060028204905060018216806200025457607f821691505b6020821081036200026a57620002696200020c565b5b50919050565b60008190508160005260206000209050919050565b60006020601f8301049050919050565b600082821b905092915050565b600060088302620002d47fffffffffffffffffffffffffffffffffffffffffffffffffffffffffffffffff8262000295565b620002e0868362000295565b95508019841693508086168417925050509392505050565b6000819050919050565b6000819050919050565b60006200032d620003276200032184620002f8565b62000302565b620002f8565b9050919050565b6000819050919050565b62000349836200030c565b62000361620003588262000334565b848454620002a2565b825550505050565b600090565b6200037862000369565b620003858184846200033e565b505050565b5b81811015620003ad57620003a16000826200036e565b6001810190506200038b565b5050565b601f821115620003fc57620003c68162000270565b620003d18462000285565b81016020851015620003e1578190505b620003f9620003f08562000285565b8301826200038a565b50505b505050565b600082821c905092915050565b6000620004216000198460080262000401565b1980831691505092915050565b60006200043c83836200040e565b9150826002028217905092915050565b6200045782620001d2565b67ffffffffffffffff811115620004735762000472620001dd565b5b6200047f82546200023b565b6200048c828285620003b1565b600060209050601f831160018114620004c45760008415620004af578287015190505b620004bb85826200042e565b8655506200052b565b601f198416620004d48662000270565b60005b82811015620004fe57848901518255600182019150602085019450602081019050620004d7565b868310156200051e57848901516200051a601f8916826200040e565b8355505b6001600288020188555050505b505050505050565b613f9880620005436000396000f3fe608060405234801561001057600080fd5b50600436106101425760003560e01c8063715018a6116100b8578063a22cb4651161007c578063a22cb46514610389578063b88d4fde146103a5578063c87b56dd146103c1578063d8cb55e3146103f1578063e985e9c51461040f578063f2fde38b1461043f57610142565b8063715018a6146102f757806376856319146103015780638a566fa8146103315780638da5cb5b1461034d57806395d89b411461036b57610142565b806323b872dd1161010a57806323b872dd146101ff5780633a66dd361461021b57806342842e0e1461024b5780634d81c77d146102675780636352211e1461029757806370a08231146102c757610142565b806301ffc9a71461014757806305ed9a671461017757806306fdde0314610195578063081812fc146101b3578063095ea7b3146101e3575b600080fd5b610161600480360381019061015c91906127f3565b61045b565b60405161016e919061283b565b60405180910390f35b61017f6104bc565b60405161018c919061286f565b60405180910390f35b61019d6104cd565b6040516101aa919061291a565b60405180910390f35b6101cd60048036038101906101c89190612968565b61055f565b6040516101da91906129d6565b60405180910390f35b6101fd60048036038101906101f89190612a1d565b6105a5565b005b61021960048036038101906102149190612a5d565b6106bc565b005b61023560048036038101906102309190612ab0565b61071c565b6040516102429190612b9b565b60405180910390f35b61026560048036038101906102609190612a5d565b610822565b005b610281600480360381019061027c9190612bfb565b610842565b60405161028e919061286f565b60405180910390f35b6102b160048036038101906102ac9190612968565b6108ae565b6040516102be91906129d6565b60405180910390f35b6102e160048036038101906102dc9190612ab0565b610934565b6040516102ee919061286f565b60405180910390f35b6102ff6109eb565b005b61031b60048036038101906103169190612968565b6109ff565b6040516103289190612d45565b60405180910390f35b61034b60048036038101906103469190612e9c565b610cd4565b005b610355610d7a565b60405161036291906129d6565b60405180910390f35b610373610da4565b604051610380919061291a565b60405180910390f35b6103a3600480360381019061039e9190612f9f565b610e36565b005b6103bf60048036038101906103ba9190613080565b610e4c565b005b6103db60048036038101906103d69190612968565b610eae565b6040516103e8919061291a565b60405180910390f35b6103f9610fc0565b6040516104069190613263565b60405180910390f35b61042960048036038101906104249190613285565b611434565b604051610436919061283b565b60405180910390f35b61045960048036038101906104549190612ab0565b6114c8565b005b6000634906490660e01b7bffffffffffffffffffffffffffffffffffffffffffffffffffffffff1916827bffffffffffffffffffffffffffffffffffffffffffffffffffffffff191614806104b557506104b48261154b565b5b9050919050565b60006104c8600861162d565b905090565b6060600080546104dc906132f4565b80601f0160208091040260200160405190810160405280929190818152602001828054610508906132f4565b80156105555780601f1061052a57610100808354040283529160200191610555565b820191906000526020600020905b81548152906001019060200180831161053857829003601f168201915b5050505050905090565b600061056a8261163b565b6004600083815260200190815260200160002060009054906101000a900473ffffffffffffffffffffffffffffffffffffffff169050919050565b60006105b0826108ae565b90508073ffffffffffffffffffffffffffffffffffffffff168373ffffffffffffffffffffffffffffffffffffffff1603610620576040517f08c379a000000000000000000000000000000000000000000000000000000000815260040161061790613397565b60405180910390fd5b8073ffffffffffffffffffffffffffffffffffffffff1661063f611686565b73ffffffffffffffffffffffffffffffffffffffff16148061066e575061066d81610668611686565b611434565b5b6106ad576040517f08c379a00000000000000000000000000000000000000000000000000000000081526004016106a490613429565b60405180910390fd5b6106b7838361168e565b505050565b6106cd6106c7611686565b82611747565b61070c576040517f08c379a0000000000000000000000000000000000000000000000000000000008152600401610703906134bb565b60405180910390fd5b6107178383836117dc565b505050565b6060600073ffffffffffffffffffffffffffffffffffffffff168273ffffffffffffffffffffffffffffffffffffffff160361078d576040517f08c379a00000000000000000000000000000000000000000000000000000000081526004016107849061354d565b60405180910390fd5b600b60008373ffffffffffffffffffffffffffffffffffffffff1673ffffffffffffffffffffffffffffffffffffffff16815260200190815260200160002080548060200260200160405190810160405280929190818152602001828054801561081657602002820191906000526020600020905b815481526020019060010190808311610802575b50505050509050919050565b61083d83838360405180602001604052806000815250610e4c565b505050565b600061084f848484610822565b82600a600084815260200190815260200160002060010160006101000a81548173ffffffffffffffffffffffffffffffffffffffff021916908373ffffffffffffffffffffffffffffffffffffffff1602179055508190509392505050565b6000806108ba83611ad5565b9050600073ffffffffffffffffffffffffffffffffffffffff168173ffffffffffffffffffffffffffffffffffffffff160361092b576040517f08c379a0000000000000000000000000000000000000000000000000000000008152600401610922906135b9565b60405180910390fd5b80915050919050565b60008073ffffffffffffffffffffffffffffffffffffffff168273ffffffffffffffffffffffffffffffffffffffff16036109a4576040517f08c379a000000000000000000000000000000000000000000000000000000000815260040161099b9061354d565b60405180910390fd5b600360008373ffffffffffffffffffffffffffffffffffffffff1673ffffffffffffffffffffffffffffffffffffffff168152602001908152602001600020549050919050565b6109f3611b12565b6109fd6000611b90565b565b610a0761273b565b600a60008381526020019081526020016000206040518060c0016040529081600082015481526020016001820160009054906101000a900473ffffffffffffffffffffffffffffffffffffffff1673ffffffffffffffffffffffffffffffffffffffff1673ffffffffffffffffffffffffffffffffffffffff168152602001600282018054610a95906132f4565b80601f0160208091040260200160405190810160405280929190818152602001828054610ac1906132f4565b8015610b0e5780601f10610ae357610100808354040283529160200191610b0e565b820191906000526020600020905b815481529060010190602001808311610af157829003601f168201915b50505050508152602001600382018054610b27906132f4565b80601f0160208091040260200160405190810160405280929190818152602001828054610b53906132f4565b8015610ba05780601f10610b7557610100808354040283529160200191610ba0565b820191906000526020600020905b815481529060010190602001808311610b8357829003601f168201915b50505050508152602001600482018054610bb9906132f4565b80601f0160208091040260200160405190810160405280929190818152602001828054610be5906132f4565b8015610c325780601f10610c0757610100808354040283529160200191610c32565b820191906000526020600020905b815481529060010190602001808311610c1557829003601f168201915b50505050508152602001600582018054610c4b906132f4565b80601f0160208091040260200160405190810160405280929190818152602001828054610c77906132f4565b8015610cc45780601f10610c9957610100808354040283529160200191610cc4565b820191906000526020600020905b815481529060010190602001808311610ca757829003601f168201915b5050505050815250509050919050565b6000610ce0600861162d565b9050610cec3382611c56565b610cf68186611e73565b600b60003373ffffffffffffffffffffffffffffffffffffffff1673ffffffffffffffffffffffffffffffffffffffff168152602001908152602001600020819080600181540180825580915050600190039060005260206000200160009091909190915055610d698185858886611f17565b610d73600861205c565b5050505050565b6000600760009054906101000a900473ffffffffffffffffffffffffffffffffffffffff16905090565b606060018054610db3906132f4565b80601f0160208091040260200160405190810160405280929190818152602001828054610ddf906132f4565b8015610e2c5780601f10610e0157610100808354040283529160200191610e2c565b820191906000526020600020905b815481529060010190602001808311610e0f57829003601f168201915b5050505050905090565b610e48610e41611686565b8383612072565b5050565b610e5d610e57611686565b83611747565b610e9c576040517f08c379a0000000000000000000000000000000000000000000000000000000008152600401610e93906134bb565b60405180910390fd5b610ea8848484846121de565b50505050565b6060610eb98261163b565b6000600660008481526020019081526020016000208054610ed9906132f4565b80601f0160208091040260200160405190810160405280929190818152602001828054610f05906132f4565b8015610f525780601f10610f2757610100808354040283529160200191610f52565b820191906000526020600020905b815481529060010190602001808311610f3557829003601f168201915b505050505090506000610f6361223a565b90506000815103610f78578192505050610fbb565b600082511115610fad578082604051602001610f95929190613615565b60405160208183030381529060405292505050610fbb565b610fb684612251565b925050505b919050565b60606000610fce600861162d565b905060008167ffffffffffffffff811115610fec57610feb612d71565b5b60405190808252806020026020018201604052801561102557816020015b61101261273b565b81526020019060019003908161100a5790505b509050600080600190505b83811015611379573373ffffffffffffffffffffffffffffffffffffffff16611058826108ae565b73ffffffffffffffffffffffffffffffffffffffff160361136657600a60008281526020019081526020016000206040518060c0016040529081600082015481526020016001820160009054906101000a900473ffffffffffffffffffffffffffffffffffffffff1673ffffffffffffffffffffffffffffffffffffffff1673ffffffffffffffffffffffffffffffffffffffff168152602001600282018054611101906132f4565b80601f016020809104026020016040519081016040528092919081815260200182805461112d906132f4565b801561117a5780601f1061114f5761010080835404028352916020019161117a565b820191906000526020600020905b81548152906001019060200180831161115d57829003601f168201915b50505050508152602001600382018054611193906132f4565b80601f01602080910402602001604051908101604052809291908181526020018280546111bf906132f4565b801561120c5780601f106111e15761010080835404028352916020019161120c565b820191906000526020600020905b8154815290600101906020018083116111ef57829003601f168201915b50505050508152602001600482018054611225906132f4565b80601f0160208091040260200160405190810160405280929190818152602001828054611251906132f4565b801561129e5780601f106112735761010080835404028352916020019161129e565b820191906000526020600020905b81548152906001019060200180831161128157829003601f168201915b505050505081526020016005820180546112b7906132f4565b80601f01602080910402602001604051908101604052809291908181526020018280546112e3906132f4565b80156113305780601f1061130557610100808354040283529160200191611330565b820191906000526020600020905b81548152906001019060200180831161131357829003601f168201915b50505050508152505083838151811061134c5761134b613639565b5b6020026020010181905250818061136290613697565b9250505b808061137190613697565b915050611030565b5060008167ffffffffffffffff81111561139657611395612d71565b5b6040519080825280602002602001820160405280156113cf57816020015b6113bc61273b565b8152602001906001900390816113b45790505b50905060005b82811015611429578381815181106113f0576113ef613639565b5b602002602001015182828151811061140b5761140a613639565b5b6020026020010181905250808061142190613697565b9150506113d5565b508094505050505090565b6000600560008473ffffffffffffffffffffffffffffffffffffffff1673ffffffffffffffffffffffffffffffffffffffff16815260200190815260200160002060008373ffffffffffffffffffffffffffffffffffffffff1673ffffffffffffffffffffffffffffffffffffffff16815260200190815260200160002060009054906101000a900460ff16905092915050565b6114d0611b12565b600073ffffffffffffffffffffffffffffffffffffffff168173ffffffffffffffffffffffffffffffffffffffff160361153f576040517f08c379a000000000000000000000000000000000000000000000000000000000815260040161153690613751565b60405180910390fd5b61154881611b90565b50565b60007f80ac58cd000000000000000000000000000000000000000000000000000000007bffffffffffffffffffffffffffffffffffffffffffffffffffffffff1916827bffffffffffffffffffffffffffffffffffffffffffffffffffffffff1916148061161657507f5b5e139f000000000000000000000000000000000000000000000000000000007bffffffffffffffffffffffffffffffffffffffffffffffffffffffff1916827bffffffffffffffffffffffffffffffffffffffffffffffffffffffff1916145b806116265750611625826122b9565b5b9050919050565b600081600001549050919050565b61164481612323565b611683576040517f08c379a000000000000000000000000000000000000000000000000000000000815260040161167a906135b9565b60405180910390fd5b50565b600033905090565b816004600083815260200190815260200160002060006101000a81548173ffffffffffffffffffffffffffffffffffffffff021916908373ffffffffffffffffffffffffffffffffffffffff160217905550808273ffffffffffffffffffffffffffffffffffffffff16611701836108ae565b73ffffffffffffffffffffffffffffffffffffffff167f8c5be1e5ebec7d5bd14f71427d1e84f3dd0314c0f7b2291e5b200ac8c7c3b92560405160405180910390a45050565b600080611753836108ae565b90508073ffffffffffffffffffffffffffffffffffffffff168473ffffffffffffffffffffffffffffffffffffffff16148061179557506117948185611434565b5b806117d357508373ffffffffffffffffffffffffffffffffffffffff166117bb8461055f565b73ffffffffffffffffffffffffffffffffffffffff16145b91505092915050565b8273ffffffffffffffffffffffffffffffffffffffff166117fc826108ae565b73ffffffffffffffffffffffffffffffffffffffff1614611852576040517f08c379a0000000000000000000000000000000000000000000000000000000008152600401611849906137e3565b60405180910390fd5b600073ffffffffffffffffffffffffffffffffffffffff168273ffffffffffffffffffffffffffffffffffffffff16036118c1576040517f08c379a00000000000000000000000000000000000000000000000000000000081526004016118b890613875565b60405180910390fd5b6118ce8383836001612364565b8273ffffffffffffffffffffffffffffffffffffffff166118ee826108ae565b73ffffffffffffffffffffffffffffffffffffffff1614611944576040517f08c379a000000000000000000000000000000000000000000000000000000000815260040161193b906137e3565b60405180910390fd5b6004600082815260200190815260200160002060006101000a81549073ffffffffffffffffffffffffffffffffffffffff02191690556001600360008573ffffffffffffffffffffffffffffffffffffffff1673ffffffffffffffffffffffffffffffffffffffff168152602001908152602001600020600082825403925050819055506001600360008473ffffffffffffffffffffffffffffffffffffffff1673ffffffffffffffffffffffffffffffffffffffff16815260200190815260200160002060008282540192505081905550816002600083815260200190815260200160002060006101000a81548173ffffffffffffffffffffffffffffffffffffffff021916908373ffffffffffffffffffffffffffffffffffffffff160217905550808273ffffffffffffffffffffffffffffffffffffffff168473ffffffffffffffffffffffffffffffffffffffff167fddf252ad1be2c89b69c2b068fc378daa952ba7f163c4a11628f55a4df523b3ef60405160405180910390a4611ad0838383600161236a565b505050565b60006002600083815260200190815260200160002060009054906101000a900473ffffffffffffffffffffffffffffffffffffffff169050919050565b611b1a611686565b73ffffffffffffffffffffffffffffffffffffffff16611b38610d7a565b73ffffffffffffffffffffffffffffffffffffffff1614611b8e576040517f08c379a0000000000000000000000000000000000000000000000000000000008152600401611b85906138e1565b60405180910390fd5b565b6000600760009054906101000a900473ffffffffffffffffffffffffffffffffffffffff16905081600760006101000a81548173ffffffffffffffffffffffffffffffffffffffff021916908373ffffffffffffffffffffffffffffffffffffffff1602179055508173ffffffffffffffffffffffffffffffffffffffff168173ffffffffffffffffffffffffffffffffffffffff167f8be0079c531659141344cd1fd0a4f28419497f9722a3daafe3b4186f6b6457e060405160405180910390a35050565b600073ffffffffffffffffffffffffffffffffffffffff168273ffffffffffffffffffffffffffffffffffffffff1603611cc5576040517f08c379a0000000000000000000000000000000000000000000000000000000008152600401611cbc9061394d565b60405180910390fd5b611cce81612323565b15611d0e576040517f08c379a0000000000000000000000000000000000000000000000000000000008152600401611d05906139b9565b60405180910390fd5b611d1c600083836001612364565b611d2581612323565b15611d65576040517f08c379a0000000000000000000000000000000000000000000000000000000008152600401611d5c906139b9565b60405180910390fd5b6001600360008473ffffffffffffffffffffffffffffffffffffffff1673ffffffffffffffffffffffffffffffffffffffff16815260200190815260200160002060008282540192505081905550816002600083815260200190815260200160002060006101000a81548173ffffffffffffffffffffffffffffffffffffffff021916908373ffffffffffffffffffffffffffffffffffffffff160217905550808273ffffffffffffffffffffffffffffffffffffffff16600073ffffffffffffffffffffffffffffffffffffffff167fddf252ad1be2c89b69c2b068fc378daa952ba7f163c4a11628f55a4df523b3ef60405160405180910390a4611e6f60008383600161236a565b5050565b611e7c82612323565b611ebb576040517f08c379a0000000000000000000000000000000000000000000000000000000008152600401611eb290613a4b565b60405180910390fd5b80600660008481526020019081526020016000209081611edb9190613c17565b507ff8e1a15aba9398e019f0b49df1a4fde98ee17ae345cb5f6b5e2c27f5033e8ce782604051611f0b919061286f565b60405180910390a15050565b84600a60008781526020019081526020016000206000018190555033600a600087815260200190815260200160002060010160006101000a81548173ffffffffffffffffffffffffffffffffffffffff021916908373ffffffffffffffffffffffffffffffffffffffff16021790555083600a60008781526020019081526020016000206002019081611faa9190613c17565b5082600a60008781526020019081526020016000206003019081611fce9190613c17565b5081600a60008781526020019081526020016000206005019081611ff29190613c17565b5080600a600087815260200190815260200160002060040190816120169190613c17565b50847f4afa94a2fb84eccde93ef2f896b4e966426d705c605244b220567b792a89ab453386868560405161204d9493929190613cf8565b60405180910390a25050505050565b6001816000016000828254019250508190555050565b8173ffffffffffffffffffffffffffffffffffffffff168373ffffffffffffffffffffffffffffffffffffffff16036120e0576040517f08c379a00000000000000000000000000000000000000000000000000000000081526004016120d790613d9e565b60405180910390fd5b80600560008573ffffffffffffffffffffffffffffffffffffffff1673ffffffffffffffffffffffffffffffffffffffff16815260200190815260200160002060008473ffffffffffffffffffffffffffffffffffffffff1673ffffffffffffffffffffffffffffffffffffffff16815260200190815260200160002060006101000a81548160ff0219169083151502179055508173ffffffffffffffffffffffffffffffffffffffff168373ffffffffffffffffffffffffffffffffffffffff167f17307eab39ab6107e8899845ad3d59bd9653f200f220920489ca2b5937696c31836040516121d1919061283b565b60405180910390a3505050565b6121e98484846117dc565b6121f584848484612370565b612234576040517f08c379a000000000000000000000000000000000000000000000000000000000815260040161222b90613e30565b60405180910390fd5b50505050565b606060405180602001604052806000815250905090565b606061225c8261163b565b600061226661223a565b9050600081511161228657604051806020016040528060008152506122b1565b80612290846124f7565b6040516020016122a1929190613615565b6040516020818303038152906040525b915050919050565b60007f01ffc9a7000000000000000000000000000000000000000000000000000000007bffffffffffffffffffffffffffffffffffffffffffffffffffffffff1916827bffffffffffffffffffffffffffffffffffffffffffffffffffffffff1916149050919050565b60008073ffffffffffffffffffffffffffffffffffffffff1661234583611ad5565b73ffffffffffffffffffffffffffffffffffffffff1614159050919050565b50505050565b50505050565b60006123918473ffffffffffffffffffffffffffffffffffffffff166125c5565b156124ea578373ffffffffffffffffffffffffffffffffffffffff1663150b7a026123ba611686565b8786866040518563ffffffff1660e01b81526004016123dc9493929190613ea5565b6020604051808303816000875af192505050801561241857506040513d601f19601f820116820180604052508101906124159190613f06565b60015b61249a573d8060008114612448576040519150601f19603f3d011682016040523d82523d6000602084013e61244d565b606091505b506000815103612492576040517f08c379a000000000000000000000000000000000000000000000000000000000815260040161248990613e30565b60405180910390fd5b805181602001fd5b63150b7a0260e01b7bffffffffffffffffffffffffffffffffffffffffffffffffffffffff1916817bffffffffffffffffffffffffffffffffffffffffffffffffffffffff1916149150506124ef565b600190505b949350505050565b606060006001612506846125e8565b01905060008167ffffffffffffffff81111561252557612524612d71565b5b6040519080825280601f01601f1916602001820160405280156125575781602001600182028036833780820191505090505b509050600082602001820190505b6001156125ba578080600190039150507f3031323334353637383961626364656600000000000000000000000000000000600a86061a8153600a85816125ae576125ad613f33565b5b04945060008503612565575b819350505050919050565b6000808273ffffffffffffffffffffffffffffffffffffffff163b119050919050565b600080600090507a184f03e93ff9f4daa797ed6e38ed64bf6a1f0100000000000000008310612646577a184f03e93ff9f4daa797ed6e38ed64bf6a1f010000000000000000838161263c5761263b613f33565b5b0492506040810190505b6d04ee2d6d415b85acef81000000008310612683576d04ee2d6d415b85acef8100000000838161267957612678613f33565b5b0492506020810190505b662386f26fc1000083106126b257662386f26fc1000083816126a8576126a7613f33565b5b0492506010810190505b6305f5e10083106126db576305f5e10083816126d1576126d0613f33565b5b0492506008810190505b61271083106127005761271083816126f6576126f5613f33565b5b0492506004810190505b60648310612723576064838161271957612718613f33565b5b0492506002810190505b600a8310612732576001810190505b80915050919050565b6040518060c0016040528060008152602001600073ffffffffffffffffffffffffffffffffffffffff168152602001606081526020016060815260200160608152602001606081525090565b6000604051905090565b600080fd5b600080fd5b60007fffffffff0000000000000000000000000000000000000000000000000000000082169050919050565b6127d08161279b565b81146127db57600080fd5b50565b6000813590506127ed816127c7565b92915050565b60006020828403121561280957612808612791565b5b6000612817848285016127de565b91505092915050565b60008115159050919050565b61283581612820565b82525050565b6000602082019050612850600083018461282c565b92915050565b6000819050919050565b61286981612856565b82525050565b60006020820190506128846000830184612860565b92915050565b600081519050919050565b600082825260208201905092915050565b60005b838110156128c45780820151818401526020810190506128a9565b60008484015250505050565b6000601f19601f8301169050919050565b60006128ec8261288a565b6128f68185612895565b93506129068185602086016128a6565b61290f816128d0565b840191505092915050565b6000602082019050818103600083015261293481846128e1565b905092915050565b61294581612856565b811461295057600080fd5b50565b6000813590506129628161293c565b92915050565b60006020828403121561297e5761297d612791565b5b600061298c84828501612953565b91505092915050565b600073ffffffffffffffffffffffffffffffffffffffff82169050919050565b60006129c082612995565b9050919050565b6129d0816129b5565b82525050565b60006020820190506129eb60008301846129c7565b92915050565b6129fa816129b5565b8114612a0557600080fd5b50565b600081359050612a17816129f1565b92915050565b60008060408385031215612a3457612a33612791565b5b6000612a4285828601612a08565b9250506020612a5385828601612953565b9150509250929050565b600080600060608486031215612a7657612a75612791565b5b6000612a8486828701612a08565b9350506020612a9586828701612a08565b9250506040612aa686828701612953565b9150509250925092565b600060208284031215612ac657612ac5612791565b5b6000612ad484828501612a08565b91505092915050565b600081519050919050565b600082825260208201905092915050565b6000819050602082019050919050565b612b1281612856565b82525050565b6000612b248383612b09565b60208301905092915050565b6000602082019050919050565b6000612b4882612add565b612b528185612ae8565b9350612b5d83612af9565b8060005b83811015612b8e578151612b758882612b18565b9750612b8083612b30565b925050600181019050612b61565b5085935050505092915050565b60006020820190508181036000830152612bb58184612b3d565b905092915050565b6000612bc882612995565b9050919050565b612bd881612bbd565b8114612be357600080fd5b50565b600081359050612bf581612bcf565b92915050565b600080600060608486031215612c1457612c13612791565b5b6000612c2286828701612a08565b9350506020612c3386828701612be6565b9250506040612c4486828701612953565b9150509250925092565b612c5781612bbd565b82525050565b600082825260208201905092915050565b6000612c798261288a565b612c838185612c5d565b9350612c938185602086016128a6565b612c9c816128d0565b840191505092915050565b600060c083016000830151612cbf6000860182612b09565b506020830151612cd26020860182612c4e565b5060408301518482036040860152612cea8282612c6e565b91505060608301518482036060860152612d048282612c6e565b91505060808301518482036080860152612d1e8282612c6e565b91505060a083015184820360a0860152612d388282612c6e565b9150508091505092915050565b60006020820190508181036000830152612d5f8184612ca7565b905092915050565b600080fd5b600080fd5b7f4e487b7100000000000000000000000000000000000000000000000000000000600052604160045260246000fd5b612da9826128d0565b810181811067ffffffffffffffff82111715612dc857612dc7612d71565b5b80604052505050565b6000612ddb612787565b9050612de78282612da0565b919050565b600067ffffffffffffffff821115612e0757612e06612d71565b5b612e10826128d0565b9050602081019050919050565b82818337600083830152505050565b6000612e3f612e3a84612dec565b612dd1565b905082815260208101848484011115612e5b57612e5a612d6c565b5b612e66848285612e1d565b509392505050565b600082601f830112612e8357612e82612d67565b5b8135612e93848260208601612e2c565b91505092915050565b60008060008060808587031215612eb657612eb5612791565b5b600085013567ffffffffffffffff811115612ed457612ed3612796565b5b612ee087828801612e6e565b945050602085013567ffffffffffffffff811115612f0157612f00612796565b5b612f0d87828801612e6e565b935050604085013567ffffffffffffffff811115612f2e57612f2d612796565b5b612f3a87828801612e6e565b925050606085013567ffffffffffffffff811115612f5b57612f5a612796565b5b612f6787828801612e6e565b91505092959194509250565b612f7c81612820565b8114612f8757600080fd5b50565b600081359050612f9981612f73565b92915050565b60008060408385031215612fb657612fb5612791565b5b6000612fc485828601612a08565b9250506020612fd585828601612f8a565b9150509250929050565b600067ffffffffffffffff821115612ffa57612ff9612d71565b5b613003826128d0565b9050602081019050919050565b600061302361301e84612fdf565b612dd1565b90508281526020810184848401111561303f5761303e612d6c565b5b61304a848285612e1d565b509392505050565b600082601f83011261306757613066612d67565b5b8135613077848260208601613010565b91505092915050565b6000806000806080858703121561309a57613099612791565b5b60006130a887828801612a08565b94505060206130b987828801612a08565b93505060406130ca87828801612953565b925050606085013567ffffffffffffffff8111156130eb576130ea612796565b5b6130f787828801613052565b91505092959194509250565b600081519050919050565b600082825260208201905092915050565b6000819050602082019050919050565b600060c0830160008301516131476000860182612b09565b50602083015161315a6020860182612c4e565b50604083015184820360408601526131728282612c6e565b9150506060830151848203606086015261318c8282612c6e565b915050608083015184820360808601526131a68282612c6e565b91505060a083015184820360a08601526131c08282612c6e565b9150508091505092915050565b60006131d9838361312f565b905092915050565b6000602082019050919050565b60006131f982613103565b613203818561310e565b9350836020820285016132158561311f565b8060005b85811015613251578484038952815161323285826131cd565b945061323d836131e1565b925060208a01995050600181019050613219565b50829750879550505050505092915050565b6000602082019050818103600083015261327d81846131ee565b905092915050565b6000806040838503121561329c5761329b612791565b5b60006132aa85828601612a08565b92505060206132bb85828601612a08565b9150509250929050565b7f4e487b7100000000000000000000000000000000000000000000000000000000600052602260045260246000fd5b6000600282049050600182168061330c57607f821691505b60208210810361331f5761331e6132c5565b5b50919050565b7f4552433732313a20617070726f76616c20746f2063757272656e74206f776e6560008201527f7200000000000000000000000000000000000000000000000000000000000000602082015250565b6000613381602183612895565b915061338c82613325565b604082019050919050565b600060208201905081810360008301526133b081613374565b9050919050565b7f4552433732313a20617070726f76652063616c6c6572206973206e6f7420746f60008201527f6b656e206f776e6572206f7220617070726f76656420666f7220616c6c000000602082015250565b6000613413603d83612895565b915061341e826133b7565b604082019050919050565b6000602082019050818103600083015261344281613406565b9050919050565b7f4552433732313a2063616c6c6572206973206e6f7420746f6b656e206f776e6560008201527f72206f7220617070726f76656400000000000000000000000000000000000000602082015250565b60006134a5602d83612895565b91506134b082613449565b604082019050919050565b600060208201905081810360008301526134d481613498565b9050919050565b7f4552433732313a2061646472657373207a65726f206973206e6f74206120766160008201527f6c6964206f776e65720000000000000000000000000000000000000000000000602082015250565b6000613537602983612895565b9150613542826134db565b604082019050919050565b600060208201905081810360008301526135668161352a565b9050919050565b7f4552433732313a20696e76616c696420746f6b656e2049440000000000000000600082015250565b60006135a3601883612895565b91506135ae8261356d565b602082019050919050565b600060208201905081810360008301526135d281613596565b9050919050565b600081905092915050565b60006135ef8261288a565b6135f981856135d9565b93506136098185602086016128a6565b80840191505092915050565b600061362182856135e4565b915061362d82846135e4565b91508190509392505050565b7f4e487b7100000000000000000000000000000000000000000000000000000000600052603260045260246000fd5b7f4e487b7100000000000000000000000000000000000000000000000000000000600052601160045260246000fd5b60006136a282612856565b91507fffffffffffffffffffffffffffffffffffffffffffffffffffffffffffffffff82036136d4576136d3613668565b5b600182019050919050565b7f4f776e61626c653a206e6577206f776e657220697320746865207a65726f206160008201527f6464726573730000000000000000000000000000000000000000000000000000602082015250565b600061373b602683612895565b9150613746826136df565b604082019050919050565b6000602082019050818103600083015261376a8161372e565b9050919050565b7f4552433732313a207472616e736665722066726f6d20696e636f72726563742060008201527f6f776e6572000000000000000000000000000000000000000000000000000000602082015250565b60006137cd602583612895565b91506137d882613771565b604082019050919050565b600060208201905081810360008301526137fc816137c0565b9050919050565b7f4552433732313a207472616e7366657220746f20746865207a65726f2061646460008201527f7265737300000000000000000000000000000000000000000000000000000000602082015250565b600061385f602483612895565b915061386a82613803565b604082019050919050565b6000602082019050818103600083015261388e81613852565b9050919050565b7f4f776e61626c653a2063616c6c6572206973206e6f7420746865206f776e6572600082015250565b60006138cb602083612895565b91506138d682613895565b602082019050919050565b600060208201905081810360008301526138fa816138be565b9050919050565b7f4552433732313a206d696e7420746f20746865207a65726f2061646472657373600082015250565b6000613937602083612895565b915061394282613901565b602082019050919050565b600060208201905081810360008301526139668161392a565b9050919050565b7f4552433732313a20746f6b656e20616c7265616479206d696e74656400000000600082015250565b60006139a3601c83612895565b91506139ae8261396d565b602082019050919050565b600060208201905081810360008301526139d281613996565b9050919050565b7f45524337323155524953746f726167653a2055524920736574206f66206e6f6e60008201527f6578697374656e7420746f6b656e000000000000000000000000000000000000602082015250565b6000613a35602e83612895565b9150613a40826139d9565b604082019050919050565b60006020820190508181036000830152613a6481613a28565b9050919050565b60008190508160005260206000209050919050565b60006020601f8301049050919050565b600082821b905092915050565b600060088302613acd7fffffffffffffffffffffffffffffffffffffffffffffffffffffffffffffffff82613a90565b613ad78683613a90565b95508019841693508086168417925050509392505050565b6000819050919050565b6000613b14613b0f613b0a84612856565b613aef565b612856565b9050919050565b6000819050919050565b613b2e83613af9565b613b42613b3a82613b1b565b848454613a9d565b825550505050565b600090565b613b57613b4a565b613b62818484613b25565b505050565b5b81811015613b8657613b7b600082613b4f565b600181019050613b68565b5050565b601f821115613bcb57613b9c81613a6b565b613ba584613a80565b81016020851015613bb4578190505b613bc8613bc085613a80565b830182613b67565b50505b505050565b600082821c905092915050565b6000613bee60001984600802613bd0565b1980831691505092915050565b6000613c078383613bdd565b9150826002028217905092915050565b613c208261288a565b67ffffffffffffffff811115613c3957613c38612d71565b5b613c4382546132f4565b613c4e828285613b8a565b600060209050601f831160018114613c815760008415613c6f578287015190505b613c798582613bfb565b865550613ce1565b601f198416613c8f86613a6b565b60005b82811015613cb757848901518255600182019150602085019450602081019050613c92565b86831015613cd45784890151613cd0601f891682613bdd565b8355505b6001600288020188555050505b505050505050565b613cf281612bbd565b82525050565b6000608082019050613d0d6000830187613ce9565b8181036020830152613d1f81866128e1565b90508181036040830152613d3381856128e1565b90508181036060830152613d4781846128e1565b905095945050505050565b7f4552433732313a20617070726f766520746f2063616c6c657200000000000000600082015250565b6000613d88601983612895565b9150613d9382613d52565b602082019050919050565b60006020820190508181036000830152613db781613d7b565b9050919050565b7f4552433732313a207472616e7366657220746f206e6f6e20455243373231526560008201527f63656976657220696d706c656d656e7465720000000000000000000000000000602082015250565b6000613e1a603283612895565b9150613e2582613dbe565b604082019050919050565b60006020820190508181036000830152613e4981613e0d565b9050919050565b600081519050919050565b600082825260208201905092915050565b6000613e7782613e50565b613e818185613e5b565b9350613e918185602086016128a6565b613e9a816128d0565b840191505092915050565b6000608082019050613eba60008301876129c7565b613ec760208301866129c7565b613ed46040830185612860565b8181036060830152613ee68184613e6c565b905095945050505050565b600081519050613f00816127c7565b92915050565b600060208284031215613f1c57613f1b612791565b5b6000613f2a84828501613ef1565b91505092915050565b7f4e487b7100000000000000000000000000000000000000000000000000000000600052601260045260246000fdfea2646970667358221220c1d4b92a4bd783073a533d9795cdd8a15f31e9acc6fe1dd3453dd467f56a896264736f6c63430008130033",
  "immutableReferences": {},
  "source": "// contracts/MyNFT.sol\r\n// SPDX-License-Identifier: MIT\r\npragma solidity ^0.8.0;\r\n\r\nimport \"@openzeppelin/contracts/token/ERC721/ERC721.sol\";\r\nimport \"@openzeppelin/contracts/utils/Counters.sol\";\r\nimport \"@openzeppelin/contracts/access/Ownable.sol\";\r\nimport \"@openzeppelin/contracts/token/ERC721/extensions/ERC721URIStorage.sol\";\r\nimport \"./openzeppelin/ERC721EnumerableModify.sol\";\r\n\r\ncontract MyNFT is ERC721URIStorage, Ownable {\r\n    using Counters for Counters.Counter;\r\n    Counters.Counter private tokenIds;\r\n    Counters.Counter private userIds;\r\n\r\n\r\n    struct nftStruct {\r\n        uint256 tokenId;\r\n        address payable owner;\r\n        string title;\r\n        string description;\r\n        string image;\r\n        string tokenUri;\r\n    }\r\n\r\n    mapping(uint256 => nftStruct) private nfts;\r\n    mapping(address => uint256 []) private nftOwners;\r\n\r\n    event NftStructCreated(\r\n        uint256 indexed tokenId,\r\n        address payable owner,\r\n        string title,\r\n        string description,\r\n        string image\r\n    );\r\n\r\n    constructor() ERC721(\"NFT MINTO\", \"MINTO's NFT collection\") {\r\n        tokenIds.increment();\r\n        userIds.increment();\r\n    }\r\n    \r\n\r\n    function setNft(\r\n        uint256 _tokenId,\r\n        string memory _title,\r\n        string memory _description,\r\n        string memory _tokenURI,\r\n        string memory _image\r\n    ) private {\r\n\r\n        nfts[_tokenId].tokenId = _tokenId;\r\n        nfts[_tokenId].owner = payable(msg.sender);\r\n        nfts[_tokenId].title = _title;\r\n        nfts[_tokenId].description = _description;\r\n        nfts[_tokenId].tokenUri = _tokenURI;\r\n        nfts[_tokenId].image = _image;\r\n\r\n        emit NftStructCreated(\r\n            _tokenId,\r\n            payable(msg.sender),\r\n            _title,\r\n            _description,\r\n            _image\r\n        );\r\n    }\r\n    /// @dev this function mints received NFTs\r\n    /// @param _tokenURI the new token URI for the magazine cover\r\n    /// @param _title the name of the magazine cover\r\n    /// @param _description detailed information on the magazine NFT\r\n    /// @param _image image\r\n    // /// @return tokenId of the created NFT\r\n    function createNft(\r\n        string memory _tokenURI,\r\n        string memory _title,\r\n        string memory _description,\r\n        string memory _image\r\n    ) public  {\r\n        \r\n        uint256 newTokenId = tokenIds.current();\r\n        _mint(msg.sender, newTokenId);\r\n        _setTokenURI(newTokenId, _tokenURI);\r\n        nftOwners[msg.sender].push(newTokenId);\r\n        setNft(newTokenId, _title, _description, _tokenURI, _image);\r\n        tokenIds.increment();\r\n    }\r\n\r\n    // not use\r\n    /// @dev fetches NFT magazines that a specific user has created\r\n    /// @return nftStruct[] list of nfts created by a user with their metadata\r\n    // function getNfts() public view returns (nftStruct[] memory) {\r\n    //     uint256 nftCount = tokenIds.current();\r\n    //     nftStruct[] memory nftSubs = new nftStruct[](nftCount);\r\n    //     for (uint256 i = 1; i < nftCount; i++) {\r\n    //         if (nfts[i].owner == payable(msg.sender)) {\r\n    //             nftSubs[i] = nfts[i];\r\n    //         }\r\n    //     }\r\n\r\n    //     return nftSubs;\r\n    // }\r\n\r\n    /// @dev fetches NFT magazines that a specific user has created\r\n    /// @return nftStruct[] list of nfts created by a user with their metadata\r\n    function getNfts() public view returns (nftStruct[] memory){\r\n        uint256 nftCount = tokenIds.current();\r\n        nftStruct[] memory myNfts = new nftStruct[](nftCount);\r\n        uint256 j = 0;\r\n        for (uint256 i = 1; i < nftCount; i++){\r\n            if (ownerOf(i) == msg.sender){\r\n                myNfts[j] = nfts[i];\r\n                j++;\r\n            }\r\n        }\r\n        nftStruct[] memory returnMyNFts = new nftStruct[](j);\r\n        for (uint256 i = 0; i < j; i++){\r\n            returnMyNFts[i] = myNfts[i];\r\n        }\r\n        return returnMyNFts;\r\n    }\r\n\r\n    /// @dev fetches details of a particular NFT magazine subscription\r\n    /// @param _tokenId The token ID of the NFT Magazine\r\n    /// @return nftStruct NFT data of the specific token ID\r\n    function getIndividualNFT (\r\n        uint256 _tokenId\r\n    ) public view returns (nftStruct memory) {\r\n        return nfts[_tokenId];\r\n    }\r\n\r\n    function getNftsByAddress (address owner) public view returns(uint256[] memory){\r\n        require(owner != address(0), \"ERC721: address zero is not a valid owner\");\r\n        return nftOwners[owner];\r\n    }\r\n\r\n    function sendNft(address from, address  payable to, uint256 tokenId) public returns(uint256){\r\n        safeTransferFrom(from, to, tokenId);\r\n        // owner  \r\n        nfts[tokenId].owner = to;\r\n        return tokenId;\r\n    }\r\n\r\n    function getNftsCount() public view returns(uint256){\r\n        return tokenIds.current();\r\n    }\r\n}",
  "sourcePath": "C:\\Projects\\minto-nft\\contracts\\MyNFT.sol",
  "compiler": {
    "name": "solc",
    "version": "0.8.19+commit.7dd6d404.Emscripten.clang"
  },
  "schemaVersion": "3.4.16",
  "updatedAt": "2024-03-25T07:00:48.905Z",
  "networkType": "ethereum",
  "devdoc": {
    "events": {
      "Approval(address,address,uint256)": {
        "details": "Emitted when `owner` enables `approved` to manage the `tokenId` token."
      },
      "ApprovalForAll(address,address,bool)": {
        "details": "Emitted when `owner` enables or disables (`approved`) `operator` to manage all of its assets."
      },
      "BatchMetadataUpdate(uint256,uint256)": {
        "details": "This event emits when the metadata of a range of tokens is changed. So that the third-party platforms such as NFT market could timely update the images and related attributes of the NFTs."
      },
      "MetadataUpdate(uint256)": {
        "details": "This event emits when the metadata of a token is changed. So that the third-party platforms such as NFT market could timely update the images and related attributes of the NFT."
      },
      "Transfer(address,address,uint256)": {
        "details": "Emitted when `tokenId` token is transferred from `from` to `to`."
      }
    },
    "kind": "dev",
    "methods": {
      "approve(address,uint256)": {
        "details": "See {IERC721-approve}."
      },
      "balanceOf(address)": {
        "details": "See {IERC721-balanceOf}."
      },
      "createNft(string,string,string,string)": {
        "details": "this function mints received NFTs",
        "params": {
          "_description": "detailed information on the magazine NFT",
          "_image": "image",
          "_title": "the name of the magazine cover",
          "_tokenURI": "the new token URI for the magazine cover"
        }
      },
      "getApproved(uint256)": {
        "details": "See {IERC721-getApproved}."
      },
      "getIndividualNFT(uint256)": {
        "details": "fetches details of a particular NFT magazine subscription",
        "params": {
          "_tokenId": "The token ID of the NFT Magazine"
        },
        "returns": {
          "_0": "nftStruct NFT data of the specific token ID"
        }
      },
      "getNfts()": {
        "details": "fetches NFT magazines that a specific user has created",
        "returns": {
          "_0": "nftStruct[] list of nfts created by a user with their metadata"
        }
      },
      "isApprovedForAll(address,address)": {
        "details": "See {IERC721-isApprovedForAll}."
      },
      "name()": {
        "details": "See {IERC721Metadata-name}."
      },
      "owner()": {
        "details": "Returns the address of the current owner."
      },
      "ownerOf(uint256)": {
        "details": "See {IERC721-ownerOf}."
      },
      "renounceOwnership()": {
        "details": "Leaves the contract without owner. It will not be possible to call `onlyOwner` functions. Can only be called by the current owner. NOTE: Renouncing ownership will leave the contract without an owner, thereby disabling any functionality that is only available to the owner."
      },
      "safeTransferFrom(address,address,uint256)": {
        "details": "See {IERC721-safeTransferFrom}."
      },
      "safeTransferFrom(address,address,uint256,bytes)": {
        "details": "See {IERC721-safeTransferFrom}."
      },
      "setApprovalForAll(address,bool)": {
        "details": "See {IERC721-setApprovalForAll}."
      },
      "supportsInterface(bytes4)": {
        "details": "See {IERC165-supportsInterface}"
      },
      "symbol()": {
        "details": "See {IERC721Metadata-symbol}."
      },
      "tokenURI(uint256)": {
        "details": "See {IERC721Metadata-tokenURI}."
      },
      "transferFrom(address,address,uint256)": {
        "details": "See {IERC721-transferFrom}."
      },
      "transferOwnership(address)": {
        "details": "Transfers ownership of the contract to a new account (`newOwner`). Can only be called by the current owner."
      }
    },
    "version": 1
  },
  "userdoc": {
    "kind": "user",
    "methods": {},
    "version": 1
  }
}