{
  "contractName": "MyNFT",
  "abi": [
    {
      "inputs": [],
      "stateMutability": "nonpayable",
      "type": "constructor"
    },
    {
      "anonymous": false,
      "inputs": [
        {
          "indexed": true,
          "internalType": "address",
          "name": "owner",
          "type": "address"
        },
        {
          "indexed": true,
          "internalType": "address",
          "name": "approved",
          "type": "address"
        },
        {
          "indexed": true,
          "internalType": "uint256",
          "name": "tokenId",
          "type": "uint256"
        }
      ],
      "name": "Approval",
      "type": "event"
    },
    {
      "anonymous": false,
      "inputs": [
        {
          "indexed": true,
          "internalType": "address",
          "name": "owner",
          "type": "address"
        },
        {
          "indexed": true,
          "internalType": "address",
          "name": "operator",
          "type": "address"
        },
        {
          "indexed": false,
          "internalType": "bool",
          "name": "approved",
          "type": "bool"
        }
      ],
      "name": "ApprovalForAll",
      "type": "event"
    },
    {
      "anonymous": false,
      "inputs": [
        {
          "indexed": false,
          "internalType": "uint256",
          "name": "_fromTokenId",
          "type": "uint256"
        },
        {
          "indexed": false,
          "internalType": "uint256",
          "name": "_toTokenId",
          "type": "uint256"
        }
      ],
      "name": "BatchMetadataUpdate",
      "type": "event"
    },
    {
      "anonymous": false,
      "inputs": [
        {
          "indexed": false,
          "internalType": "uint256",
          "name": "_tokenId",
          "type": "uint256"
        }
      ],
      "name": "MetadataUpdate",
      "type": "event"
    },
    {
      "anonymous": false,
      "inputs": [
        {
          "indexed": true,
          "internalType": "uint256",
          "name": "tokenId",
          "type": "uint256"
        },
        {
          "indexed": false,
          "internalType": "address payable",
          "name": "seller",
          "type": "address"
        },
        {
          "indexed": false,
          "internalType": "address payable",
          "name": "owner",
          "type": "address"
        },
        {
          "indexed": false,
          "internalType": "string",
          "name": "title",
          "type": "string"
        },
        {
          "indexed": false,
          "internalType": "string",
          "name": "description",
          "type": "string"
        },
        {
          "indexed": false,
          "internalType": "string",
          "name": "image",
          "type": "string"
        },
        {
          "indexed": false,
          "internalType": "string",
          "name": "metadata",
          "type": "string"
        }
      ],
      "name": "NftStructCreated",
      "type": "event"
    },
    {
      "anonymous": false,
      "inputs": [
        {
          "indexed": true,
          "internalType": "address",
          "name": "previousOwner",
          "type": "address"
        },
        {
          "indexed": true,
          "internalType": "address",
          "name": "newOwner",
          "type": "address"
        }
      ],
      "name": "OwnershipTransferred",
      "type": "event"
    },
    {
      "anonymous": false,
      "inputs": [
        {
          "indexed": true,
          "internalType": "address",
          "name": "from",
          "type": "address"
        },
        {
          "indexed": true,
          "internalType": "address",
          "name": "to",
          "type": "address"
        },
        {
          "indexed": true,
          "internalType": "uint256",
          "name": "tokenId",
          "type": "uint256"
        }
      ],
      "name": "Transfer",
      "type": "event"
    },
    {
      "inputs": [
        {
          "internalType": "address",
          "name": "to",
          "type": "address"
        },
        {
          "internalType": "uint256",
          "name": "tokenId",
          "type": "uint256"
        }
      ],
      "name": "approve",
      "outputs": [],
      "stateMutability": "nonpayable",
      "type": "function"
    },
    {
      "inputs": [
        {
          "internalType": "address",
          "name": "owner",
          "type": "address"
        }
      ],
      "name": "balanceOf",
      "outputs": [
        {
          "internalType": "uint256",
          "name": "",
          "type": "uint256"
        }
      ],
      "stateMutability": "view",
      "type": "function",
      "constant": true
    },
    {
      "inputs": [
        {
          "internalType": "uint256",
          "name": "tokenId",
          "type": "uint256"
        }
      ],
      "name": "getApproved",
      "outputs": [
        {
          "internalType": "address",
          "name": "",
          "type": "address"
        }
      ],
      "stateMutability": "view",
      "type": "function",
      "constant": true
    },
    {
      "inputs": [
        {
          "internalType": "address",
          "name": "owner",
          "type": "address"
        },
        {
          "internalType": "address",
          "name": "operator",
          "type": "address"
        }
      ],
      "name": "isApprovedForAll",
      "outputs": [
        {
          "internalType": "bool",
          "name": "",
          "type": "bool"
        }
      ],
      "stateMutability": "view",
      "type": "function",
      "constant": true
    },
    {
      "inputs": [],
      "name": "name",
      "outputs": [
        {
          "internalType": "string",
          "name": "",
          "type": "string"
        }
      ],
      "stateMutability": "view",
      "type": "function",
      "constant": true
    },
    {
      "inputs": [],
      "name": "owner",
      "outputs": [
        {
          "internalType": "address",
          "name": "",
          "type": "address"
        }
      ],
      "stateMutability": "view",
      "type": "function",
      "constant": true
    },
    {
      "inputs": [
        {
          "internalType": "uint256",
          "name": "tokenId",
          "type": "uint256"
        }
      ],
      "name": "ownerOf",
      "outputs": [
        {
          "internalType": "address",
          "name": "",
          "type": "address"
        }
      ],
      "stateMutability": "view",
      "type": "function",
      "constant": true
    },
    {
      "inputs": [],
      "name": "renounceOwnership",
      "outputs": [],
      "stateMutability": "nonpayable",
      "type": "function"
    },
    {
      "inputs": [
        {
          "internalType": "address",
          "name": "from",
          "type": "address"
        },
        {
          "internalType": "address",
          "name": "to",
          "type": "address"
        },
        {
          "internalType": "uint256",
          "name": "tokenId",
          "type": "uint256"
        }
      ],
      "name": "safeTransferFrom",
      "outputs": [],
      "stateMutability": "nonpayable",
      "type": "function"
    },
    {
      "inputs": [
        {
          "internalType": "address",
          "name": "from",
          "type": "address"
        },
        {
          "internalType": "address",
          "name": "to",
          "type": "address"
        },
        {
          "internalType": "uint256",
          "name": "tokenId",
          "type": "uint256"
        },
        {
          "internalType": "bytes",
          "name": "data",
          "type": "bytes"
        }
      ],
      "name": "safeTransferFrom",
      "outputs": [],
      "stateMutability": "nonpayable",
      "type": "function"
    },
    {
      "inputs": [
        {
          "internalType": "address",
          "name": "operator",
          "type": "address"
        },
        {
          "internalType": "bool",
          "name": "approved",
          "type": "bool"
        }
      ],
      "name": "setApprovalForAll",
      "outputs": [],
      "stateMutability": "nonpayable",
      "type": "function"
    },
    {
      "inputs": [
        {
          "internalType": "bytes4",
          "name": "interfaceId",
          "type": "bytes4"
        }
      ],
      "name": "supportsInterface",
      "outputs": [
        {
          "internalType": "bool",
          "name": "",
          "type": "bool"
        }
      ],
      "stateMutability": "view",
      "type": "function",
      "constant": true
    },
    {
      "inputs": [],
      "name": "symbol",
      "outputs": [
        {
          "internalType": "string",
          "name": "",
          "type": "string"
        }
      ],
      "stateMutability": "view",
      "type": "function",
      "constant": true
    },
    {
      "inputs": [
        {
          "internalType": "uint256",
          "name": "tokenId",
          "type": "uint256"
        }
      ],
      "name": "tokenURI",
      "outputs": [
        {
          "internalType": "string",
          "name": "",
          "type": "string"
        }
      ],
      "stateMutability": "view",
      "type": "function",
      "constant": true
    },
    {
      "inputs": [
        {
          "internalType": "address",
          "name": "from",
          "type": "address"
        },
        {
          "internalType": "address",
          "name": "to",
          "type": "address"
        },
        {
          "internalType": "uint256",
          "name": "tokenId",
          "type": "uint256"
        }
      ],
      "name": "transferFrom",
      "outputs": [],
      "stateMutability": "nonpayable",
      "type": "function"
    },
    {
      "inputs": [
        {
          "internalType": "address",
          "name": "newOwner",
          "type": "address"
        }
      ],
      "name": "transferOwnership",
      "outputs": [],
      "stateMutability": "nonpayable",
      "type": "function"
    },
    {
      "inputs": [
        {
          "internalType": "string",
          "name": "_tokenURI",
          "type": "string"
        },
        {
          "internalType": "string",
          "name": "_title",
          "type": "string"
        },
        {
          "internalType": "string",
          "name": "_description",
          "type": "string"
        },
        {
          "internalType": "string",
          "name": "_image",
          "type": "string"
        },
        {
          "internalType": "string",
          "name": "_metadata",
          "type": "string"
        }
      ],
      "name": "createNft",
      "outputs": [],
      "stateMutability": "nonpayable",
      "type": "function"
    },
    {
      "inputs": [],
      "name": "getNfts",
      "outputs": [
        {
          "components": [
            {
              "internalType": "uint256",
              "name": "tokenId",
              "type": "uint256"
            },
            {
              "internalType": "address payable",
              "name": "seller",
              "type": "address"
            },
            {
              "internalType": "address payable",
              "name": "owner",
              "type": "address"
            },
            {
              "internalType": "uint256",
              "name": "price",
              "type": "uint256"
            },
            {
              "internalType": "string",
              "name": "title",
              "type": "string"
            },
            {
              "internalType": "string",
              "name": "description",
              "type": "string"
            },
            {
              "internalType": "string",
              "name": "image",
              "type": "string"
            },
            {
              "internalType": "string",
              "name": "tokenUri",
              "type": "string"
            },
            {
              "internalType": "string",
              "name": "metadata",
              "type": "string"
            }
          ],
          "internalType": "struct MyNFT.nftStruct[]",
          "name": "",
          "type": "tuple[]"
        }
      ],
      "stateMutability": "view",
      "type": "function",
      "constant": true
    },
    {
      "inputs": [
        {
          "internalType": "uint256",
          "name": "_tokenId",
          "type": "uint256"
        }
      ],
      "name": "getIndividualNFT",
      "outputs": [
        {
          "components": [
            {
              "internalType": "uint256",
              "name": "tokenId",
              "type": "uint256"
            },
            {
              "internalType": "address payable",
              "name": "seller",
              "type": "address"
            },
            {
              "internalType": "address payable",
              "name": "owner",
              "type": "address"
            },
            {
              "internalType": "uint256",
              "name": "price",
              "type": "uint256"
            },
            {
              "internalType": "string",
              "name": "title",
              "type": "string"
            },
            {
              "internalType": "string",
              "name": "description",
              "type": "string"
            },
            {
              "internalType": "string",
              "name": "image",
              "type": "string"
            },
            {
              "internalType": "string",
              "name": "tokenUri",
              "type": "string"
            },
            {
              "internalType": "string",
              "name": "metadata",
              "type": "string"
            }
          ],
          "internalType": "struct MyNFT.nftStruct",
          "name": "",
          "type": "tuple"
        }
      ],
      "stateMutability": "view",
      "type": "function",
      "constant": true
    },
    {
      "inputs": [
        {
          "internalType": "address",
          "name": "owner",
          "type": "address"
        }
      ],
      "name": "getNftsByAddress",
      "outputs": [
        {
          "internalType": "uint256[]",
          "name": "",
          "type": "uint256[]"
        }
      ],
      "stateMutability": "view",
      "type": "function",
      "constant": true
    }
  ],
  "bytecode": "0x60806040523480156200001157600080fd5b506040518060400160405280600981526020017f4e4654204d494e544f00000000000000000000000000000000000000000000008152506040518060400160405280601681526020017f4d494e544f2773204e465420636f6c6c656374696f6e000000000000000000008152506200009e62000092620000ee60201b60201c565b620000f660201b60201c565b8160019081620000af91906200044a565b508060029081620000c191906200044a565b505050620000d66008620001ba60201b60201c565b620000e86009620001ba60201b60201c565b62000531565b600033905090565b60008060009054906101000a900473ffffffffffffffffffffffffffffffffffffffff169050816000806101000a81548173ffffffffffffffffffffffffffffffffffffffff021916908373ffffffffffffffffffffffffffffffffffffffff1602179055508173ffffffffffffffffffffffffffffffffffffffff168173ffffffffffffffffffffffffffffffffffffffff167f8be0079c531659141344cd1fd0a4f28419497f9722a3daafe3b4186f6b6457e060405160405180910390a35050565b6001816000016000828254019250508190555050565b600081519050919050565b7f4e487b7100000000000000000000000000000000000000000000000000000000600052604160045260246000fd5b7f4e487b7100000000000000000000000000000000000000000000000000000000600052602260045260246000fd5b600060028204905060018216806200025257607f821691505b6020821081036200026857620002676200020a565b5b50919050565b60008190508160005260206000209050919050565b60006020601f8301049050919050565b600082821b905092915050565b600060088302620002d27fffffffffffffffffffffffffffffffffffffffffffffffffffffffffffffffff8262000293565b620002de868362000293565b95508019841693508086168417925050509392505050565b6000819050919050565b6000819050919050565b60006200032b620003256200031f84620002f6565b62000300565b620002f6565b9050919050565b6000819050919050565b62000347836200030a565b6200035f620003568262000332565b848454620002a0565b825550505050565b600090565b6200037662000367565b620003838184846200033c565b505050565b5b81811015620003ab576200039f6000826200036c565b60018101905062000389565b5050565b601f821115620003fa57620003c4816200026e565b620003cf8462000283565b81016020851015620003df578190505b620003f7620003ee8562000283565b83018262000388565b50505b505050565b600082821c905092915050565b60006200041f60001984600802620003ff565b1980831691505092915050565b60006200043a83836200040c565b9150826002028217905092915050565b6200045582620001d0565b67ffffffffffffffff811115620004715762000470620001db565b5b6200047d825462000239565b6200048a828285620003af565b600060209050601f831160018114620004c25760008415620004ad578287015190505b620004b985826200042c565b86555062000529565b601f198416620004d2866200026e565b60005b82811015620004fc57848901518255600182019150602085019450602081019050620004d5565b868310156200051c578489015162000518601f8916826200040c565b8355505b6001600288020188555050505b505050505050565b61410d80620005416000396000f3fe608060405234801561001057600080fd5b506004361061012c5760003560e01c806376856319116100ad578063b88d4fde11610071578063b88d4fde14610341578063c87b56dd1461035d578063d8cb55e31461038d578063e985e9c5146103ab578063f2fde38b146103db5761012c565b8063768563191461029d5780638da5cb5b146102cd57806395d89b41146102eb578063a22cb46514610309578063a5fc389c146103255761012c565b80633a66dd36116100f45780633a66dd36146101e757806342842e0e146102175780636352211e1461023357806370a0823114610263578063715018a6146102935761012c565b806301ffc9a71461013157806306fdde0314610161578063081812fc1461017f578063095ea7b3146101af57806323b872dd146101cb575b600080fd5b61014b6004803603810190610146919061290e565b6103f7565b6040516101589190612956565b60405180910390f35b610169610458565b6040516101769190612a01565b60405180910390f35b61019960048036038101906101949190612a59565b6104ea565b6040516101a69190612ac7565b60405180910390f35b6101c960048036038101906101c49190612b0e565b610530565b005b6101e560048036038101906101e09190612b4e565b610647565b005b61020160048036038101906101fc9190612ba1565b6106a7565b60405161020e9190612c8c565b60405180910390f35b610231600480360381019061022c9190612b4e565b6107ad565b005b61024d60048036038101906102489190612a59565b6107cd565b60405161025a9190612ac7565b60405180910390f35b61027d60048036038101906102789190612ba1565b610853565b60405161028a9190612cbd565b60405180910390f35b61029b61090a565b005b6102b760048036038101906102b29190612a59565b61091e565b6040516102c49190612e24565b60405180910390f35b6102d5610ce6565b6040516102e29190612ac7565b60405180910390f35b6102f3610d0f565b6040516103009190612a01565b60405180910390f35b610323600480360381019061031e9190612e72565b610da1565b005b61033f600480360381019061033a9190612fe7565b610db7565b005b61035b6004803603810190610356919061318f565b610e5f565b005b61037760048036038101906103729190612a59565b610ec1565b6040516103849190612a01565b60405180910390f35b610395610fd3565b6040516103a291906133b5565b60405180910390f35b6103c560048036038101906103c091906133d7565b6114a7565b6040516103d29190612956565b60405180910390f35b6103f560048036038101906103f09190612ba1565b61153b565b005b6000634906490660e01b7bffffffffffffffffffffffffffffffffffffffffffffffffffffffff1916827bffffffffffffffffffffffffffffffffffffffffffffffffffffffff191614806104515750610450826115be565b5b9050919050565b60606001805461046790613446565b80601f016020809104026020016040519081016040528092919081815260200182805461049390613446565b80156104e05780601f106104b5576101008083540402835291602001916104e0565b820191906000526020600020905b8154815290600101906020018083116104c357829003601f168201915b5050505050905090565b60006104f5826116a0565b6005600083815260200190815260200160002060009054906101000a900473ffffffffffffffffffffffffffffffffffffffff169050919050565b600061053b826107cd565b90508073ffffffffffffffffffffffffffffffffffffffff168373ffffffffffffffffffffffffffffffffffffffff16036105ab576040517f08c379a00000000000000000000000000000000000000000000000000000000081526004016105a2906134e9565b60405180910390fd5b8073ffffffffffffffffffffffffffffffffffffffff166105ca6116eb565b73ffffffffffffffffffffffffffffffffffffffff1614806105f957506105f8816105f36116eb565b6114a7565b5b610638576040517f08c379a000000000000000000000000000000000000000000000000000000000815260040161062f9061357b565b60405180910390fd5b61064283836116f3565b505050565b6106586106526116eb565b826117ac565b610697576040517f08c379a000000000000000000000000000000000000000000000000000000000815260040161068e9061360d565b60405180910390fd5b6106a2838383611841565b505050565b6060600073ffffffffffffffffffffffffffffffffffffffff168273ffffffffffffffffffffffffffffffffffffffff1603610718576040517f08c379a000000000000000000000000000000000000000000000000000000000815260040161070f9061369f565b60405180910390fd5b600b60008373ffffffffffffffffffffffffffffffffffffffff1673ffffffffffffffffffffffffffffffffffffffff1681526020019081526020016000208054806020026020016040519081016040528092919081815260200182805480156107a157602002820191906000526020600020905b81548152602001906001019080831161078d575b50505050509050919050565b6107c883838360405180602001604052806000815250610e5f565b505050565b6000806107d983611b3a565b9050600073ffffffffffffffffffffffffffffffffffffffff168173ffffffffffffffffffffffffffffffffffffffff160361084a576040517f08c379a00000000000000000000000000000000000000000000000000000000081526004016108419061370b565b60405180910390fd5b80915050919050565b60008073ffffffffffffffffffffffffffffffffffffffff168273ffffffffffffffffffffffffffffffffffffffff16036108c3576040517f08c379a00000000000000000000000000000000000000000000000000000000081526004016108ba9061369f565b60405180910390fd5b600460008373ffffffffffffffffffffffffffffffffffffffff1673ffffffffffffffffffffffffffffffffffffffff168152602001908152602001600020549050919050565b610912611b77565b61091c6000611bf5565b565b61092661282a565b600a600083815260200190815260200160002060405180610120016040529081600082015481526020016001820160009054906101000a900473ffffffffffffffffffffffffffffffffffffffff1673ffffffffffffffffffffffffffffffffffffffff1673ffffffffffffffffffffffffffffffffffffffff1681526020016002820160009054906101000a900473ffffffffffffffffffffffffffffffffffffffff1673ffffffffffffffffffffffffffffffffffffffff1673ffffffffffffffffffffffffffffffffffffffff16815260200160038201548152602001600482018054610a1590613446565b80601f0160208091040260200160405190810160405280929190818152602001828054610a4190613446565b8015610a8e5780601f10610a6357610100808354040283529160200191610a8e565b820191906000526020600020905b815481529060010190602001808311610a7157829003601f168201915b50505050508152602001600582018054610aa790613446565b80601f0160208091040260200160405190810160405280929190818152602001828054610ad390613446565b8015610b205780601f10610af557610100808354040283529160200191610b20565b820191906000526020600020905b815481529060010190602001808311610b0357829003601f168201915b50505050508152602001600682018054610b3990613446565b80601f0160208091040260200160405190810160405280929190818152602001828054610b6590613446565b8015610bb25780601f10610b8757610100808354040283529160200191610bb2565b820191906000526020600020905b815481529060010190602001808311610b9557829003601f168201915b50505050508152602001600782018054610bcb90613446565b80601f0160208091040260200160405190810160405280929190818152602001828054610bf790613446565b8015610c445780601f10610c1957610100808354040283529160200191610c44565b820191906000526020600020905b815481529060010190602001808311610c2757829003601f168201915b50505050508152602001600882018054610c5d90613446565b80601f0160208091040260200160405190810160405280929190818152602001828054610c8990613446565b8015610cd65780601f10610cab57610100808354040283529160200191610cd6565b820191906000526020600020905b815481529060010190602001808311610cb957829003601f168201915b5050505050815250509050919050565b60008060009054906101000a900473ffffffffffffffffffffffffffffffffffffffff16905090565b606060028054610d1e90613446565b80601f0160208091040260200160405190810160405280929190818152602001828054610d4a90613446565b8015610d975780601f10610d6c57610100808354040283529160200191610d97565b820191906000526020600020905b815481529060010190602001808311610d7a57829003601f168201915b5050505050905090565b610db3610dac6116eb565b8383611cb9565b5050565b6000610dc36008611e25565b9050610dcf3382611e33565b610dd98187612050565b600b60003373ffffffffffffffffffffffffffffffffffffffff1673ffffffffffffffffffffffffffffffffffffffff168152602001908152602001600020819080600181540180825580915050600190039060005260206000200160009091909190915055610e4d8186868987876120f4565b610e5760086122b7565b505050505050565b610e70610e6a6116eb565b836117ac565b610eaf576040517f08c379a0000000000000000000000000000000000000000000000000000000008152600401610ea69061360d565b60405180910390fd5b610ebb848484846122cd565b50505050565b6060610ecc826116a0565b6000600760008481526020019081526020016000208054610eec90613446565b80601f0160208091040260200160405190810160405280929190818152602001828054610f1890613446565b8015610f655780601f10610f3a57610100808354040283529160200191610f65565b820191906000526020600020905b815481529060010190602001808311610f4857829003601f168201915b505050505090506000610f76612329565b90506000815103610f8b578192505050610fce565b600082511115610fc0578082604051602001610fa8929190613767565b60405160208183030381529060405292505050610fce565b610fc984612340565b925050505b919050565b60606000610fe16008611e25565b905060008167ffffffffffffffff811115610fff57610ffe612ebc565b5b60405190808252806020026020018201604052801561103857816020015b61102561282a565b81526020019060019003908161101d5790505b5090506000600190505b8281101561149e573373ffffffffffffffffffffffffffffffffffffffff16600a600083815260200190815260200160002060010160009054906101000a900473ffffffffffffffffffffffffffffffffffffffff1673ffffffffffffffffffffffffffffffffffffffff160361148b57600a600082815260200190815260200160002060405180610120016040529081600082015481526020016001820160009054906101000a900473ffffffffffffffffffffffffffffffffffffffff1673ffffffffffffffffffffffffffffffffffffffff1673ffffffffffffffffffffffffffffffffffffffff1681526020016002820160009054906101000a900473ffffffffffffffffffffffffffffffffffffffff1673ffffffffffffffffffffffffffffffffffffffff1673ffffffffffffffffffffffffffffffffffffffff168152602001600382015481526020016004820180546111a290613446565b80601f01602080910402602001604051908101604052809291908181526020018280546111ce90613446565b801561121b5780601f106111f05761010080835404028352916020019161121b565b820191906000526020600020905b8154815290600101906020018083116111fe57829003601f168201915b5050505050815260200160058201805461123490613446565b80601f016020809104026020016040519081016040528092919081815260200182805461126090613446565b80156112ad5780601f10611282576101008083540402835291602001916112ad565b820191906000526020600020905b81548152906001019060200180831161129057829003601f168201915b505050505081526020016006820180546112c690613446565b80601f01602080910402602001604051908101604052809291908181526020018280546112f290613446565b801561133f5780601f106113145761010080835404028352916020019161133f565b820191906000526020600020905b81548152906001019060200180831161132257829003601f168201915b5050505050815260200160078201805461135890613446565b80601f016020809104026020016040519081016040528092919081815260200182805461138490613446565b80156113d15780601f106113a6576101008083540402835291602001916113d1565b820191906000526020600020905b8154815290600101906020018083116113b457829003601f168201915b505050505081526020016008820180546113ea90613446565b80601f016020809104026020016040519081016040528092919081815260200182805461141690613446565b80156114635780601f1061143857610100808354040283529160200191611463565b820191906000526020600020905b81548152906001019060200180831161144657829003601f168201915b50505050508152505082828151811061147f5761147e61378b565b5b60200260200101819052505b8080611496906137e9565b915050611042565b50809250505090565b6000600660008473ffffffffffffffffffffffffffffffffffffffff1673ffffffffffffffffffffffffffffffffffffffff16815260200190815260200160002060008373ffffffffffffffffffffffffffffffffffffffff1673ffffffffffffffffffffffffffffffffffffffff16815260200190815260200160002060009054906101000a900460ff16905092915050565b611543611b77565b600073ffffffffffffffffffffffffffffffffffffffff168173ffffffffffffffffffffffffffffffffffffffff16036115b2576040517f08c379a00000000000000000000000000000000000000000000000000000000081526004016115a9906138a3565b60405180910390fd5b6115bb81611bf5565b50565b60007f80ac58cd000000000000000000000000000000000000000000000000000000007bffffffffffffffffffffffffffffffffffffffffffffffffffffffff1916827bffffffffffffffffffffffffffffffffffffffffffffffffffffffff1916148061168957507f5b5e139f000000000000000000000000000000000000000000000000000000007bffffffffffffffffffffffffffffffffffffffffffffffffffffffff1916827bffffffffffffffffffffffffffffffffffffffffffffffffffffffff1916145b806116995750611698826123a8565b5b9050919050565b6116a981612412565b6116e8576040517f08c379a00000000000000000000000000000000000000000000000000000000081526004016116df9061370b565b60405180910390fd5b50565b600033905090565b816005600083815260200190815260200160002060006101000a81548173ffffffffffffffffffffffffffffffffffffffff021916908373ffffffffffffffffffffffffffffffffffffffff160217905550808273ffffffffffffffffffffffffffffffffffffffff16611766836107cd565b73ffffffffffffffffffffffffffffffffffffffff167f8c5be1e5ebec7d5bd14f71427d1e84f3dd0314c0f7b2291e5b200ac8c7c3b92560405160405180910390a45050565b6000806117b8836107cd565b90508073ffffffffffffffffffffffffffffffffffffffff168473ffffffffffffffffffffffffffffffffffffffff1614806117fa57506117f981856114a7565b5b8061183857508373ffffffffffffffffffffffffffffffffffffffff16611820846104ea565b73ffffffffffffffffffffffffffffffffffffffff16145b91505092915050565b8273ffffffffffffffffffffffffffffffffffffffff16611861826107cd565b73ffffffffffffffffffffffffffffffffffffffff16146118b7576040517f08c379a00000000000000000000000000000000000000000000000000000000081526004016118ae90613935565b60405180910390fd5b600073ffffffffffffffffffffffffffffffffffffffff168273ffffffffffffffffffffffffffffffffffffffff1603611926576040517f08c379a000000000000000000000000000000000000000000000000000000000815260040161191d906139c7565b60405180910390fd5b6119338383836001612453565b8273ffffffffffffffffffffffffffffffffffffffff16611953826107cd565b73ffffffffffffffffffffffffffffffffffffffff16146119a9576040517f08c379a00000000000000000000000000000000000000000000000000000000081526004016119a090613935565b60405180910390fd5b6005600082815260200190815260200160002060006101000a81549073ffffffffffffffffffffffffffffffffffffffff02191690556001600460008573ffffffffffffffffffffffffffffffffffffffff1673ffffffffffffffffffffffffffffffffffffffff168152602001908152602001600020600082825403925050819055506001600460008473ffffffffffffffffffffffffffffffffffffffff1673ffffffffffffffffffffffffffffffffffffffff16815260200190815260200160002060008282540192505081905550816003600083815260200190815260200160002060006101000a81548173ffffffffffffffffffffffffffffffffffffffff021916908373ffffffffffffffffffffffffffffffffffffffff160217905550808273ffffffffffffffffffffffffffffffffffffffff168473ffffffffffffffffffffffffffffffffffffffff167fddf252ad1be2c89b69c2b068fc378daa952ba7f163c4a11628f55a4df523b3ef60405160405180910390a4611b358383836001612459565b505050565b60006003600083815260200190815260200160002060009054906101000a900473ffffffffffffffffffffffffffffffffffffffff169050919050565b611b7f6116eb565b73ffffffffffffffffffffffffffffffffffffffff16611b9d610ce6565b73ffffffffffffffffffffffffffffffffffffffff1614611bf3576040517f08c379a0000000000000000000000000000000000000000000000000000000008152600401611bea90613a33565b60405180910390fd5b565b60008060009054906101000a900473ffffffffffffffffffffffffffffffffffffffff169050816000806101000a81548173ffffffffffffffffffffffffffffffffffffffff021916908373ffffffffffffffffffffffffffffffffffffffff1602179055508173ffffffffffffffffffffffffffffffffffffffff168173ffffffffffffffffffffffffffffffffffffffff167f8be0079c531659141344cd1fd0a4f28419497f9722a3daafe3b4186f6b6457e060405160405180910390a35050565b8173ffffffffffffffffffffffffffffffffffffffff168373ffffffffffffffffffffffffffffffffffffffff1603611d27576040517f08c379a0000000000000000000000000000000000000000000000000000000008152600401611d1e90613a9f565b60405180910390fd5b80600660008573ffffffffffffffffffffffffffffffffffffffff1673ffffffffffffffffffffffffffffffffffffffff16815260200190815260200160002060008473ffffffffffffffffffffffffffffffffffffffff1673ffffffffffffffffffffffffffffffffffffffff16815260200190815260200160002060006101000a81548160ff0219169083151502179055508173ffffffffffffffffffffffffffffffffffffffff168373ffffffffffffffffffffffffffffffffffffffff167f17307eab39ab6107e8899845ad3d59bd9653f200f220920489ca2b5937696c3183604051611e189190612956565b60405180910390a3505050565b600081600001549050919050565b600073ffffffffffffffffffffffffffffffffffffffff168273ffffffffffffffffffffffffffffffffffffffff1603611ea2576040517f08c379a0000000000000000000000000000000000000000000000000000000008152600401611e9990613b0b565b60405180910390fd5b611eab81612412565b15611eeb576040517f08c379a0000000000000000000000000000000000000000000000000000000008152600401611ee290613b77565b60405180910390fd5b611ef9600083836001612453565b611f0281612412565b15611f42576040517f08c379a0000000000000000000000000000000000000000000000000000000008152600401611f3990613b77565b60405180910390fd5b6001600460008473ffffffffffffffffffffffffffffffffffffffff1673ffffffffffffffffffffffffffffffffffffffff16815260200190815260200160002060008282540192505081905550816003600083815260200190815260200160002060006101000a81548173ffffffffffffffffffffffffffffffffffffffff021916908373ffffffffffffffffffffffffffffffffffffffff160217905550808273ffffffffffffffffffffffffffffffffffffffff16600073ffffffffffffffffffffffffffffffffffffffff167fddf252ad1be2c89b69c2b068fc378daa952ba7f163c4a11628f55a4df523b3ef60405160405180910390a461204c600083836001612459565b5050565b61205982612412565b612098576040517f08c379a000000000000000000000000000000000000000000000000000000000815260040161208f90613c09565b60405180910390fd5b806007600084815260200190815260200160002090816120b89190613dd5565b507ff8e1a15aba9398e019f0b49df1a4fde98ee17ae345cb5f6b5e2c27f5033e8ce7826040516120e89190612cbd565b60405180910390a15050565b85600a60008881526020019081526020016000206000018190555033600a600088815260200190815260200160002060010160006101000a81548173ffffffffffffffffffffffffffffffffffffffff021916908373ffffffffffffffffffffffffffffffffffffffff16021790555033600a600088815260200190815260200160002060020160006101000a81548173ffffffffffffffffffffffffffffffffffffffff021916908373ffffffffffffffffffffffffffffffffffffffff16021790555084600a600088815260200190815260200160002060040190816121dc9190613dd5565b5083600a600088815260200190815260200160002060050190816122009190613dd5565b5082600a600088815260200190815260200160002060070190816122249190613dd5565b5081600a600088815260200190815260200160002060060190816122489190613dd5565b5080600a6000888152602001908152602001600020600801908161226c9190613dd5565b50857f6fd1cf082837fee9698416b92b53323c6e05e6234023934c6171d594cf6252e63333888887876040516122a796959493929190613eb6565b60405180910390a2505050505050565b6001816000016000828254019250508190555050565b6122d8848484611841565b6122e48484848461245f565b612323576040517f08c379a000000000000000000000000000000000000000000000000000000000815260040161231a90613fa5565b60405180910390fd5b50505050565b606060405180602001604052806000815250905090565b606061234b826116a0565b6000612355612329565b9050600081511161237557604051806020016040528060008152506123a0565b8061237f846125e6565b604051602001612390929190613767565b6040516020818303038152906040525b915050919050565b60007f01ffc9a7000000000000000000000000000000000000000000000000000000007bffffffffffffffffffffffffffffffffffffffffffffffffffffffff1916827bffffffffffffffffffffffffffffffffffffffffffffffffffffffff1916149050919050565b60008073ffffffffffffffffffffffffffffffffffffffff1661243483611b3a565b73ffffffffffffffffffffffffffffffffffffffff1614159050919050565b50505050565b50505050565b60006124808473ffffffffffffffffffffffffffffffffffffffff166126b4565b156125d9578373ffffffffffffffffffffffffffffffffffffffff1663150b7a026124a96116eb565b8786866040518563ffffffff1660e01b81526004016124cb949392919061401a565b6020604051808303816000875af192505050801561250757506040513d601f19601f82011682018060405250810190612504919061407b565b60015b612589573d8060008114612537576040519150601f19603f3d011682016040523d82523d6000602084013e61253c565b606091505b506000815103612581576040517f08c379a000000000000000000000000000000000000000000000000000000000815260040161257890613fa5565b60405180910390fd5b805181602001fd5b63150b7a0260e01b7bffffffffffffffffffffffffffffffffffffffffffffffffffffffff1916817bffffffffffffffffffffffffffffffffffffffffffffffffffffffff1916149150506125de565b600190505b949350505050565b6060600060016125f5846126d7565b01905060008167ffffffffffffffff81111561261457612613612ebc565b5b6040519080825280601f01601f1916602001820160405280156126465781602001600182028036833780820191505090505b509050600082602001820190505b6001156126a9578080600190039150507f3031323334353637383961626364656600000000000000000000000000000000600a86061a8153600a858161269d5761269c6140a8565b5b04945060008503612654575b819350505050919050565b6000808273ffffffffffffffffffffffffffffffffffffffff163b119050919050565b600080600090507a184f03e93ff9f4daa797ed6e38ed64bf6a1f0100000000000000008310612735577a184f03e93ff9f4daa797ed6e38ed64bf6a1f010000000000000000838161272b5761272a6140a8565b5b0492506040810190505b6d04ee2d6d415b85acef81000000008310612772576d04ee2d6d415b85acef81000000008381612768576127676140a8565b5b0492506020810190505b662386f26fc1000083106127a157662386f26fc100008381612797576127966140a8565b5b0492506010810190505b6305f5e10083106127ca576305f5e10083816127c0576127bf6140a8565b5b0492506008810190505b61271083106127ef5761271083816127e5576127e46140a8565b5b0492506004810190505b606483106128125760648381612808576128076140a8565b5b0492506002810190505b600a8310612821576001810190505b80915050919050565b60405180610120016040528060008152602001600073ffffffffffffffffffffffffffffffffffffffff168152602001600073ffffffffffffffffffffffffffffffffffffffff1681526020016000815260200160608152602001606081526020016060815260200160608152602001606081525090565b6000604051905090565b600080fd5b600080fd5b60007fffffffff0000000000000000000000000000000000000000000000000000000082169050919050565b6128eb816128b6565b81146128f657600080fd5b50565b600081359050612908816128e2565b92915050565b600060208284031215612924576129236128ac565b5b6000612932848285016128f9565b91505092915050565b60008115159050919050565b6129508161293b565b82525050565b600060208201905061296b6000830184612947565b92915050565b600081519050919050565b600082825260208201905092915050565b60005b838110156129ab578082015181840152602081019050612990565b60008484015250505050565b6000601f19601f8301169050919050565b60006129d382612971565b6129dd818561297c565b93506129ed81856020860161298d565b6129f6816129b7565b840191505092915050565b60006020820190508181036000830152612a1b81846129c8565b905092915050565b6000819050919050565b612a3681612a23565b8114612a4157600080fd5b50565b600081359050612a5381612a2d565b92915050565b600060208284031215612a6f57612a6e6128ac565b5b6000612a7d84828501612a44565b91505092915050565b600073ffffffffffffffffffffffffffffffffffffffff82169050919050565b6000612ab182612a86565b9050919050565b612ac181612aa6565b82525050565b6000602082019050612adc6000830184612ab8565b92915050565b612aeb81612aa6565b8114612af657600080fd5b50565b600081359050612b0881612ae2565b92915050565b60008060408385031215612b2557612b246128ac565b5b6000612b3385828601612af9565b9250506020612b4485828601612a44565b9150509250929050565b600080600060608486031215612b6757612b666128ac565b5b6000612b7586828701612af9565b9350506020612b8686828701612af9565b9250506040612b9786828701612a44565b9150509250925092565b600060208284031215612bb757612bb66128ac565b5b6000612bc584828501612af9565b91505092915050565b600081519050919050565b600082825260208201905092915050565b6000819050602082019050919050565b612c0381612a23565b82525050565b6000612c158383612bfa565b60208301905092915050565b6000602082019050919050565b6000612c3982612bce565b612c438185612bd9565b9350612c4e83612bea565b8060005b83811015612c7f578151612c668882612c09565b9750612c7183612c21565b925050600181019050612c52565b5085935050505092915050565b60006020820190508181036000830152612ca68184612c2e565b905092915050565b612cb781612a23565b82525050565b6000602082019050612cd26000830184612cae565b92915050565b6000612ce382612a86565b9050919050565b612cf381612cd8565b82525050565b600082825260208201905092915050565b6000612d1582612971565b612d1f8185612cf9565b9350612d2f81856020860161298d565b612d38816129b7565b840191505092915050565b600061012083016000830151612d5c6000860182612bfa565b506020830151612d6f6020860182612cea565b506040830151612d826040860182612cea565b506060830151612d956060860182612bfa565b5060808301518482036080860152612dad8282612d0a565b91505060a083015184820360a0860152612dc78282612d0a565b91505060c083015184820360c0860152612de18282612d0a565b91505060e083015184820360e0860152612dfb8282612d0a565b915050610100830151848203610100860152612e178282612d0a565b9150508091505092915050565b60006020820190508181036000830152612e3e8184612d43565b905092915050565b612e4f8161293b565b8114612e5a57600080fd5b50565b600081359050612e6c81612e46565b92915050565b60008060408385031215612e8957612e886128ac565b5b6000612e9785828601612af9565b9250506020612ea885828601612e5d565b9150509250929050565b600080fd5b600080fd5b7f4e487b7100000000000000000000000000000000000000000000000000000000600052604160045260246000fd5b612ef4826129b7565b810181811067ffffffffffffffff82111715612f1357612f12612ebc565b5b80604052505050565b6000612f266128a2565b9050612f328282612eeb565b919050565b600067ffffffffffffffff821115612f5257612f51612ebc565b5b612f5b826129b7565b9050602081019050919050565b82818337600083830152505050565b6000612f8a612f8584612f37565b612f1c565b905082815260208101848484011115612fa657612fa5612eb7565b5b612fb1848285612f68565b509392505050565b600082601f830112612fce57612fcd612eb2565b5b8135612fde848260208601612f77565b91505092915050565b600080600080600060a08688031215613003576130026128ac565b5b600086013567ffffffffffffffff811115613021576130206128b1565b5b61302d88828901612fb9565b955050602086013567ffffffffffffffff81111561304e5761304d6128b1565b5b61305a88828901612fb9565b945050604086013567ffffffffffffffff81111561307b5761307a6128b1565b5b61308788828901612fb9565b935050606086013567ffffffffffffffff8111156130a8576130a76128b1565b5b6130b488828901612fb9565b925050608086013567ffffffffffffffff8111156130d5576130d46128b1565b5b6130e188828901612fb9565b9150509295509295909350565b600067ffffffffffffffff82111561310957613108612ebc565b5b613112826129b7565b9050602081019050919050565b600061313261312d846130ee565b612f1c565b90508281526020810184848401111561314e5761314d612eb7565b5b613159848285612f68565b509392505050565b600082601f83011261317657613175612eb2565b5b813561318684826020860161311f565b91505092915050565b600080600080608085870312156131a9576131a86128ac565b5b60006131b787828801612af9565b94505060206131c887828801612af9565b93505060406131d987828801612a44565b925050606085013567ffffffffffffffff8111156131fa576131f96128b1565b5b61320687828801613161565b91505092959194509250565b600081519050919050565b600082825260208201905092915050565b6000819050602082019050919050565b6000610120830160008301516132576000860182612bfa565b50602083015161326a6020860182612cea565b50604083015161327d6040860182612cea565b5060608301516132906060860182612bfa565b50608083015184820360808601526132a88282612d0a565b91505060a083015184820360a08601526132c28282612d0a565b91505060c083015184820360c08601526132dc8282612d0a565b91505060e083015184820360e08601526132f68282612d0a565b9150506101008301518482036101008601526133128282612d0a565b9150508091505092915050565b600061332b838361323e565b905092915050565b6000602082019050919050565b600061334b82613212565b613355818561321d565b9350836020820285016133678561322e565b8060005b858110156133a35784840389528151613384858261331f565b945061338f83613333565b925060208a0199505060018101905061336b565b50829750879550505050505092915050565b600060208201905081810360008301526133cf8184613340565b905092915050565b600080604083850312156133ee576133ed6128ac565b5b60006133fc85828601612af9565b925050602061340d85828601612af9565b9150509250929050565b7f4e487b7100000000000000000000000000000000000000000000000000000000600052602260045260246000fd5b6000600282049050600182168061345e57607f821691505b60208210810361347157613470613417565b5b50919050565b7f4552433732313a20617070726f76616c20746f2063757272656e74206f776e6560008201527f7200000000000000000000000000000000000000000000000000000000000000602082015250565b60006134d360218361297c565b91506134de82613477565b604082019050919050565b60006020820190508181036000830152613502816134c6565b9050919050565b7f4552433732313a20617070726f76652063616c6c6572206973206e6f7420746f60008201527f6b656e206f776e6572206f7220617070726f76656420666f7220616c6c000000602082015250565b6000613565603d8361297c565b915061357082613509565b604082019050919050565b6000602082019050818103600083015261359481613558565b9050919050565b7f4552433732313a2063616c6c6572206973206e6f7420746f6b656e206f776e6560008201527f72206f7220617070726f76656400000000000000000000000000000000000000602082015250565b60006135f7602d8361297c565b91506136028261359b565b604082019050919050565b60006020820190508181036000830152613626816135ea565b9050919050565b7f4552433732313a2061646472657373207a65726f206973206e6f74206120766160008201527f6c6964206f776e65720000000000000000000000000000000000000000000000602082015250565b600061368960298361297c565b91506136948261362d565b604082019050919050565b600060208201905081810360008301526136b88161367c565b9050919050565b7f4552433732313a20696e76616c696420746f6b656e2049440000000000000000600082015250565b60006136f560188361297c565b9150613700826136bf565b602082019050919050565b60006020820190508181036000830152613724816136e8565b9050919050565b600081905092915050565b600061374182612971565b61374b818561372b565b935061375b81856020860161298d565b80840191505092915050565b60006137738285613736565b915061377f8284613736565b91508190509392505050565b7f4e487b7100000000000000000000000000000000000000000000000000000000600052603260045260246000fd5b7f4e487b7100000000000000000000000000000000000000000000000000000000600052601160045260246000fd5b60006137f482612a23565b91507fffffffffffffffffffffffffffffffffffffffffffffffffffffffffffffffff8203613826576138256137ba565b5b600182019050919050565b7f4f776e61626c653a206e6577206f776e657220697320746865207a65726f206160008201527f6464726573730000000000000000000000000000000000000000000000000000602082015250565b600061388d60268361297c565b915061389882613831565b604082019050919050565b600060208201905081810360008301526138bc81613880565b9050919050565b7f4552433732313a207472616e736665722066726f6d20696e636f72726563742060008201527f6f776e6572000000000000000000000000000000000000000000000000000000602082015250565b600061391f60258361297c565b915061392a826138c3565b604082019050919050565b6000602082019050818103600083015261394e81613912565b9050919050565b7f4552433732313a207472616e7366657220746f20746865207a65726f2061646460008201527f7265737300000000000000000000000000000000000000000000000000000000602082015250565b60006139b160248361297c565b91506139bc82613955565b604082019050919050565b600060208201905081810360008301526139e0816139a4565b9050919050565b7f4f776e61626c653a2063616c6c6572206973206e6f7420746865206f776e6572600082015250565b6000613a1d60208361297c565b9150613a28826139e7565b602082019050919050565b60006020820190508181036000830152613a4c81613a10565b9050919050565b7f4552433732313a20617070726f766520746f2063616c6c657200000000000000600082015250565b6000613a8960198361297c565b9150613a9482613a53565b602082019050919050565b60006020820190508181036000830152613ab881613a7c565b9050919050565b7f4552433732313a206d696e7420746f20746865207a65726f2061646472657373600082015250565b6000613af560208361297c565b9150613b0082613abf565b602082019050919050565b60006020820190508181036000830152613b2481613ae8565b9050919050565b7f4552433732313a20746f6b656e20616c7265616479206d696e74656400000000600082015250565b6000613b61601c8361297c565b9150613b6c82613b2b565b602082019050919050565b60006020820190508181036000830152613b9081613b54565b9050919050565b7f45524337323155524953746f726167653a2055524920736574206f66206e6f6e60008201527f6578697374656e7420746f6b656e000000000000000000000000000000000000602082015250565b6000613bf3602e8361297c565b9150613bfe82613b97565b604082019050919050565b60006020820190508181036000830152613c2281613be6565b9050919050565b60008190508160005260206000209050919050565b60006020601f8301049050919050565b600082821b905092915050565b600060088302613c8b7fffffffffffffffffffffffffffffffffffffffffffffffffffffffffffffffff82613c4e565b613c958683613c4e565b95508019841693508086168417925050509392505050565b6000819050919050565b6000613cd2613ccd613cc884612a23565b613cad565b612a23565b9050919050565b6000819050919050565b613cec83613cb7565b613d00613cf882613cd9565b848454613c5b565b825550505050565b600090565b613d15613d08565b613d20818484613ce3565b505050565b5b81811015613d4457613d39600082613d0d565b600181019050613d26565b5050565b601f821115613d8957613d5a81613c29565b613d6384613c3e565b81016020851015613d72578190505b613d86613d7e85613c3e565b830182613d25565b50505b505050565b600082821c905092915050565b6000613dac60001984600802613d8e565b1980831691505092915050565b6000613dc58383613d9b565b9150826002028217905092915050565b613dde82612971565b67ffffffffffffffff811115613df757613df6612ebc565b5b613e018254613446565b613e0c828285613d48565b600060209050601f831160018114613e3f5760008415613e2d578287015190505b613e378582613db9565b865550613e9f565b601f198416613e4d86613c29565b60005b82811015613e7557848901518255600182019150602085019450602081019050613e50565b86831015613e925784890151613e8e601f891682613d9b565b8355505b6001600288020188555050505b505050505050565b613eb081612cd8565b82525050565b600060c082019050613ecb6000830189613ea7565b613ed86020830188613ea7565b8181036040830152613eea81876129c8565b90508181036060830152613efe81866129c8565b90508181036080830152613f1281856129c8565b905081810360a0830152613f2681846129c8565b9050979650505050505050565b7f4552433732313a207472616e7366657220746f206e6f6e20455243373231526560008201527f63656976657220696d706c656d656e7465720000000000000000000000000000602082015250565b6000613f8f60328361297c565b9150613f9a82613f33565b604082019050919050565b60006020820190508181036000830152613fbe81613f82565b9050919050565b600081519050919050565b600082825260208201905092915050565b6000613fec82613fc5565b613ff68185613fd0565b935061400681856020860161298d565b61400f816129b7565b840191505092915050565b600060808201905061402f6000830187612ab8565b61403c6020830186612ab8565b6140496040830185612cae565b818103606083015261405b8184613fe1565b905095945050505050565b600081519050614075816128e2565b92915050565b600060208284031215614091576140906128ac565b5b600061409f84828501614066565b91505092915050565b7f4e487b7100000000000000000000000000000000000000000000000000000000600052601260045260246000fdfea264697066735822122089ad5aa9483b0cde9fa23035a48b4777f57b2b106f883724af6c0b38321e460064736f6c63430008130033",
  "immutableReferences": {},
  "source": "// contracts/MyNFT.sol\r\n// SPDX-License-Identifier: MIT\r\npragma solidity ^0.8.0;\r\n\r\nimport \"@openzeppelin/contracts/token/ERC721/ERC721.sol\";\r\nimport \"@openzeppelin/contracts/utils/Counters.sol\";\r\nimport \"@openzeppelin/contracts/access/Ownable.sol\";\r\nimport \"@openzeppelin/contracts/token/ERC721/extensions/ERC721URIStorage.sol\";\r\nimport \"./openzeppelin/ERC721EnumerableModify.sol\";\r\n// import \"@openzeppelin/contracts/token/ERC721/extensions/ERC721Enumerable.sol\";\r\n\r\ncontract MyNFT is Ownable, ERC721URIStorage {\r\n    using Counters for Counters.Counter;\r\n    Counters.Counter private tokenIds;\r\n    Counters.Counter private userIds;\r\n\r\n\r\n    struct nftStruct {\r\n        uint256 tokenId;\r\n        address payable seller;\r\n        address payable owner;\r\n        uint256 price;\r\n        string title;\r\n        string description;\r\n        string image;\r\n        string tokenUri;\r\n        string metadata;\r\n    }\r\n\r\n    mapping(uint256 => nftStruct) private nfts;\r\n    mapping(address => uint256 []) private nftOwners;\r\n\r\n    event NftStructCreated(\r\n        uint256 indexed tokenId,\r\n        address payable seller,\r\n        address payable owner,\r\n        string title,\r\n        string description,\r\n        string image,\r\n        string metadata\r\n    );\r\n\r\n    constructor() ERC721(\"NFT MINTO\", \"MINTO's NFT collection\") {\r\n        tokenIds.increment();\r\n        userIds.increment();\r\n    }\r\n    \r\n\r\n    function setNft(\r\n        uint256 _tokenId,\r\n        string memory _title,\r\n        string memory _description,\r\n        string memory _tokenURI,\r\n        string memory _image,\r\n        string memory _metadata\r\n    ) private {\r\n\r\n        nfts[_tokenId].tokenId = _tokenId;\r\n        nfts[_tokenId].seller = payable(msg.sender);\r\n        nfts[_tokenId].owner = payable(msg.sender);\r\n        nfts[_tokenId].title = _title;\r\n        nfts[_tokenId].description = _description;\r\n        nfts[_tokenId].tokenUri = _tokenURI;\r\n        nfts[_tokenId].image = _image;\r\n        nfts[_tokenId].metadata = _metadata;\r\n\r\n        emit NftStructCreated(\r\n            _tokenId,\r\n            payable(msg.sender),\r\n            payable(msg.sender),\r\n            _title,\r\n            _description,\r\n            _image,\r\n            _metadata\r\n        );\r\n    }\r\n    /// @dev this function mints received NFTs\r\n    /// @param _tokenURI the new token URI for the magazine cover\r\n    /// @param _title the name of the magazine cover\r\n    /// @param _description detailed information on the magazine NFT\r\n    /// @param _image image\r\n    /// @param _metadata metadata\r\n    // /// @return tokenId of the created NFT\r\n    function createNft(\r\n        string memory _tokenURI,\r\n        string memory _title,\r\n        string memory _description,\r\n        string memory _image,\r\n        string memory _metadata\r\n    ) public  {\r\n        \r\n        uint256 newTokenId = tokenIds.current();\r\n        _mint(msg.sender, newTokenId);\r\n        _setTokenURI(newTokenId, _tokenURI);\r\n        nftOwners[msg.sender].push(newTokenId);\r\n        setNft(newTokenId, _title, _description, _tokenURI, _image, _metadata);\r\n        tokenIds.increment();\r\n    }\r\n\r\n    /// @dev this function mints received NFTs\r\n    /// @param _tokenURI the new token URI for the magazine cover\r\n    /// @param _title the name of the magazine cover\r\n    /// @param _description detailed information on the magazine NFT\r\n    /// @param _to set address _to \r\n    // /// @return tokenId of the created NFT\r\n\r\n\r\n    /// @dev sell a magazine subscription to the public so that's visible to the nft marketplace\r\n    /// @param _tokenId the TokenID od the Nft Magazine\r\n    // /// @param _price the price for the magazine subscription\r\n    // /// @return total number of available nft subscriptions\r\n    // function sellSubscription(\r\n    //     uint256 _tokenId\r\n    // ) public payable returns (uint256) {\r\n    //     require(\r\n    //         _isApprovedOrOwner(msg.sender, _tokenId),\r\n    //         \"Only NFT owner can perform this\"\r\n    //     );\r\n    //     _transfer(msg.sender, address(this), _tokenId);\r\n    //     nfts[_tokenId].price = msg.value / (1 ether);\r\n    //     nfts[_tokenId].owner = payable(address(this));\r\n    //     //_expirations[_tokenId] = duration;\r\n    //     nftsAvailableForSale.increment();\r\n    //     return nftsAvailableForSale.current();\r\n    // }\r\n\r\n    /// @dev buy a magazine subscription from the marketplace\r\n    /// @param _tokenId the Token ID of the NFT Magazine\r\n    /// @return true\r\n    // function buySubscription(uint256 _tokenId) public payable returns (bool) {\r\n    //     // uint256 price = nfts[_tokenId].price;\r\n    //     // require(\r\n    //     //     msg.value == price,\r\n    //     //     \"Please send the asking price in order to complete the purchase\"\r\n    //     // );\r\n\r\n    //     payable(nfts[_tokenId].seller).transfer(msg.value);\r\n    //     nfts[_tokenId].subscribers.push(msg.sender);\r\n    //     return true;\r\n    // }\r\n\r\n    /// @dev fetch available NFTs on sale that will be displayed on the marketplace\r\n    /// return nftStruct[] list of nfts with their metadata\r\n    // function getSubscriptions() public view returns (nftStruct[] memory) {\r\n    //     uint256 nftCount = tokenIds.current();\r\n    //     nftStruct[] memory nftSubs = new nftStruct[](nftCount);\r\n    //     for (uint256 i = 1; i < nftCount; i++) {\r\n    //         if (nfts[i].owner == address(this)) {\r\n    //             nftSubs[i] = nfts[i];\r\n    //         }\r\n    //     }\r\n    //     return nftSubs;\r\n    // }\r\n\r\n    /// @dev fetches NFT magazines that a specific user is already subscribed to\r\n    /// return nftStruct[] list of the nfts collected by a user with their metadata\r\n    // function getCollectables() public view returns (nftStruct[] memory) {\r\n    //     uint256 nftCount = tokenIds.current();\r\n    //     nftStruct[] memory nftSubs = new nftStruct[](nftCount);\r\n\r\n    //     for (uint256 i = 1; i < nftCount; i++) {\r\n    //         uint256 subscribers = nfts[i].subscribers.length;\r\n    //         for (uint256 j = 0; j < subscribers; j++) {\r\n    //             if (nfts[i].subscribers[j] == msg.sender) {\r\n    //                 nftSubs[i] = nfts[i];\r\n    //             }\r\n    //         }\r\n    //     }\r\n\r\n    //     return nftSubs;\r\n    // }\r\n\r\n    /// @dev fetches NFT magazines that a specific user has created\r\n    /// @return nftStruct[] list of nfts created by a user with their metadata\r\n    function getNfts() public view returns (nftStruct[] memory) {\r\n        uint256 nftCount = tokenIds.current();\r\n        nftStruct[] memory nftSubs = new nftStruct[](nftCount);\r\n        for (uint256 i = 1; i < nftCount; i++) {\r\n            if (nfts[i].seller == payable(msg.sender)) {\r\n                nftSubs[i] = nfts[i];\r\n            }\r\n        }\r\n\r\n        return nftSubs;\r\n    }\r\n\r\n    /// @dev fetches details of a particular NFT magazine subscription\r\n    /// @param _tokenId The token ID of the NFT Magazine\r\n    /// @return nftStruct NFT data of the specific token ID\r\n    function getIndividualNFT (\r\n        uint256 _tokenId\r\n    ) public view returns (nftStruct memory) {\r\n        return nfts[_tokenId];\r\n    }\r\n\r\n    function getNftsByAddress (address owner) public view returns(uint256[] memory){\r\n        require(owner != address(0), \"ERC721: address zero is not a valid owner\");\r\n        return nftOwners[owner];\r\n    }\r\n\r\n    // /// @dev increments number of likes for a NFT Magazine by 1\r\n    // /// @param _tokenId the Token ID of the NFT Magazine\r\n    // function likeSubscription(uint256 _tokenId) public {\r\n    //     nfts[_tokenId].likes += 1;\r\n    // }\r\n\r\n    // /// @dev decrement number of likes for a NFT Magazine by 1\r\n    // /// @param _tokenId the Token ID of the NFT Magazine\r\n    // function unlikeSubscription(uint256 _tokenId) public {\r\n    //     nfts[_tokenId].likes -= 1;\r\n    // }\r\n\r\n    \r\n}",
  "sourcePath": "C:\\Projects\\minto-nft\\contracts\\MyNFT.sol",
  "compiler": {
    "name": "solc",
    "version": "0.8.19+commit.7dd6d404.Emscripten.clang"
  },
  "schemaVersion": "3.4.16",
  "updatedAt": "2024-03-07T06:01:26.529Z",
  "networkType": "ethereum",
  "devdoc": {
    "events": {
      "Approval(address,address,uint256)": {
        "details": "Emitted when `owner` enables `approved` to manage the `tokenId` token."
      },
      "ApprovalForAll(address,address,bool)": {
        "details": "Emitted when `owner` enables or disables (`approved`) `operator` to manage all of its assets."
      },
      "BatchMetadataUpdate(uint256,uint256)": {
        "details": "This event emits when the metadata of a range of tokens is changed. So that the third-party platforms such as NFT market could timely update the images and related attributes of the NFTs."
      },
      "MetadataUpdate(uint256)": {
        "details": "This event emits when the metadata of a token is changed. So that the third-party platforms such as NFT market could timely update the images and related attributes of the NFT."
      },
      "Transfer(address,address,uint256)": {
        "details": "Emitted when `tokenId` token is transferred from `from` to `to`."
      }
    },
    "kind": "dev",
    "methods": {
      "approve(address,uint256)": {
        "details": "See {IERC721-approve}."
      },
      "balanceOf(address)": {
        "details": "See {IERC721-balanceOf}."
      },
      "createNft(string,string,string,string,string)": {
        "details": "this function mints received NFTs",
        "params": {
          "_description": "detailed information on the magazine NFT",
          "_image": "image",
          "_metadata": "metadata",
          "_title": "the name of the magazine cover",
          "_tokenURI": "the new token URI for the magazine cover"
        }
      },
      "getApproved(uint256)": {
        "details": "See {IERC721-getApproved}."
      },
      "getIndividualNFT(uint256)": {
        "details": "fetches details of a particular NFT magazine subscription",
        "params": {
          "_tokenId": "The token ID of the NFT Magazine"
        },
        "returns": {
          "_0": "nftStruct NFT data of the specific token ID"
        }
      },
      "getNfts()": {
        "details": "fetches NFT magazines that a specific user has created",
        "returns": {
          "_0": "nftStruct[] list of nfts created by a user with their metadata"
        }
      },
      "isApprovedForAll(address,address)": {
        "details": "See {IERC721-isApprovedForAll}."
      },
      "name()": {
        "details": "See {IERC721Metadata-name}."
      },
      "owner()": {
        "details": "Returns the address of the current owner."
      },
      "ownerOf(uint256)": {
        "details": "See {IERC721-ownerOf}."
      },
      "renounceOwnership()": {
        "details": "Leaves the contract without owner. It will not be possible to call `onlyOwner` functions. Can only be called by the current owner. NOTE: Renouncing ownership will leave the contract without an owner, thereby disabling any functionality that is only available to the owner."
      },
      "safeTransferFrom(address,address,uint256)": {
        "details": "See {IERC721-safeTransferFrom}."
      },
      "safeTransferFrom(address,address,uint256,bytes)": {
        "details": "See {IERC721-safeTransferFrom}."
      },
      "setApprovalForAll(address,bool)": {
        "details": "See {IERC721-setApprovalForAll}."
      },
      "supportsInterface(bytes4)": {
        "details": "See {IERC165-supportsInterface}"
      },
      "symbol()": {
        "details": "See {IERC721Metadata-symbol}."
      },
      "tokenURI(uint256)": {
        "details": "See {IERC721Metadata-tokenURI}."
      },
      "transferFrom(address,address,uint256)": {
        "details": "See {IERC721-transferFrom}."
      },
      "transferOwnership(address)": {
        "details": "Transfers ownership of the contract to a new account (`newOwner`). Can only be called by the current owner."
      }
    },
    "version": 1
  },
  "userdoc": {
    "kind": "user",
    "methods": {},
    "version": 1
  }
}