{
  "contractName": "MyNFT",
  "abi": [
    {
      "inputs": [],
      "stateMutability": "nonpayable",
      "type": "constructor"
    },
    {
      "anonymous": false,
      "inputs": [
        {
          "indexed": true,
          "internalType": "address",
          "name": "owner",
          "type": "address"
        },
        {
          "indexed": true,
          "internalType": "address",
          "name": "approved",
          "type": "address"
        },
        {
          "indexed": true,
          "internalType": "uint256",
          "name": "tokenId",
          "type": "uint256"
        }
      ],
      "name": "Approval",
      "type": "event"
    },
    {
      "anonymous": false,
      "inputs": [
        {
          "indexed": true,
          "internalType": "address",
          "name": "owner",
          "type": "address"
        },
        {
          "indexed": true,
          "internalType": "address",
          "name": "operator",
          "type": "address"
        },
        {
          "indexed": false,
          "internalType": "bool",
          "name": "approved",
          "type": "bool"
        }
      ],
      "name": "ApprovalForAll",
      "type": "event"
    },
    {
      "anonymous": false,
      "inputs": [
        {
          "indexed": false,
          "internalType": "uint256",
          "name": "_fromTokenId",
          "type": "uint256"
        },
        {
          "indexed": false,
          "internalType": "uint256",
          "name": "_toTokenId",
          "type": "uint256"
        }
      ],
      "name": "BatchMetadataUpdate",
      "type": "event"
    },
    {
      "anonymous": false,
      "inputs": [
        {
          "indexed": false,
          "internalType": "uint256",
          "name": "_tokenId",
          "type": "uint256"
        }
      ],
      "name": "MetadataUpdate",
      "type": "event"
    },
    {
      "anonymous": false,
      "inputs": [
        {
          "indexed": true,
          "internalType": "uint256",
          "name": "tokenId",
          "type": "uint256"
        },
        {
          "indexed": false,
          "internalType": "address payable",
          "name": "seller",
          "type": "address"
        },
        {
          "indexed": false,
          "internalType": "address payable",
          "name": "owner",
          "type": "address"
        },
        {
          "indexed": false,
          "internalType": "string",
          "name": "title",
          "type": "string"
        },
        {
          "indexed": false,
          "internalType": "string",
          "name": "description",
          "type": "string"
        },
        {
          "indexed": false,
          "internalType": "string",
          "name": "image",
          "type": "string"
        }
      ],
      "name": "NftStructCreated",
      "type": "event"
    },
    {
      "anonymous": false,
      "inputs": [
        {
          "indexed": true,
          "internalType": "address",
          "name": "from",
          "type": "address"
        },
        {
          "indexed": true,
          "internalType": "address",
          "name": "to",
          "type": "address"
        },
        {
          "indexed": true,
          "internalType": "uint256",
          "name": "tokenId",
          "type": "uint256"
        }
      ],
      "name": "Transfer",
      "type": "event"
    },
    {
      "inputs": [
        {
          "internalType": "address",
          "name": "to",
          "type": "address"
        },
        {
          "internalType": "uint256",
          "name": "tokenId",
          "type": "uint256"
        }
      ],
      "name": "approve",
      "outputs": [],
      "stateMutability": "nonpayable",
      "type": "function"
    },
    {
      "inputs": [
        {
          "internalType": "address",
          "name": "owner",
          "type": "address"
        }
      ],
      "name": "balanceOf",
      "outputs": [
        {
          "internalType": "uint256",
          "name": "",
          "type": "uint256"
        }
      ],
      "stateMutability": "view",
      "type": "function",
      "constant": true
    },
    {
      "inputs": [
        {
          "internalType": "uint256",
          "name": "tokenId",
          "type": "uint256"
        }
      ],
      "name": "getApproved",
      "outputs": [
        {
          "internalType": "address",
          "name": "",
          "type": "address"
        }
      ],
      "stateMutability": "view",
      "type": "function",
      "constant": true
    },
    {
      "inputs": [
        {
          "internalType": "address",
          "name": "owner",
          "type": "address"
        },
        {
          "internalType": "address",
          "name": "operator",
          "type": "address"
        }
      ],
      "name": "isApprovedForAll",
      "outputs": [
        {
          "internalType": "bool",
          "name": "",
          "type": "bool"
        }
      ],
      "stateMutability": "view",
      "type": "function",
      "constant": true
    },
    {
      "inputs": [],
      "name": "name",
      "outputs": [
        {
          "internalType": "string",
          "name": "",
          "type": "string"
        }
      ],
      "stateMutability": "view",
      "type": "function",
      "constant": true
    },
    {
      "inputs": [
        {
          "internalType": "uint256",
          "name": "tokenId",
          "type": "uint256"
        }
      ],
      "name": "ownerOf",
      "outputs": [
        {
          "internalType": "address",
          "name": "",
          "type": "address"
        }
      ],
      "stateMutability": "view",
      "type": "function",
      "constant": true
    },
    {
      "inputs": [
        {
          "internalType": "address",
          "name": "from",
          "type": "address"
        },
        {
          "internalType": "address",
          "name": "to",
          "type": "address"
        },
        {
          "internalType": "uint256",
          "name": "tokenId",
          "type": "uint256"
        }
      ],
      "name": "safeTransferFrom",
      "outputs": [],
      "stateMutability": "nonpayable",
      "type": "function"
    },
    {
      "inputs": [
        {
          "internalType": "address",
          "name": "from",
          "type": "address"
        },
        {
          "internalType": "address",
          "name": "to",
          "type": "address"
        },
        {
          "internalType": "uint256",
          "name": "tokenId",
          "type": "uint256"
        },
        {
          "internalType": "bytes",
          "name": "data",
          "type": "bytes"
        }
      ],
      "name": "safeTransferFrom",
      "outputs": [],
      "stateMutability": "nonpayable",
      "type": "function"
    },
    {
      "inputs": [
        {
          "internalType": "address",
          "name": "operator",
          "type": "address"
        },
        {
          "internalType": "bool",
          "name": "approved",
          "type": "bool"
        }
      ],
      "name": "setApprovalForAll",
      "outputs": [],
      "stateMutability": "nonpayable",
      "type": "function"
    },
    {
      "inputs": [
        {
          "internalType": "bytes4",
          "name": "interfaceId",
          "type": "bytes4"
        }
      ],
      "name": "supportsInterface",
      "outputs": [
        {
          "internalType": "bool",
          "name": "",
          "type": "bool"
        }
      ],
      "stateMutability": "view",
      "type": "function",
      "constant": true
    },
    {
      "inputs": [],
      "name": "symbol",
      "outputs": [
        {
          "internalType": "string",
          "name": "",
          "type": "string"
        }
      ],
      "stateMutability": "view",
      "type": "function",
      "constant": true
    },
    {
      "inputs": [
        {
          "internalType": "uint256",
          "name": "tokenId",
          "type": "uint256"
        }
      ],
      "name": "tokenURI",
      "outputs": [
        {
          "internalType": "string",
          "name": "",
          "type": "string"
        }
      ],
      "stateMutability": "view",
      "type": "function",
      "constant": true
    },
    {
      "inputs": [
        {
          "internalType": "address",
          "name": "from",
          "type": "address"
        },
        {
          "internalType": "address",
          "name": "to",
          "type": "address"
        },
        {
          "internalType": "uint256",
          "name": "tokenId",
          "type": "uint256"
        }
      ],
      "name": "transferFrom",
      "outputs": [],
      "stateMutability": "nonpayable",
      "type": "function"
    },
    {
      "inputs": [
        {
          "internalType": "string",
          "name": "_tokenURI",
          "type": "string"
        },
        {
          "internalType": "string",
          "name": "_title",
          "type": "string"
        },
        {
          "internalType": "string",
          "name": "_description",
          "type": "string"
        },
        {
          "internalType": "string",
          "name": "_image",
          "type": "string"
        }
      ],
      "name": "createNft",
      "outputs": [],
      "stateMutability": "nonpayable",
      "type": "function"
    },
    {
      "inputs": [],
      "name": "getNfts",
      "outputs": [
        {
          "components": [
            {
              "internalType": "uint256",
              "name": "tokenId",
              "type": "uint256"
            },
            {
              "internalType": "address payable",
              "name": "seller",
              "type": "address"
            },
            {
              "internalType": "address payable",
              "name": "owner",
              "type": "address"
            },
            {
              "internalType": "string",
              "name": "title",
              "type": "string"
            },
            {
              "internalType": "string",
              "name": "description",
              "type": "string"
            },
            {
              "internalType": "string",
              "name": "image",
              "type": "string"
            },
            {
              "internalType": "string",
              "name": "tokenUri",
              "type": "string"
            }
          ],
          "internalType": "struct MyNFT.nftStruct[]",
          "name": "",
          "type": "tuple[]"
        }
      ],
      "stateMutability": "view",
      "type": "function",
      "constant": true
    },
    {
      "inputs": [
        {
          "internalType": "uint256",
          "name": "_tokenId",
          "type": "uint256"
        }
      ],
      "name": "getIndividualNFT",
      "outputs": [
        {
          "components": [
            {
              "internalType": "uint256",
              "name": "tokenId",
              "type": "uint256"
            },
            {
              "internalType": "address payable",
              "name": "seller",
              "type": "address"
            },
            {
              "internalType": "address payable",
              "name": "owner",
              "type": "address"
            },
            {
              "internalType": "string",
              "name": "title",
              "type": "string"
            },
            {
              "internalType": "string",
              "name": "description",
              "type": "string"
            },
            {
              "internalType": "string",
              "name": "image",
              "type": "string"
            },
            {
              "internalType": "string",
              "name": "tokenUri",
              "type": "string"
            }
          ],
          "internalType": "struct MyNFT.nftStruct",
          "name": "",
          "type": "tuple"
        }
      ],
      "stateMutability": "view",
      "type": "function",
      "constant": true
    },
    {
      "inputs": [
        {
          "internalType": "address",
          "name": "owner",
          "type": "address"
        }
      ],
      "name": "getNftsByAddress",
      "outputs": [
        {
          "internalType": "uint256[]",
          "name": "",
          "type": "uint256[]"
        }
      ],
      "stateMutability": "view",
      "type": "function",
      "constant": true
    }
  ],
  "bytecode": "0x60806040523480156200001157600080fd5b506040518060400160405280600981526020017f4e4654204d494e544f00000000000000000000000000000000000000000000008152506040518060400160405280601681526020017f4d494e544f2773204e465420636f6c6c656374696f6e0000000000000000000081525081600090816200008f91906200035e565b508060019081620000a191906200035e565b505050620000b66007620000ce60201b60201c565b620000c86008620000ce60201b60201c565b62000445565b6001816000016000828254019250508190555050565b600081519050919050565b7f4e487b7100000000000000000000000000000000000000000000000000000000600052604160045260246000fd5b7f4e487b7100000000000000000000000000000000000000000000000000000000600052602260045260246000fd5b600060028204905060018216806200016657607f821691505b6020821081036200017c576200017b6200011e565b5b50919050565b60008190508160005260206000209050919050565b60006020601f8301049050919050565b600082821b905092915050565b600060088302620001e67fffffffffffffffffffffffffffffffffffffffffffffffffffffffffffffffff82620001a7565b620001f28683620001a7565b95508019841693508086168417925050509392505050565b6000819050919050565b6000819050919050565b60006200023f6200023962000233846200020a565b62000214565b6200020a565b9050919050565b6000819050919050565b6200025b836200021e565b620002736200026a8262000246565b848454620001b4565b825550505050565b600090565b6200028a6200027b565b6200029781848462000250565b505050565b5b81811015620002bf57620002b360008262000280565b6001810190506200029d565b5050565b601f8211156200030e57620002d88162000182565b620002e38462000197565b81016020851015620002f3578190505b6200030b620003028562000197565b8301826200029c565b50505b505050565b600082821c905092915050565b6000620003336000198460080262000313565b1980831691505092915050565b60006200034e838362000320565b9150826002028217905092915050565b6200036982620000e4565b67ffffffffffffffff811115620003855762000384620000ef565b5b6200039182546200014d565b6200039e828285620002c3565b600060209050601f831160018114620003d65760008415620003c1578287015190505b620003cd858262000340565b8655506200043d565b601f198416620003e68662000182565b60005b828110156200041057848901518255600182019150602085019450602081019050620003e9565b868310156200043057848901516200042c601f89168262000320565b8355505b6001600288020188555050505b505050505050565b613b9180620004556000396000f3fe608060405234801561001057600080fd5b506004361061010b5760003560e01c806370a08231116100a2578063a22cb46511610071578063a22cb465146102dc578063b88d4fde146102f8578063c87b56dd14610314578063d8cb55e314610344578063e985e9c5146103625761010b565b806370a082311461024257806376856319146102725780638a566fa8146102a257806395d89b41146102be5761010b565b806323b872dd116100de57806323b872dd146101aa5780633a66dd36146101c657806342842e0e146101f65780636352211e146102125761010b565b806301ffc9a71461011057806306fdde0314610140578063081812fc1461015e578063095ea7b31461018e575b600080fd5b61012a60048036038101906101259190612535565b610392565b604051610137919061257d565b60405180910390f35b6101486103f3565b6040516101559190612628565b60405180910390f35b61017860048036038101906101739190612680565b610485565b60405161018591906126ee565b60405180910390f35b6101a860048036038101906101a39190612735565b6104cb565b005b6101c460048036038101906101bf9190612775565b6105e2565b005b6101e060048036038101906101db91906127c8565b610642565b6040516101ed91906128b3565b60405180910390f35b610210600480360381019061020b9190612775565b610748565b005b61022c60048036038101906102279190612680565b610768565b60405161023991906126ee565b60405180910390f35b61025c600480360381019061025791906127c8565b6107ee565b60405161026991906128e4565b60405180910390f35b61028c60048036038101906102879190612680565b6108a5565b6040516102999190612a1b565b60405180910390f35b6102bc60048036038101906102b79190612b72565b610bd0565b005b6102c6610c76565b6040516102d39190612628565b60405180910390f35b6102f660048036038101906102f19190612c75565b610d08565b005b610312600480360381019061030d9190612d56565b610d1e565b005b61032e60048036038101906103299190612680565b610d80565b60405161033b9190612628565b60405180910390f35b61034c610e92565b6040516103599190612f4c565b60405180910390f35b61037c60048036038101906103779190612f6e565b6112c9565b604051610389919061257d565b60405180910390f35b6000634906490660e01b7bffffffffffffffffffffffffffffffffffffffffffffffffffffffff1916827bffffffffffffffffffffffffffffffffffffffffffffffffffffffff191614806103ec57506103eb8261135d565b5b9050919050565b60606000805461040290612fdd565b80601f016020809104026020016040519081016040528092919081815260200182805461042e90612fdd565b801561047b5780601f106104505761010080835404028352916020019161047b565b820191906000526020600020905b81548152906001019060200180831161045e57829003601f168201915b5050505050905090565b60006104908261143f565b6004600083815260200190815260200160002060009054906101000a900473ffffffffffffffffffffffffffffffffffffffff169050919050565b60006104d682610768565b90508073ffffffffffffffffffffffffffffffffffffffff168373ffffffffffffffffffffffffffffffffffffffff1603610546576040517f08c379a000000000000000000000000000000000000000000000000000000000815260040161053d90613080565b60405180910390fd5b8073ffffffffffffffffffffffffffffffffffffffff1661056561148a565b73ffffffffffffffffffffffffffffffffffffffff16148061059457506105938161058e61148a565b6112c9565b5b6105d3576040517f08c379a00000000000000000000000000000000000000000000000000000000081526004016105ca90613112565b60405180910390fd5b6105dd8383611492565b505050565b6105f36105ed61148a565b8261154b565b610632576040517f08c379a0000000000000000000000000000000000000000000000000000000008152600401610629906131a4565b60405180910390fd5b61063d8383836115e0565b505050565b6060600073ffffffffffffffffffffffffffffffffffffffff168273ffffffffffffffffffffffffffffffffffffffff16036106b3576040517f08c379a00000000000000000000000000000000000000000000000000000000081526004016106aa90613236565b60405180910390fd5b600a60008373ffffffffffffffffffffffffffffffffffffffff1673ffffffffffffffffffffffffffffffffffffffff16815260200190815260200160002080548060200260200160405190810160405280929190818152602001828054801561073c57602002820191906000526020600020905b815481526020019060010190808311610728575b50505050509050919050565b61076383838360405180602001604052806000815250610d1e565b505050565b600080610774836118d9565b9050600073ffffffffffffffffffffffffffffffffffffffff168173ffffffffffffffffffffffffffffffffffffffff16036107e5576040517f08c379a00000000000000000000000000000000000000000000000000000000081526004016107dc906132a2565b60405180910390fd5b80915050919050565b60008073ffffffffffffffffffffffffffffffffffffffff168273ffffffffffffffffffffffffffffffffffffffff160361085e576040517f08c379a000000000000000000000000000000000000000000000000000000000815260040161085590613236565b60405180910390fd5b600360008373ffffffffffffffffffffffffffffffffffffffff1673ffffffffffffffffffffffffffffffffffffffff168152602001908152602001600020549050919050565b6108ad612460565b600960008381526020019081526020016000206040518060e0016040529081600082015481526020016001820160009054906101000a900473ffffffffffffffffffffffffffffffffffffffff1673ffffffffffffffffffffffffffffffffffffffff1673ffffffffffffffffffffffffffffffffffffffff1681526020016002820160009054906101000a900473ffffffffffffffffffffffffffffffffffffffff1673ffffffffffffffffffffffffffffffffffffffff1673ffffffffffffffffffffffffffffffffffffffff16815260200160038201805461099190612fdd565b80601f01602080910402602001604051908101604052809291908181526020018280546109bd90612fdd565b8015610a0a5780601f106109df57610100808354040283529160200191610a0a565b820191906000526020600020905b8154815290600101906020018083116109ed57829003601f168201915b50505050508152602001600482018054610a2390612fdd565b80601f0160208091040260200160405190810160405280929190818152602001828054610a4f90612fdd565b8015610a9c5780601f10610a7157610100808354040283529160200191610a9c565b820191906000526020600020905b815481529060010190602001808311610a7f57829003601f168201915b50505050508152602001600582018054610ab590612fdd565b80601f0160208091040260200160405190810160405280929190818152602001828054610ae190612fdd565b8015610b2e5780601f10610b0357610100808354040283529160200191610b2e565b820191906000526020600020905b815481529060010190602001808311610b1157829003601f168201915b50505050508152602001600682018054610b4790612fdd565b80601f0160208091040260200160405190810160405280929190818152602001828054610b7390612fdd565b8015610bc05780601f10610b9557610100808354040283529160200191610bc0565b820191906000526020600020905b815481529060010190602001808311610ba357829003601f168201915b5050505050815250509050919050565b6000610bdc6007611916565b9050610be83382611924565b610bf28186611b41565b600a60003373ffffffffffffffffffffffffffffffffffffffff1673ffffffffffffffffffffffffffffffffffffffff168152602001908152602001600020819080600181540180825580915050600190039060005260206000200160009091909190915055610c658185858886611be5565b610c6f6007611d81565b5050505050565b606060018054610c8590612fdd565b80601f0160208091040260200160405190810160405280929190818152602001828054610cb190612fdd565b8015610cfe5780601f10610cd357610100808354040283529160200191610cfe565b820191906000526020600020905b815481529060010190602001808311610ce157829003601f168201915b5050505050905090565b610d1a610d1361148a565b8383611d97565b5050565b610d2f610d2961148a565b8361154b565b610d6e576040517f08c379a0000000000000000000000000000000000000000000000000000000008152600401610d65906131a4565b60405180910390fd5b610d7a84848484611f03565b50505050565b6060610d8b8261143f565b6000600660008481526020019081526020016000208054610dab90612fdd565b80601f0160208091040260200160405190810160405280929190818152602001828054610dd790612fdd565b8015610e245780601f10610df957610100808354040283529160200191610e24565b820191906000526020600020905b815481529060010190602001808311610e0757829003601f168201915b505050505090506000610e35611f5f565b90506000815103610e4a578192505050610e8d565b600082511115610e7f578082604051602001610e679291906132fe565b60405160208183030381529060405292505050610e8d565b610e8884611f76565b925050505b919050565b60606000610ea06007611916565b905060008167ffffffffffffffff811115610ebe57610ebd612a47565b5b604051908082528060200260200182016040528015610ef757816020015b610ee4612460565b815260200190600190039081610edc5790505b5090506000600190505b828110156112c0573373ffffffffffffffffffffffffffffffffffffffff166009600083815260200190815260200160002060010160009054906101000a900473ffffffffffffffffffffffffffffffffffffffff1673ffffffffffffffffffffffffffffffffffffffff16036112ad57600960008281526020019081526020016000206040518060e0016040529081600082015481526020016001820160009054906101000a900473ffffffffffffffffffffffffffffffffffffffff1673ffffffffffffffffffffffffffffffffffffffff1673ffffffffffffffffffffffffffffffffffffffff1681526020016002820160009054906101000a900473ffffffffffffffffffffffffffffffffffffffff1673ffffffffffffffffffffffffffffffffffffffff1673ffffffffffffffffffffffffffffffffffffffff16815260200160038201805461105690612fdd565b80601f016020809104026020016040519081016040528092919081815260200182805461108290612fdd565b80156110cf5780601f106110a4576101008083540402835291602001916110cf565b820191906000526020600020905b8154815290600101906020018083116110b257829003601f168201915b505050505081526020016004820180546110e890612fdd565b80601f016020809104026020016040519081016040528092919081815260200182805461111490612fdd565b80156111615780601f1061113657610100808354040283529160200191611161565b820191906000526020600020905b81548152906001019060200180831161114457829003601f168201915b5050505050815260200160058201805461117a90612fdd565b80601f01602080910402602001604051908101604052809291908181526020018280546111a690612fdd565b80156111f35780601f106111c8576101008083540402835291602001916111f3565b820191906000526020600020905b8154815290600101906020018083116111d657829003601f168201915b5050505050815260200160068201805461120c90612fdd565b80601f016020809104026020016040519081016040528092919081815260200182805461123890612fdd565b80156112855780601f1061125a57610100808354040283529160200191611285565b820191906000526020600020905b81548152906001019060200180831161126857829003601f168201915b5050505050815250508282815181106112a1576112a0613322565b5b60200260200101819052505b80806112b890613380565b915050610f01565b50809250505090565b6000600560008473ffffffffffffffffffffffffffffffffffffffff1673ffffffffffffffffffffffffffffffffffffffff16815260200190815260200160002060008373ffffffffffffffffffffffffffffffffffffffff1673ffffffffffffffffffffffffffffffffffffffff16815260200190815260200160002060009054906101000a900460ff16905092915050565b60007f80ac58cd000000000000000000000000000000000000000000000000000000007bffffffffffffffffffffffffffffffffffffffffffffffffffffffff1916827bffffffffffffffffffffffffffffffffffffffffffffffffffffffff1916148061142857507f5b5e139f000000000000000000000000000000000000000000000000000000007bffffffffffffffffffffffffffffffffffffffffffffffffffffffff1916827bffffffffffffffffffffffffffffffffffffffffffffffffffffffff1916145b80611438575061143782611fde565b5b9050919050565b61144881612048565b611487576040517f08c379a000000000000000000000000000000000000000000000000000000000815260040161147e906132a2565b60405180910390fd5b50565b600033905090565b816004600083815260200190815260200160002060006101000a81548173ffffffffffffffffffffffffffffffffffffffff021916908373ffffffffffffffffffffffffffffffffffffffff160217905550808273ffffffffffffffffffffffffffffffffffffffff1661150583610768565b73ffffffffffffffffffffffffffffffffffffffff167f8c5be1e5ebec7d5bd14f71427d1e84f3dd0314c0f7b2291e5b200ac8c7c3b92560405160405180910390a45050565b60008061155783610768565b90508073ffffffffffffffffffffffffffffffffffffffff168473ffffffffffffffffffffffffffffffffffffffff161480611599575061159881856112c9565b5b806115d757508373ffffffffffffffffffffffffffffffffffffffff166115bf84610485565b73ffffffffffffffffffffffffffffffffffffffff16145b91505092915050565b8273ffffffffffffffffffffffffffffffffffffffff1661160082610768565b73ffffffffffffffffffffffffffffffffffffffff1614611656576040517f08c379a000000000000000000000000000000000000000000000000000000000815260040161164d9061343a565b60405180910390fd5b600073ffffffffffffffffffffffffffffffffffffffff168273ffffffffffffffffffffffffffffffffffffffff16036116c5576040517f08c379a00000000000000000000000000000000000000000000000000000000081526004016116bc906134cc565b60405180910390fd5b6116d28383836001612089565b8273ffffffffffffffffffffffffffffffffffffffff166116f282610768565b73ffffffffffffffffffffffffffffffffffffffff1614611748576040517f08c379a000000000000000000000000000000000000000000000000000000000815260040161173f9061343a565b60405180910390fd5b6004600082815260200190815260200160002060006101000a81549073ffffffffffffffffffffffffffffffffffffffff02191690556001600360008573ffffffffffffffffffffffffffffffffffffffff1673ffffffffffffffffffffffffffffffffffffffff168152602001908152602001600020600082825403925050819055506001600360008473ffffffffffffffffffffffffffffffffffffffff1673ffffffffffffffffffffffffffffffffffffffff16815260200190815260200160002060008282540192505081905550816002600083815260200190815260200160002060006101000a81548173ffffffffffffffffffffffffffffffffffffffff021916908373ffffffffffffffffffffffffffffffffffffffff160217905550808273ffffffffffffffffffffffffffffffffffffffff168473ffffffffffffffffffffffffffffffffffffffff167fddf252ad1be2c89b69c2b068fc378daa952ba7f163c4a11628f55a4df523b3ef60405160405180910390a46118d4838383600161208f565b505050565b60006002600083815260200190815260200160002060009054906101000a900473ffffffffffffffffffffffffffffffffffffffff169050919050565b600081600001549050919050565b600073ffffffffffffffffffffffffffffffffffffffff168273ffffffffffffffffffffffffffffffffffffffff1603611993576040517f08c379a000000000000000000000000000000000000000000000000000000000815260040161198a90613538565b60405180910390fd5b61199c81612048565b156119dc576040517f08c379a00000000000000000000000000000000000000000000000000000000081526004016119d3906135a4565b60405180910390fd5b6119ea600083836001612089565b6119f381612048565b15611a33576040517f08c379a0000000000000000000000000000000000000000000000000000000008152600401611a2a906135a4565b60405180910390fd5b6001600360008473ffffffffffffffffffffffffffffffffffffffff1673ffffffffffffffffffffffffffffffffffffffff16815260200190815260200160002060008282540192505081905550816002600083815260200190815260200160002060006101000a81548173ffffffffffffffffffffffffffffffffffffffff021916908373ffffffffffffffffffffffffffffffffffffffff160217905550808273ffffffffffffffffffffffffffffffffffffffff16600073ffffffffffffffffffffffffffffffffffffffff167fddf252ad1be2c89b69c2b068fc378daa952ba7f163c4a11628f55a4df523b3ef60405160405180910390a4611b3d60008383600161208f565b5050565b611b4a82612048565b611b89576040517f08c379a0000000000000000000000000000000000000000000000000000000008152600401611b8090613636565b60405180910390fd5b80600660008481526020019081526020016000209081611ba99190613802565b507ff8e1a15aba9398e019f0b49df1a4fde98ee17ae345cb5f6b5e2c27f5033e8ce782604051611bd991906128e4565b60405180910390a15050565b846009600087815260200190815260200160002060000181905550336009600087815260200190815260200160002060010160006101000a81548173ffffffffffffffffffffffffffffffffffffffff021916908373ffffffffffffffffffffffffffffffffffffffff160217905550336009600087815260200190815260200160002060020160006101000a81548173ffffffffffffffffffffffffffffffffffffffff021916908373ffffffffffffffffffffffffffffffffffffffff16021790555083600960008781526020019081526020016000206003019081611ccd9190613802565b5082600960008781526020019081526020016000206004019081611cf19190613802565b5081600960008781526020019081526020016000206006019081611d159190613802565b5080600960008781526020019081526020016000206005019081611d399190613802565b50847f2f0c1200aa78ebbc997cbf2fe3f4a77eb29c5cdaa76718d2c7c85b1a010096f43333878786604051611d729594939291906138e3565b60405180910390a25050505050565b6001816000016000828254019250508190555050565b8173ffffffffffffffffffffffffffffffffffffffff168373ffffffffffffffffffffffffffffffffffffffff1603611e05576040517f08c379a0000000000000000000000000000000000000000000000000000000008152600401611dfc90613997565b60405180910390fd5b80600560008573ffffffffffffffffffffffffffffffffffffffff1673ffffffffffffffffffffffffffffffffffffffff16815260200190815260200160002060008473ffffffffffffffffffffffffffffffffffffffff1673ffffffffffffffffffffffffffffffffffffffff16815260200190815260200160002060006101000a81548160ff0219169083151502179055508173ffffffffffffffffffffffffffffffffffffffff168373ffffffffffffffffffffffffffffffffffffffff167f17307eab39ab6107e8899845ad3d59bd9653f200f220920489ca2b5937696c3183604051611ef6919061257d565b60405180910390a3505050565b611f0e8484846115e0565b611f1a84848484612095565b611f59576040517f08c379a0000000000000000000000000000000000000000000000000000000008152600401611f5090613a29565b60405180910390fd5b50505050565b606060405180602001604052806000815250905090565b6060611f818261143f565b6000611f8b611f5f565b90506000815111611fab5760405180602001604052806000815250611fd6565b80611fb58461221c565b604051602001611fc69291906132fe565b6040516020818303038152906040525b915050919050565b60007f01ffc9a7000000000000000000000000000000000000000000000000000000007bffffffffffffffffffffffffffffffffffffffffffffffffffffffff1916827bffffffffffffffffffffffffffffffffffffffffffffffffffffffff1916149050919050565b60008073ffffffffffffffffffffffffffffffffffffffff1661206a836118d9565b73ffffffffffffffffffffffffffffffffffffffff1614159050919050565b50505050565b50505050565b60006120b68473ffffffffffffffffffffffffffffffffffffffff166122ea565b1561220f578373ffffffffffffffffffffffffffffffffffffffff1663150b7a026120df61148a565b8786866040518563ffffffff1660e01b81526004016121019493929190613a9e565b6020604051808303816000875af192505050801561213d57506040513d601f19601f8201168201806040525081019061213a9190613aff565b60015b6121bf573d806000811461216d576040519150601f19603f3d011682016040523d82523d6000602084013e612172565b606091505b5060008151036121b7576040517f08c379a00000000000000000000000000000000000000000000000000000000081526004016121ae90613a29565b60405180910390fd5b805181602001fd5b63150b7a0260e01b7bffffffffffffffffffffffffffffffffffffffffffffffffffffffff1916817bffffffffffffffffffffffffffffffffffffffffffffffffffffffff191614915050612214565b600190505b949350505050565b60606000600161222b8461230d565b01905060008167ffffffffffffffff81111561224a57612249612a47565b5b6040519080825280601f01601f19166020018201604052801561227c5781602001600182028036833780820191505090505b509050600082602001820190505b6001156122df578080600190039150507f3031323334353637383961626364656600000000000000000000000000000000600a86061a8153600a85816122d3576122d2613b2c565b5b0494506000850361228a575b819350505050919050565b6000808273ffffffffffffffffffffffffffffffffffffffff163b119050919050565b600080600090507a184f03e93ff9f4daa797ed6e38ed64bf6a1f010000000000000000831061236b577a184f03e93ff9f4daa797ed6e38ed64bf6a1f010000000000000000838161236157612360613b2c565b5b0492506040810190505b6d04ee2d6d415b85acef810000000083106123a8576d04ee2d6d415b85acef8100000000838161239e5761239d613b2c565b5b0492506020810190505b662386f26fc1000083106123d757662386f26fc1000083816123cd576123cc613b2c565b5b0492506010810190505b6305f5e1008310612400576305f5e10083816123f6576123f5613b2c565b5b0492506008810190505b612710831061242557612710838161241b5761241a613b2c565b5b0492506004810190505b60648310612448576064838161243e5761243d613b2c565b5b0492506002810190505b600a8310612457576001810190505b80915050919050565b6040518060e0016040528060008152602001600073ffffffffffffffffffffffffffffffffffffffff168152602001600073ffffffffffffffffffffffffffffffffffffffff168152602001606081526020016060815260200160608152602001606081525090565b6000604051905090565b600080fd5b600080fd5b60007fffffffff0000000000000000000000000000000000000000000000000000000082169050919050565b612512816124dd565b811461251d57600080fd5b50565b60008135905061252f81612509565b92915050565b60006020828403121561254b5761254a6124d3565b5b600061255984828501612520565b91505092915050565b60008115159050919050565b61257781612562565b82525050565b6000602082019050612592600083018461256e565b92915050565b600081519050919050565b600082825260208201905092915050565b60005b838110156125d25780820151818401526020810190506125b7565b60008484015250505050565b6000601f19601f8301169050919050565b60006125fa82612598565b61260481856125a3565b93506126148185602086016125b4565b61261d816125de565b840191505092915050565b6000602082019050818103600083015261264281846125ef565b905092915050565b6000819050919050565b61265d8161264a565b811461266857600080fd5b50565b60008135905061267a81612654565b92915050565b600060208284031215612696576126956124d3565b5b60006126a48482850161266b565b91505092915050565b600073ffffffffffffffffffffffffffffffffffffffff82169050919050565b60006126d8826126ad565b9050919050565b6126e8816126cd565b82525050565b600060208201905061270360008301846126df565b92915050565b612712816126cd565b811461271d57600080fd5b50565b60008135905061272f81612709565b92915050565b6000806040838503121561274c5761274b6124d3565b5b600061275a85828601612720565b925050602061276b8582860161266b565b9150509250929050565b60008060006060848603121561278e5761278d6124d3565b5b600061279c86828701612720565b93505060206127ad86828701612720565b92505060406127be8682870161266b565b9150509250925092565b6000602082840312156127de576127dd6124d3565b5b60006127ec84828501612720565b91505092915050565b600081519050919050565b600082825260208201905092915050565b6000819050602082019050919050565b61282a8161264a565b82525050565b600061283c8383612821565b60208301905092915050565b6000602082019050919050565b6000612860826127f5565b61286a8185612800565b935061287583612811565b8060005b838110156128a657815161288d8882612830565b975061289883612848565b925050600181019050612879565b5085935050505092915050565b600060208201905081810360008301526128cd8184612855565b905092915050565b6128de8161264a565b82525050565b60006020820190506128f960008301846128d5565b92915050565b600061290a826126ad565b9050919050565b61291a816128ff565b82525050565b600082825260208201905092915050565b600061293c82612598565b6129468185612920565b93506129568185602086016125b4565b61295f816125de565b840191505092915050565b600060e0830160008301516129826000860182612821565b5060208301516129956020860182612911565b5060408301516129a86040860182612911565b50606083015184820360608601526129c08282612931565b915050608083015184820360808601526129da8282612931565b91505060a083015184820360a08601526129f48282612931565b91505060c083015184820360c0860152612a0e8282612931565b9150508091505092915050565b60006020820190508181036000830152612a35818461296a565b905092915050565b600080fd5b600080fd5b7f4e487b7100000000000000000000000000000000000000000000000000000000600052604160045260246000fd5b612a7f826125de565b810181811067ffffffffffffffff82111715612a9e57612a9d612a47565b5b80604052505050565b6000612ab16124c9565b9050612abd8282612a76565b919050565b600067ffffffffffffffff821115612add57612adc612a47565b5b612ae6826125de565b9050602081019050919050565b82818337600083830152505050565b6000612b15612b1084612ac2565b612aa7565b905082815260208101848484011115612b3157612b30612a42565b5b612b3c848285612af3565b509392505050565b600082601f830112612b5957612b58612a3d565b5b8135612b69848260208601612b02565b91505092915050565b60008060008060808587031215612b8c57612b8b6124d3565b5b600085013567ffffffffffffffff811115612baa57612ba96124d8565b5b612bb687828801612b44565b945050602085013567ffffffffffffffff811115612bd757612bd66124d8565b5b612be387828801612b44565b935050604085013567ffffffffffffffff811115612c0457612c036124d8565b5b612c1087828801612b44565b925050606085013567ffffffffffffffff811115612c3157612c306124d8565b5b612c3d87828801612b44565b91505092959194509250565b612c5281612562565b8114612c5d57600080fd5b50565b600081359050612c6f81612c49565b92915050565b60008060408385031215612c8c57612c8b6124d3565b5b6000612c9a85828601612720565b9250506020612cab85828601612c60565b9150509250929050565b600067ffffffffffffffff821115612cd057612ccf612a47565b5b612cd9826125de565b9050602081019050919050565b6000612cf9612cf484612cb5565b612aa7565b905082815260208101848484011115612d1557612d14612a42565b5b612d20848285612af3565b509392505050565b600082601f830112612d3d57612d3c612a3d565b5b8135612d4d848260208601612ce6565b91505092915050565b60008060008060808587031215612d7057612d6f6124d3565b5b6000612d7e87828801612720565b9450506020612d8f87828801612720565b9350506040612da08782880161266b565b925050606085013567ffffffffffffffff811115612dc157612dc06124d8565b5b612dcd87828801612d28565b91505092959194509250565b600081519050919050565b600082825260208201905092915050565b6000819050602082019050919050565b600060e083016000830151612e1d6000860182612821565b506020830151612e306020860182612911565b506040830151612e436040860182612911565b5060608301518482036060860152612e5b8282612931565b91505060808301518482036080860152612e758282612931565b91505060a083015184820360a0860152612e8f8282612931565b91505060c083015184820360c0860152612ea98282612931565b9150508091505092915050565b6000612ec28383612e05565b905092915050565b6000602082019050919050565b6000612ee282612dd9565b612eec8185612de4565b935083602082028501612efe85612df5565b8060005b85811015612f3a5784840389528151612f1b8582612eb6565b9450612f2683612eca565b925060208a01995050600181019050612f02565b50829750879550505050505092915050565b60006020820190508181036000830152612f668184612ed7565b905092915050565b60008060408385031215612f8557612f846124d3565b5b6000612f9385828601612720565b9250506020612fa485828601612720565b9150509250929050565b7f4e487b7100000000000000000000000000000000000000000000000000000000600052602260045260246000fd5b60006002820490506001821680612ff557607f821691505b60208210810361300857613007612fae565b5b50919050565b7f4552433732313a20617070726f76616c20746f2063757272656e74206f776e6560008201527f7200000000000000000000000000000000000000000000000000000000000000602082015250565b600061306a6021836125a3565b91506130758261300e565b604082019050919050565b600060208201905081810360008301526130998161305d565b9050919050565b7f4552433732313a20617070726f76652063616c6c6572206973206e6f7420746f60008201527f6b656e206f776e6572206f7220617070726f76656420666f7220616c6c000000602082015250565b60006130fc603d836125a3565b9150613107826130a0565b604082019050919050565b6000602082019050818103600083015261312b816130ef565b9050919050565b7f4552433732313a2063616c6c6572206973206e6f7420746f6b656e206f776e6560008201527f72206f7220617070726f76656400000000000000000000000000000000000000602082015250565b600061318e602d836125a3565b915061319982613132565b604082019050919050565b600060208201905081810360008301526131bd81613181565b9050919050565b7f4552433732313a2061646472657373207a65726f206973206e6f74206120766160008201527f6c6964206f776e65720000000000000000000000000000000000000000000000602082015250565b60006132206029836125a3565b915061322b826131c4565b604082019050919050565b6000602082019050818103600083015261324f81613213565b9050919050565b7f4552433732313a20696e76616c696420746f6b656e2049440000000000000000600082015250565b600061328c6018836125a3565b915061329782613256565b602082019050919050565b600060208201905081810360008301526132bb8161327f565b9050919050565b600081905092915050565b60006132d882612598565b6132e281856132c2565b93506132f28185602086016125b4565b80840191505092915050565b600061330a82856132cd565b915061331682846132cd565b91508190509392505050565b7f4e487b7100000000000000000000000000000000000000000000000000000000600052603260045260246000fd5b7f4e487b7100000000000000000000000000000000000000000000000000000000600052601160045260246000fd5b600061338b8261264a565b91507fffffffffffffffffffffffffffffffffffffffffffffffffffffffffffffffff82036133bd576133bc613351565b5b600182019050919050565b7f4552433732313a207472616e736665722066726f6d20696e636f72726563742060008201527f6f776e6572000000000000000000000000000000000000000000000000000000602082015250565b60006134246025836125a3565b915061342f826133c8565b604082019050919050565b6000602082019050818103600083015261345381613417565b9050919050565b7f4552433732313a207472616e7366657220746f20746865207a65726f2061646460008201527f7265737300000000000000000000000000000000000000000000000000000000602082015250565b60006134b66024836125a3565b91506134c18261345a565b604082019050919050565b600060208201905081810360008301526134e5816134a9565b9050919050565b7f4552433732313a206d696e7420746f20746865207a65726f2061646472657373600082015250565b60006135226020836125a3565b915061352d826134ec565b602082019050919050565b6000602082019050818103600083015261355181613515565b9050919050565b7f4552433732313a20746f6b656e20616c7265616479206d696e74656400000000600082015250565b600061358e601c836125a3565b915061359982613558565b602082019050919050565b600060208201905081810360008301526135bd81613581565b9050919050565b7f45524337323155524953746f726167653a2055524920736574206f66206e6f6e60008201527f6578697374656e7420746f6b656e000000000000000000000000000000000000602082015250565b6000613620602e836125a3565b915061362b826135c4565b604082019050919050565b6000602082019050818103600083015261364f81613613565b9050919050565b60008190508160005260206000209050919050565b60006020601f8301049050919050565b600082821b905092915050565b6000600883026136b87fffffffffffffffffffffffffffffffffffffffffffffffffffffffffffffffff8261367b565b6136c2868361367b565b95508019841693508086168417925050509392505050565b6000819050919050565b60006136ff6136fa6136f58461264a565b6136da565b61264a565b9050919050565b6000819050919050565b613719836136e4565b61372d61372582613706565b848454613688565b825550505050565b600090565b613742613735565b61374d818484613710565b505050565b5b818110156137715761376660008261373a565b600181019050613753565b5050565b601f8211156137b65761378781613656565b6137908461366b565b8101602085101561379f578190505b6137b36137ab8561366b565b830182613752565b50505b505050565b600082821c905092915050565b60006137d9600019846008026137bb565b1980831691505092915050565b60006137f283836137c8565b9150826002028217905092915050565b61380b82612598565b67ffffffffffffffff81111561382457613823612a47565b5b61382e8254612fdd565b613839828285613775565b600060209050601f83116001811461386c576000841561385a578287015190505b61386485826137e6565b8655506138cc565b601f19841661387a86613656565b60005b828110156138a25784890151825560018201915060208501945060208101905061387d565b868310156138bf57848901516138bb601f8916826137c8565b8355505b6001600288020188555050505b505050505050565b6138dd816128ff565b82525050565b600060a0820190506138f860008301886138d4565b61390560208301876138d4565b818103604083015261391781866125ef565b9050818103606083015261392b81856125ef565b9050818103608083015261393f81846125ef565b90509695505050505050565b7f4552433732313a20617070726f766520746f2063616c6c657200000000000000600082015250565b60006139816019836125a3565b915061398c8261394b565b602082019050919050565b600060208201905081810360008301526139b081613974565b9050919050565b7f4552433732313a207472616e7366657220746f206e6f6e20455243373231526560008201527f63656976657220696d706c656d656e7465720000000000000000000000000000602082015250565b6000613a136032836125a3565b9150613a1e826139b7565b604082019050919050565b60006020820190508181036000830152613a4281613a06565b9050919050565b600081519050919050565b600082825260208201905092915050565b6000613a7082613a49565b613a7a8185613a54565b9350613a8a8185602086016125b4565b613a93816125de565b840191505092915050565b6000608082019050613ab360008301876126df565b613ac060208301866126df565b613acd60408301856128d5565b8181036060830152613adf8184613a65565b905095945050505050565b600081519050613af981612509565b92915050565b600060208284031215613b1557613b146124d3565b5b6000613b2384828501613aea565b91505092915050565b7f4e487b7100000000000000000000000000000000000000000000000000000000600052601260045260246000fdfea264697066735822122003cf7f5f30b4c73c6acb42b9a964880d1cc819855e18612a2d3ff10ccb1dfc5664736f6c63430008130033",
  "immutableReferences": {},
  "source": "// contracts/MyNFT.sol\r\n// SPDX-License-Identifier: MIT\r\npragma solidity ^0.8.0;\r\n\r\nimport \"@openzeppelin/contracts/token/ERC721/ERC721.sol\";\r\nimport \"@openzeppelin/contracts/utils/Counters.sol\";\r\nimport \"@openzeppelin/contracts/access/Ownable.sol\";\r\nimport \"@openzeppelin/contracts/token/ERC721/extensions/ERC721URIStorage.sol\";\r\nimport \"./openzeppelin/ERC721EnumerableModify.sol\";\r\n// import \"@openzeppelin/contracts/token/ERC721/extensions/ERC721Enumerable.sol\";\r\n\r\ncontract MyNFT is ERC721URIStorage {\r\n    using Counters for Counters.Counter;\r\n    Counters.Counter private tokenIds;\r\n    Counters.Counter private userIds;\r\n\r\n\r\n    struct nftStruct {\r\n        uint256 tokenId;\r\n        address payable seller;\r\n        address payable owner;\r\n        string title;\r\n        string description;\r\n        string image;\r\n        string tokenUri;\r\n    }\r\n\r\n    mapping(uint256 => nftStruct) private nfts;\r\n    mapping(address => uint256 []) private nftOwners;\r\n\r\n    event NftStructCreated(\r\n        uint256 indexed tokenId,\r\n        address payable seller,\r\n        address payable owner,\r\n        string title,\r\n        string description,\r\n        string image\r\n    );\r\n\r\n    constructor() ERC721(\"NFT MINTO\", \"MINTO's NFT collection\") {\r\n        tokenIds.increment();\r\n        userIds.increment();\r\n    }\r\n    \r\n\r\n    function setNft(\r\n        uint256 _tokenId,\r\n        string memory _title,\r\n        string memory _description,\r\n        string memory _tokenURI,\r\n        string memory _image\r\n    ) private {\r\n\r\n        nfts[_tokenId].tokenId = _tokenId;\r\n        nfts[_tokenId].seller = payable(msg.sender);\r\n        nfts[_tokenId].owner = payable(msg.sender);\r\n        nfts[_tokenId].title = _title;\r\n        nfts[_tokenId].description = _description;\r\n        nfts[_tokenId].tokenUri = _tokenURI;\r\n        nfts[_tokenId].image = _image;\r\n\r\n        emit NftStructCreated(\r\n            _tokenId,\r\n            payable(msg.sender),\r\n            payable(msg.sender),\r\n            _title,\r\n            _description,\r\n            _image\r\n        );\r\n    }\r\n    /// @dev this function mints received NFTs\r\n    /// @param _tokenURI the new token URI for the magazine cover\r\n    /// @param _title the name of the magazine cover\r\n    /// @param _description detailed information on the magazine NFT\r\n    /// @param _image image\r\n    // /// @return tokenId of the created NFT\r\n    function createNft(\r\n        string memory _tokenURI,\r\n        string memory _title,\r\n        string memory _description,\r\n        string memory _image\r\n    ) public  {\r\n        \r\n        uint256 newTokenId = tokenIds.current();\r\n        _mint(msg.sender, newTokenId);\r\n        _setTokenURI(newTokenId, _tokenURI);\r\n        nftOwners[msg.sender].push(newTokenId);\r\n        setNft(newTokenId, _title, _description, _tokenURI, _image);\r\n        tokenIds.increment();\r\n    }\r\n\r\n    /// @dev this function mints received NFTs\r\n    /// @param _tokenURI the new token URI for the magazine cover\r\n    /// @param _title the name of the magazine cover\r\n    /// @param _description detailed information on the magazine NFT\r\n    /// @param _to set address _to \r\n    // /// @return tokenId of the created NFT\r\n\r\n\r\n    /// @dev sell a magazine subscription to the public so that's visible to the nft marketplace\r\n    /// @param _tokenId the TokenID od the Nft Magazine\r\n    // /// @param _price the price for the magazine subscription\r\n    // /// @return total number of available nft subscriptions\r\n    // function sellSubscription(\r\n    //     uint256 _tokenId\r\n    // ) public payable returns (uint256) {\r\n    //     require(\r\n    //         _isApprovedOrOwner(msg.sender, _tokenId),\r\n    //         \"Only NFT owner can perform this\"\r\n    //     );\r\n    //     _transfer(msg.sender, address(this), _tokenId);\r\n    //     nfts[_tokenId].price = msg.value / (1 ether);\r\n    //     nfts[_tokenId].owner = payable(address(this));\r\n    //     //_expirations[_tokenId] = duration;\r\n    //     nftsAvailableForSale.increment();\r\n    //     return nftsAvailableForSale.current();\r\n    // }\r\n\r\n    /// @dev buy a magazine subscription from the marketplace\r\n    /// @param _tokenId the Token ID of the NFT Magazine\r\n    /// @return true\r\n    // function buySubscription(uint256 _tokenId) public payable returns (bool) {\r\n    //     // uint256 price = nfts[_tokenId].price;\r\n    //     // require(\r\n    //     //     msg.value == price,\r\n    //     //     \"Please send the asking price in order to complete the purchase\"\r\n    //     // );\r\n\r\n    //     payable(nfts[_tokenId].seller).transfer(msg.value);\r\n    //     nfts[_tokenId].subscribers.push(msg.sender);\r\n    //     return true;\r\n    // }\r\n\r\n    /// @dev fetch available NFTs on sale that will be displayed on the marketplace\r\n    /// return nftStruct[] list of nfts with their metadata\r\n    // function getSubscriptions() public view returns (nftStruct[] memory) {\r\n    //     uint256 nftCount = tokenIds.current();\r\n    //     nftStruct[] memory nftSubs = new nftStruct[](nftCount);\r\n    //     for (uint256 i = 1; i < nftCount; i++) {\r\n    //         if (nfts[i].owner == address(this)) {\r\n    //             nftSubs[i] = nfts[i];\r\n    //         }\r\n    //     }\r\n    //     return nftSubs;\r\n    // }\r\n\r\n    /// @dev fetches NFT magazines that a specific user is already subscribed to\r\n    /// return nftStruct[] list of the nfts collected by a user with their metadata\r\n    // function getCollectables() public view returns (nftStruct[] memory) {\r\n    //     uint256 nftCount = tokenIds.current();\r\n    //     nftStruct[] memory nftSubs = new nftStruct[](nftCount);\r\n\r\n    //     for (uint256 i = 1; i < nftCount; i++) {\r\n    //         uint256 subscribers = nfts[i].subscribers.length;\r\n    //         for (uint256 j = 0; j < subscribers; j++) {\r\n    //             if (nfts[i].subscribers[j] == msg.sender) {\r\n    //                 nftSubs[i] = nfts[i];\r\n    //             }\r\n    //         }\r\n    //     }\r\n\r\n    //     return nftSubs;\r\n    // }\r\n\r\n    /// @dev fetches NFT magazines that a specific user has created\r\n    /// @return nftStruct[] list of nfts created by a user with their metadata\r\n    function getNfts() public view returns (nftStruct[] memory) {\r\n        uint256 nftCount = tokenIds.current();\r\n        nftStruct[] memory nftSubs = new nftStruct[](nftCount);\r\n        for (uint256 i = 1; i < nftCount; i++) {\r\n            if (nfts[i].seller == payable(msg.sender)) {\r\n                nftSubs[i] = nfts[i];\r\n            }\r\n        }\r\n\r\n        return nftSubs;\r\n    }\r\n\r\n    /// @dev fetches details of a particular NFT magazine subscription\r\n    /// @param _tokenId The token ID of the NFT Magazine\r\n    /// @return nftStruct NFT data of the specific token ID\r\n    function getIndividualNFT (\r\n        uint256 _tokenId\r\n    ) public view returns (nftStruct memory) {\r\n        return nfts[_tokenId];\r\n    }\r\n\r\n    function getNftsByAddress (address owner) public view returns(uint256[] memory){\r\n        require(owner != address(0), \"ERC721: address zero is not a valid owner\");\r\n        return nftOwners[owner];\r\n    }\r\n\r\n    // /// @dev increments number of likes for a NFT Magazine by 1\r\n    // /// @param _tokenId the Token ID of the NFT Magazine\r\n    // function likeSubscription(uint256 _tokenId) public {\r\n    //     nfts[_tokenId].likes += 1;\r\n    // }\r\n\r\n    // /// @dev decrement number of likes for a NFT Magazine by 1\r\n    // /// @param _tokenId the Token ID of the NFT Magazine\r\n    // function unlikeSubscription(uint256 _tokenId) public {\r\n    //     nfts[_tokenId].likes -= 1;\r\n    // }\r\n\r\n    \r\n}",
  "sourcePath": "C:\\Projects\\minto-nft\\contracts\\MyNFT.sol",
  "compiler": {
    "name": "solc",
    "version": "0.8.19+commit.7dd6d404.Emscripten.clang"
  },
  "schemaVersion": "3.4.16",
  "updatedAt": "2024-03-14T04:50:37.924Z",
  "networkType": "ethereum",
  "devdoc": {
    "events": {
      "Approval(address,address,uint256)": {
        "details": "Emitted when `owner` enables `approved` to manage the `tokenId` token."
      },
      "ApprovalForAll(address,address,bool)": {
        "details": "Emitted when `owner` enables or disables (`approved`) `operator` to manage all of its assets."
      },
      "BatchMetadataUpdate(uint256,uint256)": {
        "details": "This event emits when the metadata of a range of tokens is changed. So that the third-party platforms such as NFT market could timely update the images and related attributes of the NFTs."
      },
      "MetadataUpdate(uint256)": {
        "details": "This event emits when the metadata of a token is changed. So that the third-party platforms such as NFT market could timely update the images and related attributes of the NFT."
      },
      "Transfer(address,address,uint256)": {
        "details": "Emitted when `tokenId` token is transferred from `from` to `to`."
      }
    },
    "kind": "dev",
    "methods": {
      "approve(address,uint256)": {
        "details": "See {IERC721-approve}."
      },
      "balanceOf(address)": {
        "details": "See {IERC721-balanceOf}."
      },
      "createNft(string,string,string,string)": {
        "details": "this function mints received NFTs",
        "params": {
          "_description": "detailed information on the magazine NFT",
          "_image": "image",
          "_title": "the name of the magazine cover",
          "_tokenURI": "the new token URI for the magazine cover"
        }
      },
      "getApproved(uint256)": {
        "details": "See {IERC721-getApproved}."
      },
      "getIndividualNFT(uint256)": {
        "details": "fetches details of a particular NFT magazine subscription",
        "params": {
          "_tokenId": "The token ID of the NFT Magazine"
        },
        "returns": {
          "_0": "nftStruct NFT data of the specific token ID"
        }
      },
      "getNfts()": {
        "details": "fetches NFT magazines that a specific user has created",
        "returns": {
          "_0": "nftStruct[] list of nfts created by a user with their metadata"
        }
      },
      "isApprovedForAll(address,address)": {
        "details": "See {IERC721-isApprovedForAll}."
      },
      "name()": {
        "details": "See {IERC721Metadata-name}."
      },
      "ownerOf(uint256)": {
        "details": "See {IERC721-ownerOf}."
      },
      "safeTransferFrom(address,address,uint256)": {
        "details": "See {IERC721-safeTransferFrom}."
      },
      "safeTransferFrom(address,address,uint256,bytes)": {
        "details": "See {IERC721-safeTransferFrom}."
      },
      "setApprovalForAll(address,bool)": {
        "details": "See {IERC721-setApprovalForAll}."
      },
      "supportsInterface(bytes4)": {
        "details": "See {IERC165-supportsInterface}"
      },
      "symbol()": {
        "details": "See {IERC721Metadata-symbol}."
      },
      "tokenURI(uint256)": {
        "details": "See {IERC721Metadata-tokenURI}."
      },
      "transferFrom(address,address,uint256)": {
        "details": "See {IERC721-transferFrom}."
      }
    },
    "version": 1
  },
  "userdoc": {
    "kind": "user",
    "methods": {},
    "version": 1
  }
}