{
  "contractName": "MyNFT",
  "abi": [
    {
      "inputs": [],
      "stateMutability": "nonpayable",
      "type": "constructor"
    },
    {
      "anonymous": false,
      "inputs": [
        {
          "indexed": true,
          "internalType": "address",
          "name": "owner",
          "type": "address"
        },
        {
          "indexed": true,
          "internalType": "address",
          "name": "approved",
          "type": "address"
        },
        {
          "indexed": true,
          "internalType": "uint256",
          "name": "tokenId",
          "type": "uint256"
        }
      ],
      "name": "Approval",
      "type": "event"
    },
    {
      "anonymous": false,
      "inputs": [
        {
          "indexed": true,
          "internalType": "address",
          "name": "owner",
          "type": "address"
        },
        {
          "indexed": true,
          "internalType": "address",
          "name": "operator",
          "type": "address"
        },
        {
          "indexed": false,
          "internalType": "bool",
          "name": "approved",
          "type": "bool"
        }
      ],
      "name": "ApprovalForAll",
      "type": "event"
    },
    {
      "anonymous": false,
      "inputs": [
        {
          "indexed": false,
          "internalType": "uint256",
          "name": "_fromTokenId",
          "type": "uint256"
        },
        {
          "indexed": false,
          "internalType": "uint256",
          "name": "_toTokenId",
          "type": "uint256"
        }
      ],
      "name": "BatchMetadataUpdate",
      "type": "event"
    },
    {
      "anonymous": false,
      "inputs": [
        {
          "indexed": false,
          "internalType": "uint256",
          "name": "_tokenId",
          "type": "uint256"
        }
      ],
      "name": "MetadataUpdate",
      "type": "event"
    },
    {
      "anonymous": false,
      "inputs": [
        {
          "indexed": true,
          "internalType": "uint256",
          "name": "tokenId",
          "type": "uint256"
        },
        {
          "indexed": false,
          "internalType": "address payable",
          "name": "seller",
          "type": "address"
        },
        {
          "indexed": false,
          "internalType": "address payable",
          "name": "owner",
          "type": "address"
        },
        {
          "indexed": false,
          "internalType": "string",
          "name": "title",
          "type": "string"
        },
        {
          "indexed": false,
          "internalType": "string",
          "name": "description",
          "type": "string"
        },
        {
          "indexed": false,
          "internalType": "string",
          "name": "image",
          "type": "string"
        }
      ],
      "name": "NftStructCreated",
      "type": "event"
    },
    {
      "anonymous": false,
      "inputs": [
        {
          "indexed": true,
          "internalType": "address",
          "name": "from",
          "type": "address"
        },
        {
          "indexed": true,
          "internalType": "address",
          "name": "to",
          "type": "address"
        },
        {
          "indexed": true,
          "internalType": "uint256",
          "name": "tokenId",
          "type": "uint256"
        }
      ],
      "name": "Transfer",
      "type": "event"
    },
    {
      "inputs": [
        {
          "internalType": "address",
          "name": "to",
          "type": "address"
        },
        {
          "internalType": "uint256",
          "name": "tokenId",
          "type": "uint256"
        }
      ],
      "name": "approve",
      "outputs": [],
      "stateMutability": "nonpayable",
      "type": "function"
    },
    {
      "inputs": [
        {
          "internalType": "address",
          "name": "owner",
          "type": "address"
        }
      ],
      "name": "balanceOf",
      "outputs": [
        {
          "internalType": "uint256",
          "name": "",
          "type": "uint256"
        }
      ],
      "stateMutability": "view",
      "type": "function",
      "constant": true
    },
    {
      "inputs": [
        {
          "internalType": "uint256",
          "name": "tokenId",
          "type": "uint256"
        }
      ],
      "name": "getApproved",
      "outputs": [
        {
          "internalType": "address",
          "name": "",
          "type": "address"
        }
      ],
      "stateMutability": "view",
      "type": "function",
      "constant": true
    },
    {
      "inputs": [
        {
          "internalType": "address",
          "name": "owner",
          "type": "address"
        },
        {
          "internalType": "address",
          "name": "operator",
          "type": "address"
        }
      ],
      "name": "isApprovedForAll",
      "outputs": [
        {
          "internalType": "bool",
          "name": "",
          "type": "bool"
        }
      ],
      "stateMutability": "view",
      "type": "function",
      "constant": true
    },
    {
      "inputs": [],
      "name": "name",
      "outputs": [
        {
          "internalType": "string",
          "name": "",
          "type": "string"
        }
      ],
      "stateMutability": "view",
      "type": "function",
      "constant": true
    },
    {
      "inputs": [
        {
          "internalType": "uint256",
          "name": "tokenId",
          "type": "uint256"
        }
      ],
      "name": "ownerOf",
      "outputs": [
        {
          "internalType": "address",
          "name": "",
          "type": "address"
        }
      ],
      "stateMutability": "view",
      "type": "function",
      "constant": true
    },
    {
      "inputs": [
        {
          "internalType": "address",
          "name": "from",
          "type": "address"
        },
        {
          "internalType": "address",
          "name": "to",
          "type": "address"
        },
        {
          "internalType": "uint256",
          "name": "tokenId",
          "type": "uint256"
        }
      ],
      "name": "safeTransferFrom",
      "outputs": [],
      "stateMutability": "nonpayable",
      "type": "function"
    },
    {
      "inputs": [
        {
          "internalType": "address",
          "name": "from",
          "type": "address"
        },
        {
          "internalType": "address",
          "name": "to",
          "type": "address"
        },
        {
          "internalType": "uint256",
          "name": "tokenId",
          "type": "uint256"
        },
        {
          "internalType": "bytes",
          "name": "data",
          "type": "bytes"
        }
      ],
      "name": "safeTransferFrom",
      "outputs": [],
      "stateMutability": "nonpayable",
      "type": "function"
    },
    {
      "inputs": [
        {
          "internalType": "address",
          "name": "operator",
          "type": "address"
        },
        {
          "internalType": "bool",
          "name": "approved",
          "type": "bool"
        }
      ],
      "name": "setApprovalForAll",
      "outputs": [],
      "stateMutability": "nonpayable",
      "type": "function"
    },
    {
      "inputs": [
        {
          "internalType": "bytes4",
          "name": "interfaceId",
          "type": "bytes4"
        }
      ],
      "name": "supportsInterface",
      "outputs": [
        {
          "internalType": "bool",
          "name": "",
          "type": "bool"
        }
      ],
      "stateMutability": "view",
      "type": "function",
      "constant": true
    },
    {
      "inputs": [],
      "name": "symbol",
      "outputs": [
        {
          "internalType": "string",
          "name": "",
          "type": "string"
        }
      ],
      "stateMutability": "view",
      "type": "function",
      "constant": true
    },
    {
      "inputs": [
        {
          "internalType": "uint256",
          "name": "tokenId",
          "type": "uint256"
        }
      ],
      "name": "tokenURI",
      "outputs": [
        {
          "internalType": "string",
          "name": "",
          "type": "string"
        }
      ],
      "stateMutability": "view",
      "type": "function",
      "constant": true
    },
    {
      "inputs": [
        {
          "internalType": "address",
          "name": "from",
          "type": "address"
        },
        {
          "internalType": "address",
          "name": "to",
          "type": "address"
        },
        {
          "internalType": "uint256",
          "name": "tokenId",
          "type": "uint256"
        }
      ],
      "name": "transferFrom",
      "outputs": [],
      "stateMutability": "nonpayable",
      "type": "function"
    },
    {
      "inputs": [
        {
          "internalType": "string",
          "name": "_tokenURI",
          "type": "string"
        },
        {
          "internalType": "string",
          "name": "_title",
          "type": "string"
        },
        {
          "internalType": "string",
          "name": "_description",
          "type": "string"
        },
        {
          "internalType": "string",
          "name": "_image",
          "type": "string"
        }
      ],
      "name": "createNft",
      "outputs": [],
      "stateMutability": "nonpayable",
      "type": "function"
    },
    {
      "inputs": [],
      "name": "getNfts",
      "outputs": [
        {
          "components": [
            {
              "internalType": "uint256",
              "name": "tokenId",
              "type": "uint256"
            },
            {
              "internalType": "address payable",
              "name": "seller",
              "type": "address"
            },
            {
              "internalType": "address payable",
              "name": "owner",
              "type": "address"
            },
            {
              "internalType": "uint256",
              "name": "price",
              "type": "uint256"
            },
            {
              "internalType": "string",
              "name": "title",
              "type": "string"
            },
            {
              "internalType": "string",
              "name": "description",
              "type": "string"
            },
            {
              "internalType": "string",
              "name": "image",
              "type": "string"
            },
            {
              "internalType": "string",
              "name": "tokenUri",
              "type": "string"
            }
          ],
          "internalType": "struct MyNFT.nftStruct[]",
          "name": "",
          "type": "tuple[]"
        }
      ],
      "stateMutability": "view",
      "type": "function",
      "constant": true
    },
    {
      "inputs": [
        {
          "internalType": "uint256",
          "name": "_tokenId",
          "type": "uint256"
        }
      ],
      "name": "getIndividualNFT",
      "outputs": [
        {
          "components": [
            {
              "internalType": "uint256",
              "name": "tokenId",
              "type": "uint256"
            },
            {
              "internalType": "address payable",
              "name": "seller",
              "type": "address"
            },
            {
              "internalType": "address payable",
              "name": "owner",
              "type": "address"
            },
            {
              "internalType": "uint256",
              "name": "price",
              "type": "uint256"
            },
            {
              "internalType": "string",
              "name": "title",
              "type": "string"
            },
            {
              "internalType": "string",
              "name": "description",
              "type": "string"
            },
            {
              "internalType": "string",
              "name": "image",
              "type": "string"
            },
            {
              "internalType": "string",
              "name": "tokenUri",
              "type": "string"
            }
          ],
          "internalType": "struct MyNFT.nftStruct",
          "name": "",
          "type": "tuple"
        }
      ],
      "stateMutability": "view",
      "type": "function",
      "constant": true
    },
    {
      "inputs": [
        {
          "internalType": "address",
          "name": "owner",
          "type": "address"
        }
      ],
      "name": "getNftsByAddress",
      "outputs": [
        {
          "internalType": "uint256[]",
          "name": "",
          "type": "uint256[]"
        }
      ],
      "stateMutability": "view",
      "type": "function",
      "constant": true
    }
  ],
  "bytecode": "0x60806040523480156200001157600080fd5b506040518060400160405280600981526020017f4e4654204d494e544f00000000000000000000000000000000000000000000008152506040518060400160405280601681526020017f4d494e544f2773204e465420636f6c6c656374696f6e0000000000000000000081525081600090816200008f91906200035e565b508060019081620000a191906200035e565b505050620000b66007620000ce60201b60201c565b620000c86008620000ce60201b60201c565b62000445565b6001816000016000828254019250508190555050565b600081519050919050565b7f4e487b7100000000000000000000000000000000000000000000000000000000600052604160045260246000fd5b7f4e487b7100000000000000000000000000000000000000000000000000000000600052602260045260246000fd5b600060028204905060018216806200016657607f821691505b6020821081036200017c576200017b6200011e565b5b50919050565b60008190508160005260206000209050919050565b60006020601f8301049050919050565b600082821b905092915050565b600060088302620001e67fffffffffffffffffffffffffffffffffffffffffffffffffffffffffffffffff82620001a7565b620001f28683620001a7565b95508019841693508086168417925050509392505050565b6000819050919050565b6000819050919050565b60006200023f6200023962000233846200020a565b62000214565b6200020a565b9050919050565b6000819050919050565b6200025b836200021e565b620002736200026a8262000246565b848454620001b4565b825550505050565b600090565b6200028a6200027b565b6200029781848462000250565b505050565b5b81811015620002bf57620002b360008262000280565b6001810190506200029d565b5050565b601f8211156200030e57620002d88162000182565b620002e38462000197565b81016020851015620002f3578190505b6200030b620003028562000197565b8301826200029c565b50505b505050565b600082821c905092915050565b6000620003336000198460080262000313565b1980831691505092915050565b60006200034e838362000320565b9150826002028217905092915050565b6200036982620000e4565b67ffffffffffffffff811115620003855762000384620000ef565b5b6200039182546200014d565b6200039e828285620002c3565b600060209050601f831160018114620003d65760008415620003c1578287015190505b620003cd858262000340565b8655506200043d565b601f198416620003e68662000182565b60005b828110156200041057848901518255600182019150602085019450602081019050620003e9565b868310156200043057848901516200042c601f89168262000320565b8355505b6001600288020188555050505b505050505050565b613bd780620004556000396000f3fe608060405234801561001057600080fd5b506004361061010b5760003560e01c806370a08231116100a2578063a22cb46511610071578063a22cb465146102dc578063b88d4fde146102f8578063c87b56dd14610314578063d8cb55e314610344578063e985e9c5146103625761010b565b806370a082311461024257806376856319146102725780638a566fa8146102a257806395d89b41146102be5761010b565b806323b872dd116100de57806323b872dd146101aa5780633a66dd36146101c657806342842e0e146101f65780636352211e146102125761010b565b806301ffc9a71461011057806306fdde0314610140578063081812fc1461015e578063095ea7b31461018e575b600080fd5b61012a60048036038101906101259190612553565b610392565b604051610137919061259b565b60405180910390f35b6101486103f3565b6040516101559190612646565b60405180910390f35b6101786004803603810190610173919061269e565b610485565b604051610185919061270c565b60405180910390f35b6101a860048036038101906101a39190612753565b6104cb565b005b6101c460048036038101906101bf9190612793565b6105e2565b005b6101e060048036038101906101db91906127e6565b610642565b6040516101ed91906128d1565b60405180910390f35b610210600480360381019061020b9190612793565b610748565b005b61022c6004803603810190610227919061269e565b610768565b604051610239919061270c565b60405180910390f35b61025c600480360381019061025791906127e6565b6107ee565b6040516102699190612902565b60405180910390f35b61028c6004803603810190610287919061269e565b6108a5565b6040516102999190612a4d565b60405180910390f35b6102bc60048036038101906102b79190612ba4565b610bdb565b005b6102c6610c81565b6040516102d39190612646565b60405180910390f35b6102f660048036038101906102f19190612ca7565b610d13565b005b610312600480360381019061030d9190612d88565b610d29565b005b61032e6004803603810190610329919061269e565b610d8b565b60405161033b9190612646565b60405180910390f35b61034c610e9d565b6040516103599190612f92565b60405180910390f35b61037c60048036038101906103779190612fb4565b6112df565b604051610389919061259b565b60405180910390f35b6000634906490660e01b7bffffffffffffffffffffffffffffffffffffffffffffffffffffffff1916827bffffffffffffffffffffffffffffffffffffffffffffffffffffffff191614806103ec57506103eb82611373565b5b9050919050565b60606000805461040290613023565b80601f016020809104026020016040519081016040528092919081815260200182805461042e90613023565b801561047b5780601f106104505761010080835404028352916020019161047b565b820191906000526020600020905b81548152906001019060200180831161045e57829003601f168201915b5050505050905090565b600061049082611455565b6004600083815260200190815260200160002060009054906101000a900473ffffffffffffffffffffffffffffffffffffffff169050919050565b60006104d682610768565b90508073ffffffffffffffffffffffffffffffffffffffff168373ffffffffffffffffffffffffffffffffffffffff1603610546576040517f08c379a000000000000000000000000000000000000000000000000000000000815260040161053d906130c6565b60405180910390fd5b8073ffffffffffffffffffffffffffffffffffffffff166105656114a0565b73ffffffffffffffffffffffffffffffffffffffff16148061059457506105938161058e6114a0565b6112df565b5b6105d3576040517f08c379a00000000000000000000000000000000000000000000000000000000081526004016105ca90613158565b60405180910390fd5b6105dd83836114a8565b505050565b6105f36105ed6114a0565b82611561565b610632576040517f08c379a0000000000000000000000000000000000000000000000000000000008152600401610629906131ea565b60405180910390fd5b61063d8383836115f6565b505050565b6060600073ffffffffffffffffffffffffffffffffffffffff168273ffffffffffffffffffffffffffffffffffffffff16036106b3576040517f08c379a00000000000000000000000000000000000000000000000000000000081526004016106aa9061327c565b60405180910390fd5b600a60008373ffffffffffffffffffffffffffffffffffffffff1673ffffffffffffffffffffffffffffffffffffffff16815260200190815260200160002080548060200260200160405190810160405280929190818152602001828054801561073c57602002820191906000526020600020905b815481526020019060010190808311610728575b50505050509050919050565b61076383838360405180602001604052806000815250610d29565b505050565b600080610774836118ef565b9050600073ffffffffffffffffffffffffffffffffffffffff168173ffffffffffffffffffffffffffffffffffffffff16036107e5576040517f08c379a00000000000000000000000000000000000000000000000000000000081526004016107dc906132e8565b60405180910390fd5b80915050919050565b60008073ffffffffffffffffffffffffffffffffffffffff168273ffffffffffffffffffffffffffffffffffffffff160361085e576040517f08c379a00000000000000000000000000000000000000000000000000000000081526004016108559061327c565b60405180910390fd5b600360008373ffffffffffffffffffffffffffffffffffffffff1673ffffffffffffffffffffffffffffffffffffffff168152602001908152602001600020549050919050565b6108ad612476565b6009600083815260200190815260200160002060405180610100016040529081600082015481526020016001820160009054906101000a900473ffffffffffffffffffffffffffffffffffffffff1673ffffffffffffffffffffffffffffffffffffffff1673ffffffffffffffffffffffffffffffffffffffff1681526020016002820160009054906101000a900473ffffffffffffffffffffffffffffffffffffffff1673ffffffffffffffffffffffffffffffffffffffff1673ffffffffffffffffffffffffffffffffffffffff1681526020016003820154815260200160048201805461099c90613023565b80601f01602080910402602001604051908101604052809291908181526020018280546109c890613023565b8015610a155780601f106109ea57610100808354040283529160200191610a15565b820191906000526020600020905b8154815290600101906020018083116109f857829003601f168201915b50505050508152602001600582018054610a2e90613023565b80601f0160208091040260200160405190810160405280929190818152602001828054610a5a90613023565b8015610aa75780601f10610a7c57610100808354040283529160200191610aa7565b820191906000526020600020905b815481529060010190602001808311610a8a57829003601f168201915b50505050508152602001600682018054610ac090613023565b80601f0160208091040260200160405190810160405280929190818152602001828054610aec90613023565b8015610b395780601f10610b0e57610100808354040283529160200191610b39565b820191906000526020600020905b815481529060010190602001808311610b1c57829003601f168201915b50505050508152602001600782018054610b5290613023565b80601f0160208091040260200160405190810160405280929190818152602001828054610b7e90613023565b8015610bcb5780601f10610ba057610100808354040283529160200191610bcb565b820191906000526020600020905b815481529060010190602001808311610bae57829003601f168201915b5050505050815250509050919050565b6000610be7600761192c565b9050610bf3338261193a565b610bfd8186611b57565b600a60003373ffffffffffffffffffffffffffffffffffffffff1673ffffffffffffffffffffffffffffffffffffffff168152602001908152602001600020819080600181540180825580915050600190039060005260206000200160009091909190915055610c708185858886611bfb565b610c7a6007611d97565b5050505050565b606060018054610c9090613023565b80601f0160208091040260200160405190810160405280929190818152602001828054610cbc90613023565b8015610d095780601f10610cde57610100808354040283529160200191610d09565b820191906000526020600020905b815481529060010190602001808311610cec57829003601f168201915b5050505050905090565b610d25610d1e6114a0565b8383611dad565b5050565b610d3a610d346114a0565b83611561565b610d79576040517f08c379a0000000000000000000000000000000000000000000000000000000008152600401610d70906131ea565b60405180910390fd5b610d8584848484611f19565b50505050565b6060610d9682611455565b6000600660008481526020019081526020016000208054610db690613023565b80601f0160208091040260200160405190810160405280929190818152602001828054610de290613023565b8015610e2f5780601f10610e0457610100808354040283529160200191610e2f565b820191906000526020600020905b815481529060010190602001808311610e1257829003601f168201915b505050505090506000610e40611f75565b90506000815103610e55578192505050610e98565b600082511115610e8a578082604051602001610e72929190613344565b60405160208183030381529060405292505050610e98565b610e9384611f8c565b925050505b919050565b60606000610eab600761192c565b905060008167ffffffffffffffff811115610ec957610ec8612a79565b5b604051908082528060200260200182016040528015610f0257816020015b610eef612476565b815260200190600190039081610ee75790505b5090506000600190505b828110156112d6573373ffffffffffffffffffffffffffffffffffffffff166009600083815260200190815260200160002060010160009054906101000a900473ffffffffffffffffffffffffffffffffffffffff1673ffffffffffffffffffffffffffffffffffffffff16036112c3576009600082815260200190815260200160002060405180610100016040529081600082015481526020016001820160009054906101000a900473ffffffffffffffffffffffffffffffffffffffff1673ffffffffffffffffffffffffffffffffffffffff1673ffffffffffffffffffffffffffffffffffffffff1681526020016002820160009054906101000a900473ffffffffffffffffffffffffffffffffffffffff1673ffffffffffffffffffffffffffffffffffffffff1673ffffffffffffffffffffffffffffffffffffffff1681526020016003820154815260200160048201805461106c90613023565b80601f016020809104026020016040519081016040528092919081815260200182805461109890613023565b80156110e55780601f106110ba576101008083540402835291602001916110e5565b820191906000526020600020905b8154815290600101906020018083116110c857829003601f168201915b505050505081526020016005820180546110fe90613023565b80601f016020809104026020016040519081016040528092919081815260200182805461112a90613023565b80156111775780601f1061114c57610100808354040283529160200191611177565b820191906000526020600020905b81548152906001019060200180831161115a57829003601f168201915b5050505050815260200160068201805461119090613023565b80601f01602080910402602001604051908101604052809291908181526020018280546111bc90613023565b80156112095780601f106111de57610100808354040283529160200191611209565b820191906000526020600020905b8154815290600101906020018083116111ec57829003601f168201915b5050505050815260200160078201805461122290613023565b80601f016020809104026020016040519081016040528092919081815260200182805461124e90613023565b801561129b5780601f106112705761010080835404028352916020019161129b565b820191906000526020600020905b81548152906001019060200180831161127e57829003601f168201915b5050505050815250508282815181106112b7576112b6613368565b5b60200260200101819052505b80806112ce906133c6565b915050610f0c565b50809250505090565b6000600560008473ffffffffffffffffffffffffffffffffffffffff1673ffffffffffffffffffffffffffffffffffffffff16815260200190815260200160002060008373ffffffffffffffffffffffffffffffffffffffff1673ffffffffffffffffffffffffffffffffffffffff16815260200190815260200160002060009054906101000a900460ff16905092915050565b60007f80ac58cd000000000000000000000000000000000000000000000000000000007bffffffffffffffffffffffffffffffffffffffffffffffffffffffff1916827bffffffffffffffffffffffffffffffffffffffffffffffffffffffff1916148061143e57507f5b5e139f000000000000000000000000000000000000000000000000000000007bffffffffffffffffffffffffffffffffffffffffffffffffffffffff1916827bffffffffffffffffffffffffffffffffffffffffffffffffffffffff1916145b8061144e575061144d82611ff4565b5b9050919050565b61145e8161205e565b61149d576040517f08c379a0000000000000000000000000000000000000000000000000000000008152600401611494906132e8565b60405180910390fd5b50565b600033905090565b816004600083815260200190815260200160002060006101000a81548173ffffffffffffffffffffffffffffffffffffffff021916908373ffffffffffffffffffffffffffffffffffffffff160217905550808273ffffffffffffffffffffffffffffffffffffffff1661151b83610768565b73ffffffffffffffffffffffffffffffffffffffff167f8c5be1e5ebec7d5bd14f71427d1e84f3dd0314c0f7b2291e5b200ac8c7c3b92560405160405180910390a45050565b60008061156d83610768565b90508073ffffffffffffffffffffffffffffffffffffffff168473ffffffffffffffffffffffffffffffffffffffff1614806115af57506115ae81856112df565b5b806115ed57508373ffffffffffffffffffffffffffffffffffffffff166115d584610485565b73ffffffffffffffffffffffffffffffffffffffff16145b91505092915050565b8273ffffffffffffffffffffffffffffffffffffffff1661161682610768565b73ffffffffffffffffffffffffffffffffffffffff161461166c576040517f08c379a000000000000000000000000000000000000000000000000000000000815260040161166390613480565b60405180910390fd5b600073ffffffffffffffffffffffffffffffffffffffff168273ffffffffffffffffffffffffffffffffffffffff16036116db576040517f08c379a00000000000000000000000000000000000000000000000000000000081526004016116d290613512565b60405180910390fd5b6116e8838383600161209f565b8273ffffffffffffffffffffffffffffffffffffffff1661170882610768565b73ffffffffffffffffffffffffffffffffffffffff161461175e576040517f08c379a000000000000000000000000000000000000000000000000000000000815260040161175590613480565b60405180910390fd5b6004600082815260200190815260200160002060006101000a81549073ffffffffffffffffffffffffffffffffffffffff02191690556001600360008573ffffffffffffffffffffffffffffffffffffffff1673ffffffffffffffffffffffffffffffffffffffff168152602001908152602001600020600082825403925050819055506001600360008473ffffffffffffffffffffffffffffffffffffffff1673ffffffffffffffffffffffffffffffffffffffff16815260200190815260200160002060008282540192505081905550816002600083815260200190815260200160002060006101000a81548173ffffffffffffffffffffffffffffffffffffffff021916908373ffffffffffffffffffffffffffffffffffffffff160217905550808273ffffffffffffffffffffffffffffffffffffffff168473ffffffffffffffffffffffffffffffffffffffff167fddf252ad1be2c89b69c2b068fc378daa952ba7f163c4a11628f55a4df523b3ef60405160405180910390a46118ea83838360016120a5565b505050565b60006002600083815260200190815260200160002060009054906101000a900473ffffffffffffffffffffffffffffffffffffffff169050919050565b600081600001549050919050565b600073ffffffffffffffffffffffffffffffffffffffff168273ffffffffffffffffffffffffffffffffffffffff16036119a9576040517f08c379a00000000000000000000000000000000000000000000000000000000081526004016119a09061357e565b60405180910390fd5b6119b28161205e565b156119f2576040517f08c379a00000000000000000000000000000000000000000000000000000000081526004016119e9906135ea565b60405180910390fd5b611a0060008383600161209f565b611a098161205e565b15611a49576040517f08c379a0000000000000000000000000000000000000000000000000000000008152600401611a40906135ea565b60405180910390fd5b6001600360008473ffffffffffffffffffffffffffffffffffffffff1673ffffffffffffffffffffffffffffffffffffffff16815260200190815260200160002060008282540192505081905550816002600083815260200190815260200160002060006101000a81548173ffffffffffffffffffffffffffffffffffffffff021916908373ffffffffffffffffffffffffffffffffffffffff160217905550808273ffffffffffffffffffffffffffffffffffffffff16600073ffffffffffffffffffffffffffffffffffffffff167fddf252ad1be2c89b69c2b068fc378daa952ba7f163c4a11628f55a4df523b3ef60405160405180910390a4611b536000838360016120a5565b5050565b611b608261205e565b611b9f576040517f08c379a0000000000000000000000000000000000000000000000000000000008152600401611b969061367c565b60405180910390fd5b80600660008481526020019081526020016000209081611bbf9190613848565b507ff8e1a15aba9398e019f0b49df1a4fde98ee17ae345cb5f6b5e2c27f5033e8ce782604051611bef9190612902565b60405180910390a15050565b846009600087815260200190815260200160002060000181905550336009600087815260200190815260200160002060010160006101000a81548173ffffffffffffffffffffffffffffffffffffffff021916908373ffffffffffffffffffffffffffffffffffffffff160217905550336009600087815260200190815260200160002060020160006101000a81548173ffffffffffffffffffffffffffffffffffffffff021916908373ffffffffffffffffffffffffffffffffffffffff16021790555083600960008781526020019081526020016000206004019081611ce39190613848565b5082600960008781526020019081526020016000206005019081611d079190613848565b5081600960008781526020019081526020016000206007019081611d2b9190613848565b5080600960008781526020019081526020016000206006019081611d4f9190613848565b50847f2f0c1200aa78ebbc997cbf2fe3f4a77eb29c5cdaa76718d2c7c85b1a010096f43333878786604051611d88959493929190613929565b60405180910390a25050505050565b6001816000016000828254019250508190555050565b8173ffffffffffffffffffffffffffffffffffffffff168373ffffffffffffffffffffffffffffffffffffffff1603611e1b576040517f08c379a0000000000000000000000000000000000000000000000000000000008152600401611e12906139dd565b60405180910390fd5b80600560008573ffffffffffffffffffffffffffffffffffffffff1673ffffffffffffffffffffffffffffffffffffffff16815260200190815260200160002060008473ffffffffffffffffffffffffffffffffffffffff1673ffffffffffffffffffffffffffffffffffffffff16815260200190815260200160002060006101000a81548160ff0219169083151502179055508173ffffffffffffffffffffffffffffffffffffffff168373ffffffffffffffffffffffffffffffffffffffff167f17307eab39ab6107e8899845ad3d59bd9653f200f220920489ca2b5937696c3183604051611f0c919061259b565b60405180910390a3505050565b611f248484846115f6565b611f30848484846120ab565b611f6f576040517f08c379a0000000000000000000000000000000000000000000000000000000008152600401611f6690613a6f565b60405180910390fd5b50505050565b606060405180602001604052806000815250905090565b6060611f9782611455565b6000611fa1611f75565b90506000815111611fc15760405180602001604052806000815250611fec565b80611fcb84612232565b604051602001611fdc929190613344565b6040516020818303038152906040525b915050919050565b60007f01ffc9a7000000000000000000000000000000000000000000000000000000007bffffffffffffffffffffffffffffffffffffffffffffffffffffffff1916827bffffffffffffffffffffffffffffffffffffffffffffffffffffffff1916149050919050565b60008073ffffffffffffffffffffffffffffffffffffffff16612080836118ef565b73ffffffffffffffffffffffffffffffffffffffff1614159050919050565b50505050565b50505050565b60006120cc8473ffffffffffffffffffffffffffffffffffffffff16612300565b15612225578373ffffffffffffffffffffffffffffffffffffffff1663150b7a026120f56114a0565b8786866040518563ffffffff1660e01b81526004016121179493929190613ae4565b6020604051808303816000875af192505050801561215357506040513d601f19601f820116820180604052508101906121509190613b45565b60015b6121d5573d8060008114612183576040519150601f19603f3d011682016040523d82523d6000602084013e612188565b606091505b5060008151036121cd576040517f08c379a00000000000000000000000000000000000000000000000000000000081526004016121c490613a6f565b60405180910390fd5b805181602001fd5b63150b7a0260e01b7bffffffffffffffffffffffffffffffffffffffffffffffffffffffff1916817bffffffffffffffffffffffffffffffffffffffffffffffffffffffff19161491505061222a565b600190505b949350505050565b60606000600161224184612323565b01905060008167ffffffffffffffff8111156122605761225f612a79565b5b6040519080825280601f01601f1916602001820160405280156122925781602001600182028036833780820191505090505b509050600082602001820190505b6001156122f5578080600190039150507f3031323334353637383961626364656600000000000000000000000000000000600a86061a8153600a85816122e9576122e8613b72565b5b049450600085036122a0575b819350505050919050565b6000808273ffffffffffffffffffffffffffffffffffffffff163b119050919050565b600080600090507a184f03e93ff9f4daa797ed6e38ed64bf6a1f0100000000000000008310612381577a184f03e93ff9f4daa797ed6e38ed64bf6a1f010000000000000000838161237757612376613b72565b5b0492506040810190505b6d04ee2d6d415b85acef810000000083106123be576d04ee2d6d415b85acef810000000083816123b4576123b3613b72565b5b0492506020810190505b662386f26fc1000083106123ed57662386f26fc1000083816123e3576123e2613b72565b5b0492506010810190505b6305f5e1008310612416576305f5e100838161240c5761240b613b72565b5b0492506008810190505b612710831061243b57612710838161243157612430613b72565b5b0492506004810190505b6064831061245e576064838161245457612453613b72565b5b0492506002810190505b600a831061246d576001810190505b80915050919050565b60405180610100016040528060008152602001600073ffffffffffffffffffffffffffffffffffffffff168152602001600073ffffffffffffffffffffffffffffffffffffffff16815260200160008152602001606081526020016060815260200160608152602001606081525090565b6000604051905090565b600080fd5b600080fd5b60007fffffffff0000000000000000000000000000000000000000000000000000000082169050919050565b612530816124fb565b811461253b57600080fd5b50565b60008135905061254d81612527565b92915050565b600060208284031215612569576125686124f1565b5b60006125778482850161253e565b91505092915050565b60008115159050919050565b61259581612580565b82525050565b60006020820190506125b0600083018461258c565b92915050565b600081519050919050565b600082825260208201905092915050565b60005b838110156125f05780820151818401526020810190506125d5565b60008484015250505050565b6000601f19601f8301169050919050565b6000612618826125b6565b61262281856125c1565b93506126328185602086016125d2565b61263b816125fc565b840191505092915050565b60006020820190508181036000830152612660818461260d565b905092915050565b6000819050919050565b61267b81612668565b811461268657600080fd5b50565b60008135905061269881612672565b92915050565b6000602082840312156126b4576126b36124f1565b5b60006126c284828501612689565b91505092915050565b600073ffffffffffffffffffffffffffffffffffffffff82169050919050565b60006126f6826126cb565b9050919050565b612706816126eb565b82525050565b600060208201905061272160008301846126fd565b92915050565b612730816126eb565b811461273b57600080fd5b50565b60008135905061274d81612727565b92915050565b6000806040838503121561276a576127696124f1565b5b60006127788582860161273e565b925050602061278985828601612689565b9150509250929050565b6000806000606084860312156127ac576127ab6124f1565b5b60006127ba8682870161273e565b93505060206127cb8682870161273e565b92505060406127dc86828701612689565b9150509250925092565b6000602082840312156127fc576127fb6124f1565b5b600061280a8482850161273e565b91505092915050565b600081519050919050565b600082825260208201905092915050565b6000819050602082019050919050565b61284881612668565b82525050565b600061285a838361283f565b60208301905092915050565b6000602082019050919050565b600061287e82612813565b612888818561281e565b93506128938361282f565b8060005b838110156128c45781516128ab888261284e565b97506128b683612866565b925050600181019050612897565b5085935050505092915050565b600060208201905081810360008301526128eb8184612873565b905092915050565b6128fc81612668565b82525050565b600060208201905061291760008301846128f3565b92915050565b6000612928826126cb565b9050919050565b6129388161291d565b82525050565b600082825260208201905092915050565b600061295a826125b6565b612964818561293e565b93506129748185602086016125d2565b61297d816125fc565b840191505092915050565b6000610100830160008301516129a1600086018261283f565b5060208301516129b4602086018261292f565b5060408301516129c7604086018261292f565b5060608301516129da606086018261283f565b50608083015184820360808601526129f2828261294f565b91505060a083015184820360a0860152612a0c828261294f565b91505060c083015184820360c0860152612a26828261294f565b91505060e083015184820360e0860152612a40828261294f565b9150508091505092915050565b60006020820190508181036000830152612a678184612988565b905092915050565b600080fd5b600080fd5b7f4e487b7100000000000000000000000000000000000000000000000000000000600052604160045260246000fd5b612ab1826125fc565b810181811067ffffffffffffffff82111715612ad057612acf612a79565b5b80604052505050565b6000612ae36124e7565b9050612aef8282612aa8565b919050565b600067ffffffffffffffff821115612b0f57612b0e612a79565b5b612b18826125fc565b9050602081019050919050565b82818337600083830152505050565b6000612b47612b4284612af4565b612ad9565b905082815260208101848484011115612b6357612b62612a74565b5b612b6e848285612b25565b509392505050565b600082601f830112612b8b57612b8a612a6f565b5b8135612b9b848260208601612b34565b91505092915050565b60008060008060808587031215612bbe57612bbd6124f1565b5b600085013567ffffffffffffffff811115612bdc57612bdb6124f6565b5b612be887828801612b76565b945050602085013567ffffffffffffffff811115612c0957612c086124f6565b5b612c1587828801612b76565b935050604085013567ffffffffffffffff811115612c3657612c356124f6565b5b612c4287828801612b76565b925050606085013567ffffffffffffffff811115612c6357612c626124f6565b5b612c6f87828801612b76565b91505092959194509250565b612c8481612580565b8114612c8f57600080fd5b50565b600081359050612ca181612c7b565b92915050565b60008060408385031215612cbe57612cbd6124f1565b5b6000612ccc8582860161273e565b9250506020612cdd85828601612c92565b9150509250929050565b600067ffffffffffffffff821115612d0257612d01612a79565b5b612d0b826125fc565b9050602081019050919050565b6000612d2b612d2684612ce7565b612ad9565b905082815260208101848484011115612d4757612d46612a74565b5b612d52848285612b25565b509392505050565b600082601f830112612d6f57612d6e612a6f565b5b8135612d7f848260208601612d18565b91505092915050565b60008060008060808587031215612da257612da16124f1565b5b6000612db08782880161273e565b9450506020612dc18782880161273e565b9350506040612dd287828801612689565b925050606085013567ffffffffffffffff811115612df357612df26124f6565b5b612dff87828801612d5a565b91505092959194509250565b600081519050919050565b600082825260208201905092915050565b6000819050602082019050919050565b600061010083016000830151612e50600086018261283f565b506020830151612e63602086018261292f565b506040830151612e76604086018261292f565b506060830151612e89606086018261283f565b5060808301518482036080860152612ea1828261294f565b91505060a083015184820360a0860152612ebb828261294f565b91505060c083015184820360c0860152612ed5828261294f565b91505060e083015184820360e0860152612eef828261294f565b9150508091505092915050565b6000612f088383612e37565b905092915050565b6000602082019050919050565b6000612f2882612e0b565b612f328185612e16565b935083602082028501612f4485612e27565b8060005b85811015612f805784840389528151612f618582612efc565b9450612f6c83612f10565b925060208a01995050600181019050612f48565b50829750879550505050505092915050565b60006020820190508181036000830152612fac8184612f1d565b905092915050565b60008060408385031215612fcb57612fca6124f1565b5b6000612fd98582860161273e565b9250506020612fea8582860161273e565b9150509250929050565b7f4e487b7100000000000000000000000000000000000000000000000000000000600052602260045260246000fd5b6000600282049050600182168061303b57607f821691505b60208210810361304e5761304d612ff4565b5b50919050565b7f4552433732313a20617070726f76616c20746f2063757272656e74206f776e6560008201527f7200000000000000000000000000000000000000000000000000000000000000602082015250565b60006130b06021836125c1565b91506130bb82613054565b604082019050919050565b600060208201905081810360008301526130df816130a3565b9050919050565b7f4552433732313a20617070726f76652063616c6c6572206973206e6f7420746f60008201527f6b656e206f776e6572206f7220617070726f76656420666f7220616c6c000000602082015250565b6000613142603d836125c1565b915061314d826130e6565b604082019050919050565b6000602082019050818103600083015261317181613135565b9050919050565b7f4552433732313a2063616c6c6572206973206e6f7420746f6b656e206f776e6560008201527f72206f7220617070726f76656400000000000000000000000000000000000000602082015250565b60006131d4602d836125c1565b91506131df82613178565b604082019050919050565b60006020820190508181036000830152613203816131c7565b9050919050565b7f4552433732313a2061646472657373207a65726f206973206e6f74206120766160008201527f6c6964206f776e65720000000000000000000000000000000000000000000000602082015250565b60006132666029836125c1565b91506132718261320a565b604082019050919050565b6000602082019050818103600083015261329581613259565b9050919050565b7f4552433732313a20696e76616c696420746f6b656e2049440000000000000000600082015250565b60006132d26018836125c1565b91506132dd8261329c565b602082019050919050565b60006020820190508181036000830152613301816132c5565b9050919050565b600081905092915050565b600061331e826125b6565b6133288185613308565b93506133388185602086016125d2565b80840191505092915050565b60006133508285613313565b915061335c8284613313565b91508190509392505050565b7f4e487b7100000000000000000000000000000000000000000000000000000000600052603260045260246000fd5b7f4e487b7100000000000000000000000000000000000000000000000000000000600052601160045260246000fd5b60006133d182612668565b91507fffffffffffffffffffffffffffffffffffffffffffffffffffffffffffffffff820361340357613402613397565b5b600182019050919050565b7f4552433732313a207472616e736665722066726f6d20696e636f72726563742060008201527f6f776e6572000000000000000000000000000000000000000000000000000000602082015250565b600061346a6025836125c1565b91506134758261340e565b604082019050919050565b600060208201905081810360008301526134998161345d565b9050919050565b7f4552433732313a207472616e7366657220746f20746865207a65726f2061646460008201527f7265737300000000000000000000000000000000000000000000000000000000602082015250565b60006134fc6024836125c1565b9150613507826134a0565b604082019050919050565b6000602082019050818103600083015261352b816134ef565b9050919050565b7f4552433732313a206d696e7420746f20746865207a65726f2061646472657373600082015250565b60006135686020836125c1565b915061357382613532565b602082019050919050565b600060208201905081810360008301526135978161355b565b9050919050565b7f4552433732313a20746f6b656e20616c7265616479206d696e74656400000000600082015250565b60006135d4601c836125c1565b91506135df8261359e565b602082019050919050565b60006020820190508181036000830152613603816135c7565b9050919050565b7f45524337323155524953746f726167653a2055524920736574206f66206e6f6e60008201527f6578697374656e7420746f6b656e000000000000000000000000000000000000602082015250565b6000613666602e836125c1565b91506136718261360a565b604082019050919050565b6000602082019050818103600083015261369581613659565b9050919050565b60008190508160005260206000209050919050565b60006020601f8301049050919050565b600082821b905092915050565b6000600883026136fe7fffffffffffffffffffffffffffffffffffffffffffffffffffffffffffffffff826136c1565b61370886836136c1565b95508019841693508086168417925050509392505050565b6000819050919050565b600061374561374061373b84612668565b613720565b612668565b9050919050565b6000819050919050565b61375f8361372a565b61377361376b8261374c565b8484546136ce565b825550505050565b600090565b61378861377b565b613793818484613756565b505050565b5b818110156137b7576137ac600082613780565b600181019050613799565b5050565b601f8211156137fc576137cd8161369c565b6137d6846136b1565b810160208510156137e5578190505b6137f96137f1856136b1565b830182613798565b50505b505050565b600082821c905092915050565b600061381f60001984600802613801565b1980831691505092915050565b6000613838838361380e565b9150826002028217905092915050565b613851826125b6565b67ffffffffffffffff81111561386a57613869612a79565b5b6138748254613023565b61387f8282856137bb565b600060209050601f8311600181146138b257600084156138a0578287015190505b6138aa858261382c565b865550613912565b601f1984166138c08661369c565b60005b828110156138e8578489015182556001820191506020850194506020810190506138c3565b868310156139055784890151613901601f89168261380e565b8355505b6001600288020188555050505b505050505050565b6139238161291d565b82525050565b600060a08201905061393e600083018861391a565b61394b602083018761391a565b818103604083015261395d818661260d565b90508181036060830152613971818561260d565b90508181036080830152613985818461260d565b90509695505050505050565b7f4552433732313a20617070726f766520746f2063616c6c657200000000000000600082015250565b60006139c76019836125c1565b91506139d282613991565b602082019050919050565b600060208201905081810360008301526139f6816139ba565b9050919050565b7f4552433732313a207472616e7366657220746f206e6f6e20455243373231526560008201527f63656976657220696d706c656d656e7465720000000000000000000000000000602082015250565b6000613a596032836125c1565b9150613a64826139fd565b604082019050919050565b60006020820190508181036000830152613a8881613a4c565b9050919050565b600081519050919050565b600082825260208201905092915050565b6000613ab682613a8f565b613ac08185613a9a565b9350613ad08185602086016125d2565b613ad9816125fc565b840191505092915050565b6000608082019050613af960008301876126fd565b613b0660208301866126fd565b613b1360408301856128f3565b8181036060830152613b258184613aab565b905095945050505050565b600081519050613b3f81612527565b92915050565b600060208284031215613b5b57613b5a6124f1565b5b6000613b6984828501613b30565b91505092915050565b7f4e487b7100000000000000000000000000000000000000000000000000000000600052601260045260246000fdfea26469706673582212208d45822e0d6940d82aaba12f28cef6cb38cc7ef5c44099a78c0ddf455189994c64736f6c63430008130033",
  "immutableReferences": {},
  "source": "// contracts/MyNFT.sol\r\n// SPDX-License-Identifier: MIT\r\npragma solidity ^0.8.0;\r\n\r\nimport \"@openzeppelin/contracts/token/ERC721/ERC721.sol\";\r\nimport \"@openzeppelin/contracts/utils/Counters.sol\";\r\nimport \"@openzeppelin/contracts/access/Ownable.sol\";\r\nimport \"@openzeppelin/contracts/token/ERC721/extensions/ERC721URIStorage.sol\";\r\nimport \"./openzeppelin/ERC721EnumerableModify.sol\";\r\n// import \"@openzeppelin/contracts/token/ERC721/extensions/ERC721Enumerable.sol\";\r\n\r\ncontract MyNFT is ERC721URIStorage {\r\n    using Counters for Counters.Counter;\r\n    Counters.Counter private tokenIds;\r\n    Counters.Counter private userIds;\r\n\r\n\r\n    struct nftStruct {\r\n        uint256 tokenId;\r\n        address payable seller;\r\n        address payable owner;\r\n        uint256 price;\r\n        string title;\r\n        string description;\r\n        string image;\r\n        string tokenUri;\r\n    }\r\n\r\n    mapping(uint256 => nftStruct) private nfts;\r\n    mapping(address => uint256 []) private nftOwners;\r\n\r\n    event NftStructCreated(\r\n        uint256 indexed tokenId,\r\n        address payable seller,\r\n        address payable owner,\r\n        string title,\r\n        string description,\r\n        string image\r\n    );\r\n\r\n    constructor() ERC721(\"NFT MINTO\", \"MINTO's NFT collection\") {\r\n        tokenIds.increment();\r\n        userIds.increment();\r\n    }\r\n    \r\n\r\n    function setNft(\r\n        uint256 _tokenId,\r\n        string memory _title,\r\n        string memory _description,\r\n        string memory _tokenURI,\r\n        string memory _image\r\n    ) private {\r\n\r\n        nfts[_tokenId].tokenId = _tokenId;\r\n        nfts[_tokenId].seller = payable(msg.sender);\r\n        nfts[_tokenId].owner = payable(msg.sender);\r\n        nfts[_tokenId].title = _title;\r\n        nfts[_tokenId].description = _description;\r\n        nfts[_tokenId].tokenUri = _tokenURI;\r\n        nfts[_tokenId].image = _image;\r\n\r\n        emit NftStructCreated(\r\n            _tokenId,\r\n            payable(msg.sender),\r\n            payable(msg.sender),\r\n            _title,\r\n            _description,\r\n            _image\r\n        );\r\n    }\r\n    /// @dev this function mints received NFTs\r\n    /// @param _tokenURI the new token URI for the magazine cover\r\n    /// @param _title the name of the magazine cover\r\n    /// @param _description detailed information on the magazine NFT\r\n    /// @param _image image\r\n    // /// @return tokenId of the created NFT\r\n    function createNft(\r\n        string memory _tokenURI,\r\n        string memory _title,\r\n        string memory _description,\r\n        string memory _image\r\n    ) public  {\r\n        \r\n        uint256 newTokenId = tokenIds.current();\r\n        _mint(msg.sender, newTokenId);\r\n        _setTokenURI(newTokenId, _tokenURI);\r\n        nftOwners[msg.sender].push(newTokenId);\r\n        setNft(newTokenId, _title, _description, _tokenURI, _image);\r\n        tokenIds.increment();\r\n    }\r\n\r\n    /// @dev this function mints received NFTs\r\n    /// @param _tokenURI the new token URI for the magazine cover\r\n    /// @param _title the name of the magazine cover\r\n    /// @param _description detailed information on the magazine NFT\r\n    /// @param _to set address _to \r\n    // /// @return tokenId of the created NFT\r\n\r\n\r\n    /// @dev sell a magazine subscription to the public so that's visible to the nft marketplace\r\n    /// @param _tokenId the TokenID od the Nft Magazine\r\n    // /// @param _price the price for the magazine subscription\r\n    // /// @return total number of available nft subscriptions\r\n    // function sellSubscription(\r\n    //     uint256 _tokenId\r\n    // ) public payable returns (uint256) {\r\n    //     require(\r\n    //         _isApprovedOrOwner(msg.sender, _tokenId),\r\n    //         \"Only NFT owner can perform this\"\r\n    //     );\r\n    //     _transfer(msg.sender, address(this), _tokenId);\r\n    //     nfts[_tokenId].price = msg.value / (1 ether);\r\n    //     nfts[_tokenId].owner = payable(address(this));\r\n    //     //_expirations[_tokenId] = duration;\r\n    //     nftsAvailableForSale.increment();\r\n    //     return nftsAvailableForSale.current();\r\n    // }\r\n\r\n    /// @dev buy a magazine subscription from the marketplace\r\n    /// @param _tokenId the Token ID of the NFT Magazine\r\n    /// @return true\r\n    // function buySubscription(uint256 _tokenId) public payable returns (bool) {\r\n    //     // uint256 price = nfts[_tokenId].price;\r\n    //     // require(\r\n    //     //     msg.value == price,\r\n    //     //     \"Please send the asking price in order to complete the purchase\"\r\n    //     // );\r\n\r\n    //     payable(nfts[_tokenId].seller).transfer(msg.value);\r\n    //     nfts[_tokenId].subscribers.push(msg.sender);\r\n    //     return true;\r\n    // }\r\n\r\n    /// @dev fetch available NFTs on sale that will be displayed on the marketplace\r\n    /// return nftStruct[] list of nfts with their metadata\r\n    // function getSubscriptions() public view returns (nftStruct[] memory) {\r\n    //     uint256 nftCount = tokenIds.current();\r\n    //     nftStruct[] memory nftSubs = new nftStruct[](nftCount);\r\n    //     for (uint256 i = 1; i < nftCount; i++) {\r\n    //         if (nfts[i].owner == address(this)) {\r\n    //             nftSubs[i] = nfts[i];\r\n    //         }\r\n    //     }\r\n    //     return nftSubs;\r\n    // }\r\n\r\n    /// @dev fetches NFT magazines that a specific user is already subscribed to\r\n    /// return nftStruct[] list of the nfts collected by a user with their metadata\r\n    // function getCollectables() public view returns (nftStruct[] memory) {\r\n    //     uint256 nftCount = tokenIds.current();\r\n    //     nftStruct[] memory nftSubs = new nftStruct[](nftCount);\r\n\r\n    //     for (uint256 i = 1; i < nftCount; i++) {\r\n    //         uint256 subscribers = nfts[i].subscribers.length;\r\n    //         for (uint256 j = 0; j < subscribers; j++) {\r\n    //             if (nfts[i].subscribers[j] == msg.sender) {\r\n    //                 nftSubs[i] = nfts[i];\r\n    //             }\r\n    //         }\r\n    //     }\r\n\r\n    //     return nftSubs;\r\n    // }\r\n\r\n    /// @dev fetches NFT magazines that a specific user has created\r\n    /// @return nftStruct[] list of nfts created by a user with their metadata\r\n    function getNfts() public view returns (nftStruct[] memory) {\r\n        uint256 nftCount = tokenIds.current();\r\n        nftStruct[] memory nftSubs = new nftStruct[](nftCount);\r\n        for (uint256 i = 1; i < nftCount; i++) {\r\n            if (nfts[i].seller == payable(msg.sender)) {\r\n                nftSubs[i] = nfts[i];\r\n            }\r\n        }\r\n\r\n        return nftSubs;\r\n    }\r\n\r\n    /// @dev fetches details of a particular NFT magazine subscription\r\n    /// @param _tokenId The token ID of the NFT Magazine\r\n    /// @return nftStruct NFT data of the specific token ID\r\n    function getIndividualNFT (\r\n        uint256 _tokenId\r\n    ) public view returns (nftStruct memory) {\r\n        return nfts[_tokenId];\r\n    }\r\n\r\n    function getNftsByAddress (address owner) public view returns(uint256[] memory){\r\n        require(owner != address(0), \"ERC721: address zero is not a valid owner\");\r\n        return nftOwners[owner];\r\n    }\r\n\r\n    // /// @dev increments number of likes for a NFT Magazine by 1\r\n    // /// @param _tokenId the Token ID of the NFT Magazine\r\n    // function likeSubscription(uint256 _tokenId) public {\r\n    //     nfts[_tokenId].likes += 1;\r\n    // }\r\n\r\n    // /// @dev decrement number of likes for a NFT Magazine by 1\r\n    // /// @param _tokenId the Token ID of the NFT Magazine\r\n    // function unlikeSubscription(uint256 _tokenId) public {\r\n    //     nfts[_tokenId].likes -= 1;\r\n    // }\r\n\r\n    \r\n}",
  "sourcePath": "C:\\Projects\\minto-nft\\contracts\\MyNFT.sol",
  "compiler": {
    "name": "solc",
    "version": "0.8.19+commit.7dd6d404.Emscripten.clang"
  },
  "schemaVersion": "3.4.16",
  "updatedAt": "2024-03-13T07:04:04.030Z",
  "networkType": "ethereum",
  "devdoc": {
    "events": {
      "Approval(address,address,uint256)": {
        "details": "Emitted when `owner` enables `approved` to manage the `tokenId` token."
      },
      "ApprovalForAll(address,address,bool)": {
        "details": "Emitted when `owner` enables or disables (`approved`) `operator` to manage all of its assets."
      },
      "BatchMetadataUpdate(uint256,uint256)": {
        "details": "This event emits when the metadata of a range of tokens is changed. So that the third-party platforms such as NFT market could timely update the images and related attributes of the NFTs."
      },
      "MetadataUpdate(uint256)": {
        "details": "This event emits when the metadata of a token is changed. So that the third-party platforms such as NFT market could timely update the images and related attributes of the NFT."
      },
      "Transfer(address,address,uint256)": {
        "details": "Emitted when `tokenId` token is transferred from `from` to `to`."
      }
    },
    "kind": "dev",
    "methods": {
      "approve(address,uint256)": {
        "details": "See {IERC721-approve}."
      },
      "balanceOf(address)": {
        "details": "See {IERC721-balanceOf}."
      },
      "createNft(string,string,string,string)": {
        "details": "this function mints received NFTs",
        "params": {
          "_description": "detailed information on the magazine NFT",
          "_image": "image",
          "_title": "the name of the magazine cover",
          "_tokenURI": "the new token URI for the magazine cover"
        }
      },
      "getApproved(uint256)": {
        "details": "See {IERC721-getApproved}."
      },
      "getIndividualNFT(uint256)": {
        "details": "fetches details of a particular NFT magazine subscription",
        "params": {
          "_tokenId": "The token ID of the NFT Magazine"
        },
        "returns": {
          "_0": "nftStruct NFT data of the specific token ID"
        }
      },
      "getNfts()": {
        "details": "fetches NFT magazines that a specific user has created",
        "returns": {
          "_0": "nftStruct[] list of nfts created by a user with their metadata"
        }
      },
      "isApprovedForAll(address,address)": {
        "details": "See {IERC721-isApprovedForAll}."
      },
      "name()": {
        "details": "See {IERC721Metadata-name}."
      },
      "ownerOf(uint256)": {
        "details": "See {IERC721-ownerOf}."
      },
      "safeTransferFrom(address,address,uint256)": {
        "details": "See {IERC721-safeTransferFrom}."
      },
      "safeTransferFrom(address,address,uint256,bytes)": {
        "details": "See {IERC721-safeTransferFrom}."
      },
      "setApprovalForAll(address,bool)": {
        "details": "See {IERC721-setApprovalForAll}."
      },
      "supportsInterface(bytes4)": {
        "details": "See {IERC165-supportsInterface}"
      },
      "symbol()": {
        "details": "See {IERC721Metadata-symbol}."
      },
      "tokenURI(uint256)": {
        "details": "See {IERC721Metadata-tokenURI}."
      },
      "transferFrom(address,address,uint256)": {
        "details": "See {IERC721-transferFrom}."
      }
    },
    "version": 1
  },
  "userdoc": {
    "kind": "user",
    "methods": {},
    "version": 1
  }
}