{
  "contractName": "MyNFT",
  "abi": [
    {
      "inputs": [],
      "stateMutability": "nonpayable",
      "type": "constructor"
    },
    {
      "anonymous": false,
      "inputs": [
        {
          "indexed": true,
          "internalType": "address",
          "name": "owner",
          "type": "address"
        },
        {
          "indexed": true,
          "internalType": "address",
          "name": "approved",
          "type": "address"
        },
        {
          "indexed": true,
          "internalType": "uint256",
          "name": "tokenId",
          "type": "uint256"
        }
      ],
      "name": "Approval",
      "type": "event"
    },
    {
      "anonymous": false,
      "inputs": [
        {
          "indexed": true,
          "internalType": "address",
          "name": "owner",
          "type": "address"
        },
        {
          "indexed": true,
          "internalType": "address",
          "name": "operator",
          "type": "address"
        },
        {
          "indexed": false,
          "internalType": "bool",
          "name": "approved",
          "type": "bool"
        }
      ],
      "name": "ApprovalForAll",
      "type": "event"
    },
    {
      "anonymous": false,
      "inputs": [
        {
          "indexed": false,
          "internalType": "uint256",
          "name": "_fromTokenId",
          "type": "uint256"
        },
        {
          "indexed": false,
          "internalType": "uint256",
          "name": "_toTokenId",
          "type": "uint256"
        }
      ],
      "name": "BatchMetadataUpdate",
      "type": "event"
    },
    {
      "anonymous": false,
      "inputs": [
        {
          "indexed": false,
          "internalType": "uint256",
          "name": "_tokenId",
          "type": "uint256"
        }
      ],
      "name": "MetadataUpdate",
      "type": "event"
    },
    {
      "anonymous": false,
      "inputs": [
        {
          "indexed": true,
          "internalType": "uint256",
          "name": "tokenId",
          "type": "uint256"
        },
        {
          "indexed": false,
          "internalType": "address payable",
          "name": "owner",
          "type": "address"
        },
        {
          "indexed": false,
          "internalType": "string",
          "name": "title",
          "type": "string"
        },
        {
          "indexed": false,
          "internalType": "string",
          "name": "description",
          "type": "string"
        },
        {
          "indexed": false,
          "internalType": "string",
          "name": "image",
          "type": "string"
        }
      ],
      "name": "NftStructCreated",
      "type": "event"
    },
    {
      "anonymous": false,
      "inputs": [
        {
          "indexed": true,
          "internalType": "address",
          "name": "previousOwner",
          "type": "address"
        },
        {
          "indexed": true,
          "internalType": "address",
          "name": "newOwner",
          "type": "address"
        }
      ],
      "name": "OwnershipTransferred",
      "type": "event"
    },
    {
      "anonymous": false,
      "inputs": [
        {
          "indexed": true,
          "internalType": "address",
          "name": "from",
          "type": "address"
        },
        {
          "indexed": true,
          "internalType": "address",
          "name": "to",
          "type": "address"
        },
        {
          "indexed": true,
          "internalType": "uint256",
          "name": "tokenId",
          "type": "uint256"
        }
      ],
      "name": "Transfer",
      "type": "event"
    },
    {
      "inputs": [
        {
          "internalType": "address",
          "name": "to",
          "type": "address"
        },
        {
          "internalType": "uint256",
          "name": "tokenId",
          "type": "uint256"
        }
      ],
      "name": "approve",
      "outputs": [],
      "stateMutability": "nonpayable",
      "type": "function"
    },
    {
      "inputs": [
        {
          "internalType": "address",
          "name": "owner",
          "type": "address"
        }
      ],
      "name": "balanceOf",
      "outputs": [
        {
          "internalType": "uint256",
          "name": "",
          "type": "uint256"
        }
      ],
      "stateMutability": "view",
      "type": "function",
      "constant": true
    },
    {
      "inputs": [
        {
          "internalType": "uint256",
          "name": "tokenId",
          "type": "uint256"
        }
      ],
      "name": "getApproved",
      "outputs": [
        {
          "internalType": "address",
          "name": "",
          "type": "address"
        }
      ],
      "stateMutability": "view",
      "type": "function",
      "constant": true
    },
    {
      "inputs": [
        {
          "internalType": "address",
          "name": "owner",
          "type": "address"
        },
        {
          "internalType": "address",
          "name": "operator",
          "type": "address"
        }
      ],
      "name": "isApprovedForAll",
      "outputs": [
        {
          "internalType": "bool",
          "name": "",
          "type": "bool"
        }
      ],
      "stateMutability": "view",
      "type": "function",
      "constant": true
    },
    {
      "inputs": [],
      "name": "name",
      "outputs": [
        {
          "internalType": "string",
          "name": "",
          "type": "string"
        }
      ],
      "stateMutability": "view",
      "type": "function",
      "constant": true
    },
    {
      "inputs": [],
      "name": "owner",
      "outputs": [
        {
          "internalType": "address",
          "name": "",
          "type": "address"
        }
      ],
      "stateMutability": "view",
      "type": "function",
      "constant": true
    },
    {
      "inputs": [
        {
          "internalType": "uint256",
          "name": "tokenId",
          "type": "uint256"
        }
      ],
      "name": "ownerOf",
      "outputs": [
        {
          "internalType": "address",
          "name": "",
          "type": "address"
        }
      ],
      "stateMutability": "view",
      "type": "function",
      "constant": true
    },
    {
      "inputs": [],
      "name": "renounceOwnership",
      "outputs": [],
      "stateMutability": "nonpayable",
      "type": "function"
    },
    {
      "inputs": [
        {
          "internalType": "address",
          "name": "from",
          "type": "address"
        },
        {
          "internalType": "address",
          "name": "to",
          "type": "address"
        },
        {
          "internalType": "uint256",
          "name": "tokenId",
          "type": "uint256"
        }
      ],
      "name": "safeTransferFrom",
      "outputs": [],
      "stateMutability": "nonpayable",
      "type": "function"
    },
    {
      "inputs": [
        {
          "internalType": "address",
          "name": "from",
          "type": "address"
        },
        {
          "internalType": "address",
          "name": "to",
          "type": "address"
        },
        {
          "internalType": "uint256",
          "name": "tokenId",
          "type": "uint256"
        },
        {
          "internalType": "bytes",
          "name": "data",
          "type": "bytes"
        }
      ],
      "name": "safeTransferFrom",
      "outputs": [],
      "stateMutability": "nonpayable",
      "type": "function"
    },
    {
      "inputs": [
        {
          "internalType": "address",
          "name": "operator",
          "type": "address"
        },
        {
          "internalType": "bool",
          "name": "approved",
          "type": "bool"
        }
      ],
      "name": "setApprovalForAll",
      "outputs": [],
      "stateMutability": "nonpayable",
      "type": "function"
    },
    {
      "inputs": [
        {
          "internalType": "bytes4",
          "name": "interfaceId",
          "type": "bytes4"
        }
      ],
      "name": "supportsInterface",
      "outputs": [
        {
          "internalType": "bool",
          "name": "",
          "type": "bool"
        }
      ],
      "stateMutability": "view",
      "type": "function",
      "constant": true
    },
    {
      "inputs": [],
      "name": "symbol",
      "outputs": [
        {
          "internalType": "string",
          "name": "",
          "type": "string"
        }
      ],
      "stateMutability": "view",
      "type": "function",
      "constant": true
    },
    {
      "inputs": [
        {
          "internalType": "uint256",
          "name": "tokenId",
          "type": "uint256"
        }
      ],
      "name": "tokenURI",
      "outputs": [
        {
          "internalType": "string",
          "name": "",
          "type": "string"
        }
      ],
      "stateMutability": "view",
      "type": "function",
      "constant": true
    },
    {
      "inputs": [
        {
          "internalType": "address",
          "name": "from",
          "type": "address"
        },
        {
          "internalType": "address",
          "name": "to",
          "type": "address"
        },
        {
          "internalType": "uint256",
          "name": "tokenId",
          "type": "uint256"
        }
      ],
      "name": "transferFrom",
      "outputs": [],
      "stateMutability": "nonpayable",
      "type": "function"
    },
    {
      "inputs": [
        {
          "internalType": "address",
          "name": "newOwner",
          "type": "address"
        }
      ],
      "name": "transferOwnership",
      "outputs": [],
      "stateMutability": "nonpayable",
      "type": "function"
    },
    {
      "inputs": [
        {
          "internalType": "string",
          "name": "_tokenURI",
          "type": "string"
        },
        {
          "internalType": "string",
          "name": "_title",
          "type": "string"
        },
        {
          "internalType": "string",
          "name": "_description",
          "type": "string"
        },
        {
          "internalType": "string",
          "name": "_image",
          "type": "string"
        }
      ],
      "name": "createNft",
      "outputs": [],
      "stateMutability": "nonpayable",
      "type": "function"
    },
    {
      "inputs": [],
      "name": "getNfts",
      "outputs": [
        {
          "components": [
            {
              "internalType": "uint256",
              "name": "tokenId",
              "type": "uint256"
            },
            {
              "internalType": "address payable",
              "name": "owner",
              "type": "address"
            },
            {
              "internalType": "string",
              "name": "title",
              "type": "string"
            },
            {
              "internalType": "string",
              "name": "description",
              "type": "string"
            },
            {
              "internalType": "string",
              "name": "image",
              "type": "string"
            },
            {
              "internalType": "string",
              "name": "tokenUri",
              "type": "string"
            }
          ],
          "internalType": "struct MyNFT.nftStruct[]",
          "name": "",
          "type": "tuple[]"
        }
      ],
      "stateMutability": "view",
      "type": "function",
      "constant": true
    },
    {
      "inputs": [
        {
          "internalType": "uint256",
          "name": "_tokenId",
          "type": "uint256"
        }
      ],
      "name": "getIndividualNFT",
      "outputs": [
        {
          "components": [
            {
              "internalType": "uint256",
              "name": "tokenId",
              "type": "uint256"
            },
            {
              "internalType": "address payable",
              "name": "owner",
              "type": "address"
            },
            {
              "internalType": "string",
              "name": "title",
              "type": "string"
            },
            {
              "internalType": "string",
              "name": "description",
              "type": "string"
            },
            {
              "internalType": "string",
              "name": "image",
              "type": "string"
            },
            {
              "internalType": "string",
              "name": "tokenUri",
              "type": "string"
            }
          ],
          "internalType": "struct MyNFT.nftStruct",
          "name": "",
          "type": "tuple"
        }
      ],
      "stateMutability": "view",
      "type": "function",
      "constant": true
    },
    {
      "inputs": [
        {
          "internalType": "address",
          "name": "owner",
          "type": "address"
        }
      ],
      "name": "getNftsByAddress",
      "outputs": [
        {
          "internalType": "uint256[]",
          "name": "",
          "type": "uint256[]"
        }
      ],
      "stateMutability": "view",
      "type": "function",
      "constant": true
    },
    {
      "inputs": [
        {
          "internalType": "address",
          "name": "from",
          "type": "address"
        },
        {
          "internalType": "address payable",
          "name": "to",
          "type": "address"
        },
        {
          "internalType": "uint256",
          "name": "tokenId",
          "type": "uint256"
        }
      ],
      "name": "sendNft",
      "outputs": [
        {
          "internalType": "uint256",
          "name": "",
          "type": "uint256"
        }
      ],
      "stateMutability": "nonpayable",
      "type": "function"
    },
    {
      "inputs": [],
      "name": "getNftsCount",
      "outputs": [
        {
          "internalType": "uint256",
          "name": "",
          "type": "uint256"
        }
      ],
      "stateMutability": "view",
      "type": "function",
      "constant": true
    },
    {
      "inputs": [
        {
          "internalType": "string",
          "name": "_tokenURI",
          "type": "string"
        },
        {
          "internalType": "string",
          "name": "_title",
          "type": "string"
        },
        {
          "internalType": "string",
          "name": "_description",
          "type": "string"
        },
        {
          "internalType": "string",
          "name": "_image",
          "type": "string"
        },
        {
          "internalType": "address",
          "name": "from",
          "type": "address"
        },
        {
          "internalType": "address payable",
          "name": "to",
          "type": "address"
        }
      ],
      "name": "createAndSendNft",
      "outputs": [
        {
          "internalType": "uint256",
          "name": "",
          "type": "uint256"
        }
      ],
      "stateMutability": "nonpayable",
      "type": "function"
    }
  ],
  "bytecode": "0x60806040523480156200001157600080fd5b506040518060400160405280600981526020017f4e4654204d494e544f00000000000000000000000000000000000000000000008152506040518060400160405280601681526020017f4d494e544f2773204e465420636f6c6c656374696f6e0000000000000000000081525081600090816200008f91906200044c565b508060019081620000a191906200044c565b505050620000c4620000b8620000ee60201b60201c565b620000f660201b60201c565b620000d66008620001bc60201b60201c565b620000e86009620001bc60201b60201c565b62000533565b600033905090565b6000600760009054906101000a900473ffffffffffffffffffffffffffffffffffffffff16905081600760006101000a81548173ffffffffffffffffffffffffffffffffffffffff021916908373ffffffffffffffffffffffffffffffffffffffff1602179055508173ffffffffffffffffffffffffffffffffffffffff168173ffffffffffffffffffffffffffffffffffffffff167f8be0079c531659141344cd1fd0a4f28419497f9722a3daafe3b4186f6b6457e060405160405180910390a35050565b6001816000016000828254019250508190555050565b600081519050919050565b7f4e487b7100000000000000000000000000000000000000000000000000000000600052604160045260246000fd5b7f4e487b7100000000000000000000000000000000000000000000000000000000600052602260045260246000fd5b600060028204905060018216806200025457607f821691505b6020821081036200026a57620002696200020c565b5b50919050565b60008190508160005260206000209050919050565b60006020601f8301049050919050565b600082821b905092915050565b600060088302620002d47fffffffffffffffffffffffffffffffffffffffffffffffffffffffffffffffff8262000295565b620002e0868362000295565b95508019841693508086168417925050509392505050565b6000819050919050565b6000819050919050565b60006200032d620003276200032184620002f8565b62000302565b620002f8565b9050919050565b6000819050919050565b62000349836200030c565b62000361620003588262000334565b848454620002a2565b825550505050565b600090565b6200037862000369565b620003858184846200033e565b505050565b5b81811015620003ad57620003a16000826200036e565b6001810190506200038b565b5050565b601f821115620003fc57620003c68162000270565b620003d18462000285565b81016020851015620003e1578190505b620003f9620003f08562000285565b8301826200038a565b50505b505050565b600082821c905092915050565b6000620004216000198460080262000401565b1980831691505092915050565b60006200043c83836200040e565b9150826002028217905092915050565b6200045782620001d2565b67ffffffffffffffff811115620004735762000472620001dd565b5b6200047f82546200023b565b6200048c828285620003b1565b600060209050601f831160018114620004c45760008415620004af578287015190505b620004bb85826200042e565b8655506200052b565b601f198416620004d48662000270565b60005b82811015620004fe57848901518255600182019150602085019450602081019050620004d7565b868310156200051e57848901516200051a601f8916826200040e565b8355505b6001600288020188555050505b505050505050565b6141de80620005436000396000f3fe608060405234801561001057600080fd5b506004361061014d5760003560e01c806370a08231116100c3578063a22cb4651161007c578063a22cb465146103c4578063b88d4fde146103e0578063c87b56dd146103fc578063d8cb55e31461042c578063e985e9c51461044a578063f2fde38b1461047a5761014d565b806370a0823114610302578063715018a614610332578063768563191461033c5780638a566fa81461036c5780638da5cb5b1461038857806395d89b41146103a65761014d565b806323b872dd1161011557806323b872dd1461020a5780633a66dd361461022657806342842e0e146102565780634d81c77d1461027257806354744840146102a25780636352211e146102d25761014d565b806301ffc9a71461015257806305ed9a671461018257806306fdde03146101a0578063081812fc146101be578063095ea7b3146101ee575b600080fd5b61016c6004803603810190610167919061293c565b610496565b6040516101799190612984565b60405180910390f35b61018a6104f7565b60405161019791906129b8565b60405180910390f35b6101a8610508565b6040516101b59190612a63565b60405180910390f35b6101d860048036038101906101d39190612ab1565b61059a565b6040516101e59190612b1f565b60405180910390f35b61020860048036038101906102039190612b66565b6105e0565b005b610224600480360381019061021f9190612ba6565b6106f7565b005b610240600480360381019061023b9190612bf9565b610757565b60405161024d9190612ce4565b60405180910390f35b610270600480360381019061026b9190612ba6565b61085d565b005b61028c60048036038101906102879190612d44565b61087d565b60405161029991906129b8565b60405180910390f35b6102bc60048036038101906102b79190612ecc565b6108e9565b6040516102c991906129b8565b60405180910390f35b6102ec60048036038101906102e79190612ab1565b6109f7565b6040516102f99190612b1f565b60405180910390f35b61031c60048036038101906103179190612bf9565b610a7d565b60405161032991906129b8565b60405180910390f35b61033a610b34565b005b61035660048036038101906103519190612ab1565b610b48565b60405161036391906130c0565b60405180910390f35b610386600480360381019061038191906130e2565b610e1d565b005b610390610ec3565b60405161039d9190612b1f565b60405180910390f35b6103ae610eed565b6040516103bb9190612a63565b60405180910390f35b6103de60048036038101906103d991906131e5565b610f7f565b005b6103fa60048036038101906103f591906132c6565b610f95565b005b61041660048036038101906104119190612ab1565b610ff7565b6040516104239190612a63565b60405180910390f35b610434611109565b60405161044191906134a9565b60405180910390f35b610464600480360381019061045f91906134cb565b61157d565b6040516104719190612984565b60405180910390f35b610494600480360381019061048f9190612bf9565b611611565b005b6000634906490660e01b7bffffffffffffffffffffffffffffffffffffffffffffffffffffffff1916827bffffffffffffffffffffffffffffffffffffffffffffffffffffffff191614806104f057506104ef82611694565b5b9050919050565b60006105036008611776565b905090565b6060600080546105179061353a565b80601f01602080910402602001604051908101604052809291908181526020018280546105439061353a565b80156105905780601f1061056557610100808354040283529160200191610590565b820191906000526020600020905b81548152906001019060200180831161057357829003601f168201915b5050505050905090565b60006105a582611784565b6004600083815260200190815260200160002060009054906101000a900473ffffffffffffffffffffffffffffffffffffffff169050919050565b60006105eb826109f7565b90508073ffffffffffffffffffffffffffffffffffffffff168373ffffffffffffffffffffffffffffffffffffffff160361065b576040517f08c379a0000000000000000000000000000000000000000000000000000000008152600401610652906135dd565b60405180910390fd5b8073ffffffffffffffffffffffffffffffffffffffff1661067a6117cf565b73ffffffffffffffffffffffffffffffffffffffff1614806106a957506106a8816106a36117cf565b61157d565b5b6106e8576040517f08c379a00000000000000000000000000000000000000000000000000000000081526004016106df9061366f565b60405180910390fd5b6106f283836117d7565b505050565b6107086107026117cf565b82611890565b610747576040517f08c379a000000000000000000000000000000000000000000000000000000000815260040161073e90613701565b60405180910390fd5b610752838383611925565b505050565b6060600073ffffffffffffffffffffffffffffffffffffffff168273ffffffffffffffffffffffffffffffffffffffff16036107c8576040517f08c379a00000000000000000000000000000000000000000000000000000000081526004016107bf90613793565b60405180910390fd5b600b60008373ffffffffffffffffffffffffffffffffffffffff1673ffffffffffffffffffffffffffffffffffffffff16815260200190815260200160002080548060200260200160405190810160405280929190818152602001828054801561085157602002820191906000526020600020905b81548152602001906001019080831161083d575b50505050509050919050565b61087883838360405180602001604052806000815250610f95565b505050565b600061088a84848461085d565b82600a600084815260200190815260200160002060010160006101000a81548173ffffffffffffffffffffffffffffffffffffffff021916908373ffffffffffffffffffffffffffffffffffffffff1602179055508190509392505050565b6000806108f66008611776565b90506109028482611c1e565b61090c8189611e3b565b600b60008573ffffffffffffffffffffffffffffffffffffffff1673ffffffffffffffffffffffffffffffffffffffff16815260200190815260200160002081908060018154018082558091505060019003906000526020600020016000909190919091505561097f8188888b89611edf565b6109896008612024565b61099484848361085d565b82600a600083815260200190815260200160002060010160006101000a81548173ffffffffffffffffffffffffffffffffffffffff021916908373ffffffffffffffffffffffffffffffffffffffff160217905550809150509695505050505050565b600080610a038361203a565b9050600073ffffffffffffffffffffffffffffffffffffffff168173ffffffffffffffffffffffffffffffffffffffff1603610a74576040517f08c379a0000000000000000000000000000000000000000000000000000000008152600401610a6b906137ff565b60405180910390fd5b80915050919050565b60008073ffffffffffffffffffffffffffffffffffffffff168273ffffffffffffffffffffffffffffffffffffffff1603610aed576040517f08c379a0000000000000000000000000000000000000000000000000000000008152600401610ae490613793565b60405180910390fd5b600360008373ffffffffffffffffffffffffffffffffffffffff1673ffffffffffffffffffffffffffffffffffffffff168152602001908152602001600020549050919050565b610b3c612077565b610b4660006120f5565b565b610b50612884565b600a60008381526020019081526020016000206040518060c0016040529081600082015481526020016001820160009054906101000a900473ffffffffffffffffffffffffffffffffffffffff1673ffffffffffffffffffffffffffffffffffffffff1673ffffffffffffffffffffffffffffffffffffffff168152602001600282018054610bde9061353a565b80601f0160208091040260200160405190810160405280929190818152602001828054610c0a9061353a565b8015610c575780601f10610c2c57610100808354040283529160200191610c57565b820191906000526020600020905b815481529060010190602001808311610c3a57829003601f168201915b50505050508152602001600382018054610c709061353a565b80601f0160208091040260200160405190810160405280929190818152602001828054610c9c9061353a565b8015610ce95780601f10610cbe57610100808354040283529160200191610ce9565b820191906000526020600020905b815481529060010190602001808311610ccc57829003601f168201915b50505050508152602001600482018054610d029061353a565b80601f0160208091040260200160405190810160405280929190818152602001828054610d2e9061353a565b8015610d7b5780601f10610d5057610100808354040283529160200191610d7b565b820191906000526020600020905b815481529060010190602001808311610d5e57829003601f168201915b50505050508152602001600582018054610d949061353a565b80601f0160208091040260200160405190810160405280929190818152602001828054610dc09061353a565b8015610e0d5780601f10610de257610100808354040283529160200191610e0d565b820191906000526020600020905b815481529060010190602001808311610df057829003601f168201915b5050505050815250509050919050565b6000610e296008611776565b9050610e353382611c1e565b610e3f8186611e3b565b600b60003373ffffffffffffffffffffffffffffffffffffffff1673ffffffffffffffffffffffffffffffffffffffff168152602001908152602001600020819080600181540180825580915050600190039060005260206000200160009091909190915055610eb28185858886611edf565b610ebc6008612024565b5050505050565b6000600760009054906101000a900473ffffffffffffffffffffffffffffffffffffffff16905090565b606060018054610efc9061353a565b80601f0160208091040260200160405190810160405280929190818152602001828054610f289061353a565b8015610f755780601f10610f4a57610100808354040283529160200191610f75565b820191906000526020600020905b815481529060010190602001808311610f5857829003601f168201915b5050505050905090565b610f91610f8a6117cf565b83836121bb565b5050565b610fa6610fa06117cf565b83611890565b610fe5576040517f08c379a0000000000000000000000000000000000000000000000000000000008152600401610fdc90613701565b60405180910390fd5b610ff184848484612327565b50505050565b606061100282611784565b60006006600084815260200190815260200160002080546110229061353a565b80601f016020809104026020016040519081016040528092919081815260200182805461104e9061353a565b801561109b5780601f106110705761010080835404028352916020019161109b565b820191906000526020600020905b81548152906001019060200180831161107e57829003601f168201915b5050505050905060006110ac612383565b905060008151036110c1578192505050611104565b6000825111156110f65780826040516020016110de92919061385b565b60405160208183030381529060405292505050611104565b6110ff8461239a565b925050505b919050565b606060006111176008611776565b905060008167ffffffffffffffff81111561113557611134612da1565b5b60405190808252806020026020018201604052801561116e57816020015b61115b612884565b8152602001906001900390816111535790505b509050600080600190505b838110156114c2573373ffffffffffffffffffffffffffffffffffffffff166111a1826109f7565b73ffffffffffffffffffffffffffffffffffffffff16036114af57600a60008281526020019081526020016000206040518060c0016040529081600082015481526020016001820160009054906101000a900473ffffffffffffffffffffffffffffffffffffffff1673ffffffffffffffffffffffffffffffffffffffff1673ffffffffffffffffffffffffffffffffffffffff16815260200160028201805461124a9061353a565b80601f01602080910402602001604051908101604052809291908181526020018280546112769061353a565b80156112c35780601f10611298576101008083540402835291602001916112c3565b820191906000526020600020905b8154815290600101906020018083116112a657829003601f168201915b505050505081526020016003820180546112dc9061353a565b80601f01602080910402602001604051908101604052809291908181526020018280546113089061353a565b80156113555780601f1061132a57610100808354040283529160200191611355565b820191906000526020600020905b81548152906001019060200180831161133857829003601f168201915b5050505050815260200160048201805461136e9061353a565b80601f016020809104026020016040519081016040528092919081815260200182805461139a9061353a565b80156113e75780601f106113bc576101008083540402835291602001916113e7565b820191906000526020600020905b8154815290600101906020018083116113ca57829003601f168201915b505050505081526020016005820180546114009061353a565b80601f016020809104026020016040519081016040528092919081815260200182805461142c9061353a565b80156114795780601f1061144e57610100808354040283529160200191611479565b820191906000526020600020905b81548152906001019060200180831161145c57829003601f168201915b5050505050815250508383815181106114955761149461387f565b5b602002602001018190525081806114ab906138dd565b9250505b80806114ba906138dd565b915050611179565b5060008167ffffffffffffffff8111156114df576114de612da1565b5b60405190808252806020026020018201604052801561151857816020015b611505612884565b8152602001906001900390816114fd5790505b50905060005b82811015611572578381815181106115395761153861387f565b5b60200260200101518282815181106115545761155361387f565b5b6020026020010181905250808061156a906138dd565b91505061151e565b508094505050505090565b6000600560008473ffffffffffffffffffffffffffffffffffffffff1673ffffffffffffffffffffffffffffffffffffffff16815260200190815260200160002060008373ffffffffffffffffffffffffffffffffffffffff1673ffffffffffffffffffffffffffffffffffffffff16815260200190815260200160002060009054906101000a900460ff16905092915050565b611619612077565b600073ffffffffffffffffffffffffffffffffffffffff168173ffffffffffffffffffffffffffffffffffffffff1603611688576040517f08c379a000000000000000000000000000000000000000000000000000000000815260040161167f90613997565b60405180910390fd5b611691816120f5565b50565b60007f80ac58cd000000000000000000000000000000000000000000000000000000007bffffffffffffffffffffffffffffffffffffffffffffffffffffffff1916827bffffffffffffffffffffffffffffffffffffffffffffffffffffffff1916148061175f57507f5b5e139f000000000000000000000000000000000000000000000000000000007bffffffffffffffffffffffffffffffffffffffffffffffffffffffff1916827bffffffffffffffffffffffffffffffffffffffffffffffffffffffff1916145b8061176f575061176e82612402565b5b9050919050565b600081600001549050919050565b61178d8161246c565b6117cc576040517f08c379a00000000000000000000000000000000000000000000000000000000081526004016117c3906137ff565b60405180910390fd5b50565b600033905090565b816004600083815260200190815260200160002060006101000a81548173ffffffffffffffffffffffffffffffffffffffff021916908373ffffffffffffffffffffffffffffffffffffffff160217905550808273ffffffffffffffffffffffffffffffffffffffff1661184a836109f7565b73ffffffffffffffffffffffffffffffffffffffff167f8c5be1e5ebec7d5bd14f71427d1e84f3dd0314c0f7b2291e5b200ac8c7c3b92560405160405180910390a45050565b60008061189c836109f7565b90508073ffffffffffffffffffffffffffffffffffffffff168473ffffffffffffffffffffffffffffffffffffffff1614806118de57506118dd818561157d565b5b8061191c57508373ffffffffffffffffffffffffffffffffffffffff166119048461059a565b73ffffffffffffffffffffffffffffffffffffffff16145b91505092915050565b8273ffffffffffffffffffffffffffffffffffffffff16611945826109f7565b73ffffffffffffffffffffffffffffffffffffffff161461199b576040517f08c379a000000000000000000000000000000000000000000000000000000000815260040161199290613a29565b60405180910390fd5b600073ffffffffffffffffffffffffffffffffffffffff168273ffffffffffffffffffffffffffffffffffffffff1603611a0a576040517f08c379a0000000000000000000000000000000000000000000000000000000008152600401611a0190613abb565b60405180910390fd5b611a1783838360016124ad565b8273ffffffffffffffffffffffffffffffffffffffff16611a37826109f7565b73ffffffffffffffffffffffffffffffffffffffff1614611a8d576040517f08c379a0000000000000000000000000000000000000000000000000000000008152600401611a8490613a29565b60405180910390fd5b6004600082815260200190815260200160002060006101000a81549073ffffffffffffffffffffffffffffffffffffffff02191690556001600360008573ffffffffffffffffffffffffffffffffffffffff1673ffffffffffffffffffffffffffffffffffffffff168152602001908152602001600020600082825403925050819055506001600360008473ffffffffffffffffffffffffffffffffffffffff1673ffffffffffffffffffffffffffffffffffffffff16815260200190815260200160002060008282540192505081905550816002600083815260200190815260200160002060006101000a81548173ffffffffffffffffffffffffffffffffffffffff021916908373ffffffffffffffffffffffffffffffffffffffff160217905550808273ffffffffffffffffffffffffffffffffffffffff168473ffffffffffffffffffffffffffffffffffffffff167fddf252ad1be2c89b69c2b068fc378daa952ba7f163c4a11628f55a4df523b3ef60405160405180910390a4611c1983838360016124b3565b505050565b600073ffffffffffffffffffffffffffffffffffffffff168273ffffffffffffffffffffffffffffffffffffffff1603611c8d576040517f08c379a0000000000000000000000000000000000000000000000000000000008152600401611c8490613b27565b60405180910390fd5b611c968161246c565b15611cd6576040517f08c379a0000000000000000000000000000000000000000000000000000000008152600401611ccd90613b93565b60405180910390fd5b611ce46000838360016124ad565b611ced8161246c565b15611d2d576040517f08c379a0000000000000000000000000000000000000000000000000000000008152600401611d2490613b93565b60405180910390fd5b6001600360008473ffffffffffffffffffffffffffffffffffffffff1673ffffffffffffffffffffffffffffffffffffffff16815260200190815260200160002060008282540192505081905550816002600083815260200190815260200160002060006101000a81548173ffffffffffffffffffffffffffffffffffffffff021916908373ffffffffffffffffffffffffffffffffffffffff160217905550808273ffffffffffffffffffffffffffffffffffffffff16600073ffffffffffffffffffffffffffffffffffffffff167fddf252ad1be2c89b69c2b068fc378daa952ba7f163c4a11628f55a4df523b3ef60405160405180910390a4611e376000838360016124b3565b5050565b611e448261246c565b611e83576040517f08c379a0000000000000000000000000000000000000000000000000000000008152600401611e7a90613c25565b60405180910390fd5b80600660008481526020019081526020016000209081611ea39190613df1565b507ff8e1a15aba9398e019f0b49df1a4fde98ee17ae345cb5f6b5e2c27f5033e8ce782604051611ed391906129b8565b60405180910390a15050565b84600a60008781526020019081526020016000206000018190555033600a600087815260200190815260200160002060010160006101000a81548173ffffffffffffffffffffffffffffffffffffffff021916908373ffffffffffffffffffffffffffffffffffffffff16021790555083600a60008781526020019081526020016000206002019081611f729190613df1565b5082600a60008781526020019081526020016000206003019081611f969190613df1565b5081600a60008781526020019081526020016000206005019081611fba9190613df1565b5080600a60008781526020019081526020016000206004019081611fde9190613df1565b50847f4afa94a2fb84eccde93ef2f896b4e966426d705c605244b220567b792a89ab45338686856040516120159493929190613ed2565b60405180910390a25050505050565b6001816000016000828254019250508190555050565b60006002600083815260200190815260200160002060009054906101000a900473ffffffffffffffffffffffffffffffffffffffff169050919050565b61207f6117cf565b73ffffffffffffffffffffffffffffffffffffffff1661209d610ec3565b73ffffffffffffffffffffffffffffffffffffffff16146120f3576040517f08c379a00000000000000000000000000000000000000000000000000000000081526004016120ea90613f78565b60405180910390fd5b565b6000600760009054906101000a900473ffffffffffffffffffffffffffffffffffffffff16905081600760006101000a81548173ffffffffffffffffffffffffffffffffffffffff021916908373ffffffffffffffffffffffffffffffffffffffff1602179055508173ffffffffffffffffffffffffffffffffffffffff168173ffffffffffffffffffffffffffffffffffffffff167f8be0079c531659141344cd1fd0a4f28419497f9722a3daafe3b4186f6b6457e060405160405180910390a35050565b8173ffffffffffffffffffffffffffffffffffffffff168373ffffffffffffffffffffffffffffffffffffffff1603612229576040517f08c379a000000000000000000000000000000000000000000000000000000000815260040161222090613fe4565b60405180910390fd5b80600560008573ffffffffffffffffffffffffffffffffffffffff1673ffffffffffffffffffffffffffffffffffffffff16815260200190815260200160002060008473ffffffffffffffffffffffffffffffffffffffff1673ffffffffffffffffffffffffffffffffffffffff16815260200190815260200160002060006101000a81548160ff0219169083151502179055508173ffffffffffffffffffffffffffffffffffffffff168373ffffffffffffffffffffffffffffffffffffffff167f17307eab39ab6107e8899845ad3d59bd9653f200f220920489ca2b5937696c318360405161231a9190612984565b60405180910390a3505050565b612332848484611925565b61233e848484846124b9565b61237d576040517f08c379a000000000000000000000000000000000000000000000000000000000815260040161237490614076565b60405180910390fd5b50505050565b606060405180602001604052806000815250905090565b60606123a582611784565b60006123af612383565b905060008151116123cf57604051806020016040528060008152506123fa565b806123d984612640565b6040516020016123ea92919061385b565b6040516020818303038152906040525b915050919050565b60007f01ffc9a7000000000000000000000000000000000000000000000000000000007bffffffffffffffffffffffffffffffffffffffffffffffffffffffff1916827bffffffffffffffffffffffffffffffffffffffffffffffffffffffff1916149050919050565b60008073ffffffffffffffffffffffffffffffffffffffff1661248e8361203a565b73ffffffffffffffffffffffffffffffffffffffff1614159050919050565b50505050565b50505050565b60006124da8473ffffffffffffffffffffffffffffffffffffffff1661270e565b15612633578373ffffffffffffffffffffffffffffffffffffffff1663150b7a026125036117cf565b8786866040518563ffffffff1660e01b815260040161252594939291906140eb565b6020604051808303816000875af192505050801561256157506040513d601f19601f8201168201806040525081019061255e919061414c565b60015b6125e3573d8060008114612591576040519150601f19603f3d011682016040523d82523d6000602084013e612596565b606091505b5060008151036125db576040517f08c379a00000000000000000000000000000000000000000000000000000000081526004016125d290614076565b60405180910390fd5b805181602001fd5b63150b7a0260e01b7bffffffffffffffffffffffffffffffffffffffffffffffffffffffff1916817bffffffffffffffffffffffffffffffffffffffffffffffffffffffff191614915050612638565b600190505b949350505050565b60606000600161264f84612731565b01905060008167ffffffffffffffff81111561266e5761266d612da1565b5b6040519080825280601f01601f1916602001820160405280156126a05781602001600182028036833780820191505090505b509050600082602001820190505b600115612703578080600190039150507f3031323334353637383961626364656600000000000000000000000000000000600a86061a8153600a85816126f7576126f6614179565b5b049450600085036126ae575b819350505050919050565b6000808273ffffffffffffffffffffffffffffffffffffffff163b119050919050565b600080600090507a184f03e93ff9f4daa797ed6e38ed64bf6a1f010000000000000000831061278f577a184f03e93ff9f4daa797ed6e38ed64bf6a1f010000000000000000838161278557612784614179565b5b0492506040810190505b6d04ee2d6d415b85acef810000000083106127cc576d04ee2d6d415b85acef810000000083816127c2576127c1614179565b5b0492506020810190505b662386f26fc1000083106127fb57662386f26fc1000083816127f1576127f0614179565b5b0492506010810190505b6305f5e1008310612824576305f5e100838161281a57612819614179565b5b0492506008810190505b612710831061284957612710838161283f5761283e614179565b5b0492506004810190505b6064831061286c576064838161286257612861614179565b5b0492506002810190505b600a831061287b576001810190505b80915050919050565b6040518060c0016040528060008152602001600073ffffffffffffffffffffffffffffffffffffffff168152602001606081526020016060815260200160608152602001606081525090565b6000604051905090565b600080fd5b600080fd5b60007fffffffff0000000000000000000000000000000000000000000000000000000082169050919050565b612919816128e4565b811461292457600080fd5b50565b60008135905061293681612910565b92915050565b600060208284031215612952576129516128da565b5b600061296084828501612927565b91505092915050565b60008115159050919050565b61297e81612969565b82525050565b60006020820190506129996000830184612975565b92915050565b6000819050919050565b6129b28161299f565b82525050565b60006020820190506129cd60008301846129a9565b92915050565b600081519050919050565b600082825260208201905092915050565b60005b83811015612a0d5780820151818401526020810190506129f2565b60008484015250505050565b6000601f19601f8301169050919050565b6000612a35826129d3565b612a3f81856129de565b9350612a4f8185602086016129ef565b612a5881612a19565b840191505092915050565b60006020820190508181036000830152612a7d8184612a2a565b905092915050565b612a8e8161299f565b8114612a9957600080fd5b50565b600081359050612aab81612a85565b92915050565b600060208284031215612ac757612ac66128da565b5b6000612ad584828501612a9c565b91505092915050565b600073ffffffffffffffffffffffffffffffffffffffff82169050919050565b6000612b0982612ade565b9050919050565b612b1981612afe565b82525050565b6000602082019050612b346000830184612b10565b92915050565b612b4381612afe565b8114612b4e57600080fd5b50565b600081359050612b6081612b3a565b92915050565b60008060408385031215612b7d57612b7c6128da565b5b6000612b8b85828601612b51565b9250506020612b9c85828601612a9c565b9150509250929050565b600080600060608486031215612bbf57612bbe6128da565b5b6000612bcd86828701612b51565b9350506020612bde86828701612b51565b9250506040612bef86828701612a9c565b9150509250925092565b600060208284031215612c0f57612c0e6128da565b5b6000612c1d84828501612b51565b91505092915050565b600081519050919050565b600082825260208201905092915050565b6000819050602082019050919050565b612c5b8161299f565b82525050565b6000612c6d8383612c52565b60208301905092915050565b6000602082019050919050565b6000612c9182612c26565b612c9b8185612c31565b9350612ca683612c42565b8060005b83811015612cd7578151612cbe8882612c61565b9750612cc983612c79565b925050600181019050612caa565b5085935050505092915050565b60006020820190508181036000830152612cfe8184612c86565b905092915050565b6000612d1182612ade565b9050919050565b612d2181612d06565b8114612d2c57600080fd5b50565b600081359050612d3e81612d18565b92915050565b600080600060608486031215612d5d57612d5c6128da565b5b6000612d6b86828701612b51565b9350506020612d7c86828701612d2f565b9250506040612d8d86828701612a9c565b9150509250925092565b600080fd5b600080fd5b7f4e487b7100000000000000000000000000000000000000000000000000000000600052604160045260246000fd5b612dd982612a19565b810181811067ffffffffffffffff82111715612df857612df7612da1565b5b80604052505050565b6000612e0b6128d0565b9050612e178282612dd0565b919050565b600067ffffffffffffffff821115612e3757612e36612da1565b5b612e4082612a19565b9050602081019050919050565b82818337600083830152505050565b6000612e6f612e6a84612e1c565b612e01565b905082815260208101848484011115612e8b57612e8a612d9c565b5b612e96848285612e4d565b509392505050565b600082601f830112612eb357612eb2612d97565b5b8135612ec3848260208601612e5c565b91505092915050565b60008060008060008060c08789031215612ee957612ee86128da565b5b600087013567ffffffffffffffff811115612f0757612f066128df565b5b612f1389828a01612e9e565b965050602087013567ffffffffffffffff811115612f3457612f336128df565b5b612f4089828a01612e9e565b955050604087013567ffffffffffffffff811115612f6157612f606128df565b5b612f6d89828a01612e9e565b945050606087013567ffffffffffffffff811115612f8e57612f8d6128df565b5b612f9a89828a01612e9e565b9350506080612fab89828a01612b51565b92505060a0612fbc89828a01612d2f565b9150509295509295509295565b612fd281612d06565b82525050565b600082825260208201905092915050565b6000612ff4826129d3565b612ffe8185612fd8565b935061300e8185602086016129ef565b61301781612a19565b840191505092915050565b600060c08301600083015161303a6000860182612c52565b50602083015161304d6020860182612fc9565b50604083015184820360408601526130658282612fe9565b9150506060830151848203606086015261307f8282612fe9565b915050608083015184820360808601526130998282612fe9565b91505060a083015184820360a08601526130b38282612fe9565b9150508091505092915050565b600060208201905081810360008301526130da8184613022565b905092915050565b600080600080608085870312156130fc576130fb6128da565b5b600085013567ffffffffffffffff81111561311a576131196128df565b5b61312687828801612e9e565b945050602085013567ffffffffffffffff811115613147576131466128df565b5b61315387828801612e9e565b935050604085013567ffffffffffffffff811115613174576131736128df565b5b61318087828801612e9e565b925050606085013567ffffffffffffffff8111156131a1576131a06128df565b5b6131ad87828801612e9e565b91505092959194509250565b6131c281612969565b81146131cd57600080fd5b50565b6000813590506131df816131b9565b92915050565b600080604083850312156131fc576131fb6128da565b5b600061320a85828601612b51565b925050602061321b858286016131d0565b9150509250929050565b600067ffffffffffffffff8211156132405761323f612da1565b5b61324982612a19565b9050602081019050919050565b600061326961326484613225565b612e01565b90508281526020810184848401111561328557613284612d9c565b5b613290848285612e4d565b509392505050565b600082601f8301126132ad576132ac612d97565b5b81356132bd848260208601613256565b91505092915050565b600080600080608085870312156132e0576132df6128da565b5b60006132ee87828801612b51565b94505060206132ff87828801612b51565b935050604061331087828801612a9c565b925050606085013567ffffffffffffffff811115613331576133306128df565b5b61333d87828801613298565b91505092959194509250565b600081519050919050565b600082825260208201905092915050565b6000819050602082019050919050565b600060c08301600083015161338d6000860182612c52565b5060208301516133a06020860182612fc9565b50604083015184820360408601526133b88282612fe9565b915050606083015184820360608601526133d28282612fe9565b915050608083015184820360808601526133ec8282612fe9565b91505060a083015184820360a08601526134068282612fe9565b9150508091505092915050565b600061341f8383613375565b905092915050565b6000602082019050919050565b600061343f82613349565b6134498185613354565b93508360208202850161345b85613365565b8060005b8581101561349757848403895281516134788582613413565b945061348383613427565b925060208a0199505060018101905061345f565b50829750879550505050505092915050565b600060208201905081810360008301526134c38184613434565b905092915050565b600080604083850312156134e2576134e16128da565b5b60006134f085828601612b51565b925050602061350185828601612b51565b9150509250929050565b7f4e487b7100000000000000000000000000000000000000000000000000000000600052602260045260246000fd5b6000600282049050600182168061355257607f821691505b6020821081036135655761356461350b565b5b50919050565b7f4552433732313a20617070726f76616c20746f2063757272656e74206f776e6560008201527f7200000000000000000000000000000000000000000000000000000000000000602082015250565b60006135c76021836129de565b91506135d28261356b565b604082019050919050565b600060208201905081810360008301526135f6816135ba565b9050919050565b7f4552433732313a20617070726f76652063616c6c6572206973206e6f7420746f60008201527f6b656e206f776e6572206f7220617070726f76656420666f7220616c6c000000602082015250565b6000613659603d836129de565b9150613664826135fd565b604082019050919050565b600060208201905081810360008301526136888161364c565b9050919050565b7f4552433732313a2063616c6c6572206973206e6f7420746f6b656e206f776e6560008201527f72206f7220617070726f76656400000000000000000000000000000000000000602082015250565b60006136eb602d836129de565b91506136f68261368f565b604082019050919050565b6000602082019050818103600083015261371a816136de565b9050919050565b7f4552433732313a2061646472657373207a65726f206973206e6f74206120766160008201527f6c6964206f776e65720000000000000000000000000000000000000000000000602082015250565b600061377d6029836129de565b915061378882613721565b604082019050919050565b600060208201905081810360008301526137ac81613770565b9050919050565b7f4552433732313a20696e76616c696420746f6b656e2049440000000000000000600082015250565b60006137e96018836129de565b91506137f4826137b3565b602082019050919050565b60006020820190508181036000830152613818816137dc565b9050919050565b600081905092915050565b6000613835826129d3565b61383f818561381f565b935061384f8185602086016129ef565b80840191505092915050565b6000613867828561382a565b9150613873828461382a565b91508190509392505050565b7f4e487b7100000000000000000000000000000000000000000000000000000000600052603260045260246000fd5b7f4e487b7100000000000000000000000000000000000000000000000000000000600052601160045260246000fd5b60006138e88261299f565b91507fffffffffffffffffffffffffffffffffffffffffffffffffffffffffffffffff820361391a576139196138ae565b5b600182019050919050565b7f4f776e61626c653a206e6577206f776e657220697320746865207a65726f206160008201527f6464726573730000000000000000000000000000000000000000000000000000602082015250565b60006139816026836129de565b915061398c82613925565b604082019050919050565b600060208201905081810360008301526139b081613974565b9050919050565b7f4552433732313a207472616e736665722066726f6d20696e636f72726563742060008201527f6f776e6572000000000000000000000000000000000000000000000000000000602082015250565b6000613a136025836129de565b9150613a1e826139b7565b604082019050919050565b60006020820190508181036000830152613a4281613a06565b9050919050565b7f4552433732313a207472616e7366657220746f20746865207a65726f2061646460008201527f7265737300000000000000000000000000000000000000000000000000000000602082015250565b6000613aa56024836129de565b9150613ab082613a49565b604082019050919050565b60006020820190508181036000830152613ad481613a98565b9050919050565b7f4552433732313a206d696e7420746f20746865207a65726f2061646472657373600082015250565b6000613b116020836129de565b9150613b1c82613adb565b602082019050919050565b60006020820190508181036000830152613b4081613b04565b9050919050565b7f4552433732313a20746f6b656e20616c7265616479206d696e74656400000000600082015250565b6000613b7d601c836129de565b9150613b8882613b47565b602082019050919050565b60006020820190508181036000830152613bac81613b70565b9050919050565b7f45524337323155524953746f726167653a2055524920736574206f66206e6f6e60008201527f6578697374656e7420746f6b656e000000000000000000000000000000000000602082015250565b6000613c0f602e836129de565b9150613c1a82613bb3565b604082019050919050565b60006020820190508181036000830152613c3e81613c02565b9050919050565b60008190508160005260206000209050919050565b60006020601f8301049050919050565b600082821b905092915050565b600060088302613ca77fffffffffffffffffffffffffffffffffffffffffffffffffffffffffffffffff82613c6a565b613cb18683613c6a565b95508019841693508086168417925050509392505050565b6000819050919050565b6000613cee613ce9613ce48461299f565b613cc9565b61299f565b9050919050565b6000819050919050565b613d0883613cd3565b613d1c613d1482613cf5565b848454613c77565b825550505050565b600090565b613d31613d24565b613d3c818484613cff565b505050565b5b81811015613d6057613d55600082613d29565b600181019050613d42565b5050565b601f821115613da557613d7681613c45565b613d7f84613c5a565b81016020851015613d8e578190505b613da2613d9a85613c5a565b830182613d41565b50505b505050565b600082821c905092915050565b6000613dc860001984600802613daa565b1980831691505092915050565b6000613de18383613db7565b9150826002028217905092915050565b613dfa826129d3565b67ffffffffffffffff811115613e1357613e12612da1565b5b613e1d825461353a565b613e28828285613d64565b600060209050601f831160018114613e5b5760008415613e49578287015190505b613e538582613dd5565b865550613ebb565b601f198416613e6986613c45565b60005b82811015613e9157848901518255600182019150602085019450602081019050613e6c565b86831015613eae5784890151613eaa601f891682613db7565b8355505b6001600288020188555050505b505050505050565b613ecc81612d06565b82525050565b6000608082019050613ee76000830187613ec3565b8181036020830152613ef98186612a2a565b90508181036040830152613f0d8185612a2a565b90508181036060830152613f218184612a2a565b905095945050505050565b7f4f776e61626c653a2063616c6c6572206973206e6f7420746865206f776e6572600082015250565b6000613f626020836129de565b9150613f6d82613f2c565b602082019050919050565b60006020820190508181036000830152613f9181613f55565b9050919050565b7f4552433732313a20617070726f766520746f2063616c6c657200000000000000600082015250565b6000613fce6019836129de565b9150613fd982613f98565b602082019050919050565b60006020820190508181036000830152613ffd81613fc1565b9050919050565b7f4552433732313a207472616e7366657220746f206e6f6e20455243373231526560008201527f63656976657220696d706c656d656e7465720000000000000000000000000000602082015250565b60006140606032836129de565b915061406b82614004565b604082019050919050565b6000602082019050818103600083015261408f81614053565b9050919050565b600081519050919050565b600082825260208201905092915050565b60006140bd82614096565b6140c781856140a1565b93506140d78185602086016129ef565b6140e081612a19565b840191505092915050565b60006080820190506141006000830187612b10565b61410d6020830186612b10565b61411a60408301856129a9565b818103606083015261412c81846140b2565b905095945050505050565b60008151905061414681612910565b92915050565b600060208284031215614162576141616128da565b5b600061417084828501614137565b91505092915050565b7f4e487b7100000000000000000000000000000000000000000000000000000000600052601260045260246000fdfea2646970667358221220c93c2a9d9c5b4a6087603728b9d947bb7458ab3111ddc820c31fd224f5d0258c64736f6c63430008130033",
  "immutableReferences": {},
  "source": "// contracts/MyNFT.sol\r\n// SPDX-License-Identifier: MIT\r\npragma solidity ^0.8.0;\r\n\r\nimport \"@openzeppelin/contracts/token/ERC721/ERC721.sol\";\r\nimport \"@openzeppelin/contracts/utils/Counters.sol\";\r\nimport \"@openzeppelin/contracts/access/Ownable.sol\";\r\nimport \"@openzeppelin/contracts/token/ERC721/extensions/ERC721URIStorage.sol\";\r\nimport \"./openzeppelin/ERC721EnumerableModify.sol\";\r\n\r\ncontract MyNFT is ERC721URIStorage, Ownable {\r\n    using Counters for Counters.Counter;\r\n    Counters.Counter private tokenIds;\r\n    Counters.Counter private userIds;\r\n\r\n\r\n    struct nftStruct {\r\n        uint256 tokenId;\r\n        address payable owner;\r\n        string title;\r\n        string description;\r\n        string image;\r\n        string tokenUri;\r\n    }\r\n\r\n    mapping(uint256 => nftStruct) private nfts;\r\n    mapping(address => uint256 []) private nftOwners;\r\n\r\n    event NftStructCreated(\r\n        uint256 indexed tokenId,\r\n        address payable owner,\r\n        string title,\r\n        string description,\r\n        string image\r\n    );\r\n\r\n    constructor() ERC721(\"NFT MINTO\", \"MINTO's NFT collection\") {\r\n        tokenIds.increment();\r\n        userIds.increment();\r\n    }\r\n    \r\n\r\n    function setNft(\r\n        uint256 _tokenId,\r\n        string memory _title,\r\n        string memory _description,\r\n        string memory _tokenURI,\r\n        string memory _image\r\n    ) private {\r\n\r\n        nfts[_tokenId].tokenId = _tokenId;\r\n        nfts[_tokenId].owner = payable(msg.sender);\r\n        nfts[_tokenId].title = _title;\r\n        nfts[_tokenId].description = _description;\r\n        nfts[_tokenId].tokenUri = _tokenURI;\r\n        nfts[_tokenId].image = _image;\r\n\r\n        emit NftStructCreated(\r\n            _tokenId,\r\n            payable(msg.sender),\r\n            _title,\r\n            _description,\r\n            _image\r\n        );\r\n    }\r\n    /// @dev this function mints received NFTs\r\n    /// @param _tokenURI the new token URI for the magazine cover\r\n    /// @param _title the name of the magazine cover\r\n    /// @param _description detailed information on the magazine NFT\r\n    /// @param _image image\r\n    // /// @return tokenId of the created NFT\r\n    function createNft(\r\n        string memory _tokenURI,\r\n        string memory _title,\r\n        string memory _description,\r\n        string memory _image\r\n    ) public  {\r\n        \r\n        uint256 newTokenId = tokenIds.current();\r\n        _mint(msg.sender, newTokenId);\r\n        _setTokenURI(newTokenId, _tokenURI);\r\n        nftOwners[msg.sender].push(newTokenId);\r\n        setNft(newTokenId, _title, _description, _tokenURI, _image);\r\n        tokenIds.increment();\r\n    }\r\n\r\n\r\n    \r\n    // not use\r\n    /// @dev fetches NFT magazines that a specific user has created\r\n    /// @return nftStruct[] list of nfts created by a user with their metadata\r\n    // function getNfts() public view returns (nftStruct[] memory) {\r\n    //     uint256 nftCount = tokenIds.current();\r\n    //     nftStruct[] memory nftSubs = new nftStruct[](nftCount);\r\n    //     for (uint256 i = 1; i < nftCount; i++) {\r\n    //         if (nfts[i].owner == payable(msg.sender)) {\r\n    //             nftSubs[i] = nfts[i];\r\n    //         }\r\n    //     }\r\n\r\n    //     return nftSubs;\r\n    // }\r\n\r\n    /// @dev fetches NFT magazines that a specific user has created\r\n    /// @return nftStruct[] list of nfts created by a user with their metadata\r\n    function getNfts() public view returns (nftStruct[] memory){\r\n        uint256 nftCount = tokenIds.current();\r\n        nftStruct[] memory myNfts = new nftStruct[](nftCount);\r\n        uint256 j = 0;\r\n        for (uint256 i = 1; i < nftCount; i++){\r\n            if (ownerOf(i) == msg.sender){\r\n                myNfts[j] = nfts[i];\r\n                j++;\r\n            }\r\n        }\r\n        nftStruct[] memory returnMyNFts = new nftStruct[](j);\r\n        for (uint256 i = 0; i < j; i++){\r\n            returnMyNFts[i] = myNfts[i];\r\n        }\r\n        return returnMyNFts;\r\n    }\r\n\r\n    /// @dev fetches details of a particular NFT magazine subscription\r\n    /// @param _tokenId The token ID of the NFT Magazine\r\n    /// @return nftStruct NFT data of the specific token ID\r\n    function getIndividualNFT (\r\n        uint256 _tokenId\r\n    ) public view returns (nftStruct memory) {\r\n        return nfts[_tokenId];\r\n    }\r\n\r\n    function getNftsByAddress (address owner) public view returns(uint256[] memory){\r\n        require(owner != address(0), \"ERC721: address zero is not a valid owner\");\r\n        return nftOwners[owner];\r\n    }\r\n\r\n    function sendNft(address from, address  payable to, uint256 tokenId) public returns(uint256){\r\n        safeTransferFrom(from, to, tokenId);\r\n        // owner  \r\n        nfts[tokenId].owner = to;\r\n        return tokenId;\r\n    }\r\n\r\n    function getNftsCount() public view returns(uint256){\r\n        return tokenIds.current();\r\n    }\r\n\r\n    function createAndSendNft(string memory _tokenURI, string memory _title,\r\n            string memory _description, string memory _image, address from, address payable to) \r\n        public returns(uint256){\r\n        uint256 newTokenId = tokenIds.current();\r\n        _mint(from, newTokenId);\r\n        _setTokenURI(newTokenId, _tokenURI);\r\n        nftOwners[from].push(newTokenId);\r\n        setNft(newTokenId, _title, _description, _tokenURI, _image);\r\n        tokenIds.increment();\r\n        \r\n        safeTransferFrom(from, to, newTokenId);\r\n        nfts[newTokenId].owner = to;\r\n        return newTokenId;\r\n    }\r\n}",
  "sourcePath": "C:\\Projects\\minto-nft\\contracts\\MyNFT.sol",
  "compiler": {
    "name": "solc",
    "version": "0.8.19+commit.7dd6d404.Emscripten.clang"
  },
  "schemaVersion": "3.4.16",
  "updatedAt": "2024-03-25T10:00:12.187Z",
  "networkType": "ethereum",
  "devdoc": {
    "events": {
      "Approval(address,address,uint256)": {
        "details": "Emitted when `owner` enables `approved` to manage the `tokenId` token."
      },
      "ApprovalForAll(address,address,bool)": {
        "details": "Emitted when `owner` enables or disables (`approved`) `operator` to manage all of its assets."
      },
      "BatchMetadataUpdate(uint256,uint256)": {
        "details": "This event emits when the metadata of a range of tokens is changed. So that the third-party platforms such as NFT market could timely update the images and related attributes of the NFTs."
      },
      "MetadataUpdate(uint256)": {
        "details": "This event emits when the metadata of a token is changed. So that the third-party platforms such as NFT market could timely update the images and related attributes of the NFT."
      },
      "Transfer(address,address,uint256)": {
        "details": "Emitted when `tokenId` token is transferred from `from` to `to`."
      }
    },
    "kind": "dev",
    "methods": {
      "approve(address,uint256)": {
        "details": "See {IERC721-approve}."
      },
      "balanceOf(address)": {
        "details": "See {IERC721-balanceOf}."
      },
      "createNft(string,string,string,string)": {
        "details": "this function mints received NFTs",
        "params": {
          "_description": "detailed information on the magazine NFT",
          "_image": "image",
          "_title": "the name of the magazine cover",
          "_tokenURI": "the new token URI for the magazine cover"
        }
      },
      "getApproved(uint256)": {
        "details": "See {IERC721-getApproved}."
      },
      "getIndividualNFT(uint256)": {
        "details": "fetches details of a particular NFT magazine subscription",
        "params": {
          "_tokenId": "The token ID of the NFT Magazine"
        },
        "returns": {
          "_0": "nftStruct NFT data of the specific token ID"
        }
      },
      "getNfts()": {
        "details": "fetches NFT magazines that a specific user has created",
        "returns": {
          "_0": "nftStruct[] list of nfts created by a user with their metadata"
        }
      },
      "isApprovedForAll(address,address)": {
        "details": "See {IERC721-isApprovedForAll}."
      },
      "name()": {
        "details": "See {IERC721Metadata-name}."
      },
      "owner()": {
        "details": "Returns the address of the current owner."
      },
      "ownerOf(uint256)": {
        "details": "See {IERC721-ownerOf}."
      },
      "renounceOwnership()": {
        "details": "Leaves the contract without owner. It will not be possible to call `onlyOwner` functions. Can only be called by the current owner. NOTE: Renouncing ownership will leave the contract without an owner, thereby disabling any functionality that is only available to the owner."
      },
      "safeTransferFrom(address,address,uint256)": {
        "details": "See {IERC721-safeTransferFrom}."
      },
      "safeTransferFrom(address,address,uint256,bytes)": {
        "details": "See {IERC721-safeTransferFrom}."
      },
      "setApprovalForAll(address,bool)": {
        "details": "See {IERC721-setApprovalForAll}."
      },
      "supportsInterface(bytes4)": {
        "details": "See {IERC165-supportsInterface}"
      },
      "symbol()": {
        "details": "See {IERC721Metadata-symbol}."
      },
      "tokenURI(uint256)": {
        "details": "See {IERC721Metadata-tokenURI}."
      },
      "transferFrom(address,address,uint256)": {
        "details": "See {IERC721-transferFrom}."
      },
      "transferOwnership(address)": {
        "details": "Transfers ownership of the contract to a new account (`newOwner`). Can only be called by the current owner."
      }
    },
    "version": 1
  },
  "userdoc": {
    "kind": "user",
    "methods": {},
    "version": 1
  }
}